{
  "abi": [
    {
      "inputs": [],
      "stateMutability": "nonpayable",
      "type": "constructor"
    },
    {
      "anonymous": false,
      "inputs": [
        {
          "indexed": true,
          "internalType": "uint32",
          "name": "challengeNumber",
          "type": "uint32"
        },
        {
          "indexed": true,
          "internalType": "uint256",
          "name": "itemNumber",
          "type": "uint256"
        }
      ],
      "name": "BatchInformationUpdated",
      "type": "event"
    },
    {
      "anonymous": false,
      "inputs": [
        {
          "indexed": true,
          "internalType": "uint32",
          "name": "challengeNumber",
          "type": "uint32"
        }
      ],
      "name": "ChallengeAndTournamentScoresUpdated",
      "type": "event"
    },
    {
      "anonymous": false,
      "inputs": [
        {
          "indexed": true,
          "internalType": "uint32",
          "name": "challengeNumber",
          "type": "uint32"
        }
      ],
      "name": "ChallengeOpened",
      "type": "event"
    },
    {
      "anonymous": false,
      "inputs": [
        {
          "indexed": true,
          "internalType": "uint256",
          "name": "newPercentage",
          "type": "uint256"
        }
      ],
      "name": "ChallengeRewardsPercentageInWeiUpdated",
      "type": "event"
    },
    {
      "anonymous": false,
      "inputs": [
        {
          "indexed": true,
          "internalType": "uint32",
          "name": "challengeNumber",
          "type": "uint32"
        },
        {
          "indexed": true,
          "internalType": "bytes32",
          "name": "oldDatasetHash",
          "type": "bytes32"
        },
        {
          "indexed": true,
          "internalType": "bytes32",
          "name": "newDatasetHash",
          "type": "bytes32"
        }
      ],
      "name": "DatasetUpdated",
      "type": "event"
    },
    {
      "anonymous": false,
      "inputs": [
        {
          "indexed": true,
          "internalType": "uint32",
          "name": "challengeNumber",
          "type": "uint32"
        },
        {
          "indexed": true,
          "internalType": "bytes32",
          "name": "oldKeyHash",
          "type": "bytes32"
        },
        {
          "indexed": true,
          "internalType": "bytes32",
          "name": "newKeyHash",
          "type": "bytes32"
        }
      ],
      "name": "KeyUpdated",
      "type": "event"
    },
    {
      "anonymous": false,
      "inputs": [],
      "name": "MessageUpdated",
      "type": "event"
    },
    {
      "anonymous": false,
      "inputs": [
        {
          "indexed": true,
          "internalType": "bytes32",
          "name": "newPrivateKeyHash",
          "type": "bytes32"
        }
      ],
      "name": "PrivateKeyUpdated",
      "type": "event"
    },
    {
      "anonymous": false,
      "inputs": [
        {
          "indexed": true,
          "internalType": "uint256",
          "name": "remainder",
          "type": "uint256"
        }
      ],
      "name": "RemainderMovedToPool",
      "type": "event"
    },
    {
      "anonymous": false,
      "inputs": [
        {
          "indexed": true,
          "internalType": "uint32",
          "name": "challengeNumber",
          "type": "uint32"
        },
        {
          "indexed": true,
          "internalType": "bytes32",
          "name": "oldResultsHash",
          "type": "bytes32"
        },
        {
          "indexed": true,
          "internalType": "bytes32",
          "name": "newResultsHash",
          "type": "bytes32"
        }
      ],
      "name": "ResultsUpdated",
      "type": "event"
    },
    {
      "anonymous": false,
      "inputs": [
        {
          "indexed": false,
          "internalType": "uint32",
          "name": "challengeNumber",
          "type": "uint32"
        },
        {
          "indexed": true,
          "internalType": "address",
          "name": "submitter",
          "type": "address"
        },
        {
          "indexed": false,
          "internalType": "uint256",
          "name": "stakingReward",
          "type": "uint256"
        },
        {
          "indexed": true,
          "internalType": "uint256",
          "name": "challengeReward",
          "type": "uint256"
        },
        {
          "indexed": true,
          "internalType": "uint256",
          "name": "tournamentReward",
          "type": "uint256"
        }
      ],
      "name": "RewardsPayment",
      "type": "event"
    },
    {
      "anonymous": false,
      "inputs": [
        {
          "indexed": true,
          "internalType": "uint256",
          "name": "newRewardsThreshold",
          "type": "uint256"
        }
      ],
      "name": "RewardsThresholdUpdated",
      "type": "event"
    },
    {
      "anonymous": false,
      "inputs": [
        {
          "indexed": true,
          "internalType": "bytes32",
          "name": "role",
          "type": "bytes32"
        },
        {
          "indexed": true,
          "internalType": "bytes32",
          "name": "previousAdminRole",
          "type": "bytes32"
        },
        {
          "indexed": true,
          "internalType": "bytes32",
          "name": "newAdminRole",
          "type": "bytes32"
        }
      ],
      "name": "RoleAdminChanged",
      "type": "event"
    },
    {
      "anonymous": false,
      "inputs": [
        {
          "indexed": true,
          "internalType": "bytes32",
          "name": "role",
          "type": "bytes32"
        },
        {
          "indexed": true,
          "internalType": "address",
          "name": "account",
          "type": "address"
        },
        {
          "indexed": true,
          "internalType": "address",
          "name": "sender",
          "type": "address"
        }
      ],
      "name": "RoleGranted",
      "type": "event"
    },
    {
      "anonymous": false,
      "inputs": [
        {
          "indexed": true,
          "internalType": "bytes32",
          "name": "role",
          "type": "bytes32"
        },
        {
          "indexed": true,
          "internalType": "address",
          "name": "account",
          "type": "address"
        },
        {
          "indexed": true,
          "internalType": "address",
          "name": "sender",
          "type": "address"
        }
      ],
      "name": "RoleRevoked",
      "type": "event"
    },
    {
      "anonymous": false,
      "inputs": [
        {
          "indexed": true,
          "internalType": "address",
          "name": "sponsorAddress",
          "type": "address"
        },
        {
          "indexed": true,
          "internalType": "uint256",
          "name": "sponsorAmount",
          "type": "uint256"
        },
        {
          "indexed": true,
          "internalType": "uint256",
          "name": "poolTotal",
          "type": "uint256"
        }
      ],
      "name": "Sponsor",
      "type": "event"
    },
    {
      "anonymous": false,
      "inputs": [
        {
          "indexed": true,
          "internalType": "address",
          "name": "sender",
          "type": "address"
        },
        {
          "indexed": true,
          "internalType": "uint256",
          "name": "amount",
          "type": "uint256"
        }
      ],
      "name": "StakeDecreased",
      "type": "event"
    },
    {
      "anonymous": false,
      "inputs": [
        {
          "indexed": true,
          "internalType": "address",
          "name": "sender",
          "type": "address"
        },
        {
          "indexed": true,
          "internalType": "uint256",
          "name": "amount",
          "type": "uint256"
        }
      ],
      "name": "StakeIncreased",
      "type": "event"
    },
    {
      "anonymous": false,
      "inputs": [
        {
          "indexed": true,
          "internalType": "uint256",
          "name": "newStakeThreshold",
          "type": "uint256"
        }
      ],
      "name": "StakeThresholdUpdated",
      "type": "event"
    },
    {
      "anonymous": false,
      "inputs": [
        {
          "indexed": true,
          "internalType": "uint32",
          "name": "challengeNumber",
          "type": "uint32"
        }
      ],
      "name": "SubmissionClosed",
      "type": "event"
    },
    {
      "anonymous": false,
      "inputs": [
        {
          "indexed": true,
          "internalType": "uint32",
          "name": "challengeNumber",
          "type": "uint32"
        },
        {
          "indexed": true,
          "internalType": "address",
          "name": "participantAddress",
          "type": "address"
        },
        {
          "indexed": true,
          "internalType": "bytes32",
          "name": "newSubmissionHash",
          "type": "bytes32"
        }
      ],
      "name": "SubmissionUpdated",
      "type": "event"
    },
    {
      "anonymous": false,
      "inputs": [
        {
          "indexed": false,
          "internalType": "uint32",
          "name": "challengeNumber",
          "type": "uint32"
        },
        {
          "indexed": true,
          "internalType": "uint256",
          "name": "totalStakingAmount",
          "type": "uint256"
        },
        {
          "indexed": true,
          "internalType": "uint256",
          "name": "totalChallengeAmount",
          "type": "uint256"
        },
        {
          "indexed": true,
          "internalType": "uint256",
          "name": "totalTournamentAmount",
          "type": "uint256"
        }
      ],
      "name": "TotalRewardsPaid",
      "type": "event"
    },
    {
      "anonymous": false,
      "inputs": [
        {
          "indexed": true,
          "internalType": "uint256",
          "name": "newPercentage",
          "type": "uint256"
        }
      ],
      "name": "TournamentRewardsPercentageInWeiUpdated",
      "type": "event"
    },
    {
      "inputs": [],
      "name": "DEFAULT_ADMIN_ROLE",
      "outputs": [
        {
          "internalType": "bytes32",
          "name": "",
          "type": "bytes32"
        }
      ],
      "stateMutability": "view",
      "type": "function"
    },
    {
      "inputs": [],
      "name": "RCI_CHILD_ADMIN",
      "outputs": [
        {
          "internalType": "bytes32",
          "name": "",
          "type": "bytes32"
        }
      ],
      "stateMutability": "view",
      "type": "function"
    },
    {
      "inputs": [],
      "name": "RCI_MAIN_ADMIN",
      "outputs": [
        {
          "internalType": "bytes32",
          "name": "",
          "type": "bytes32"
        }
      ],
      "stateMutability": "view",
      "type": "function"
    },
    {
      "inputs": [
        {
          "internalType": "uint8",
          "name": "phase",
          "type": "uint8"
        }
      ],
      "name": "advanceToPhase",
      "outputs": [
        {
          "internalType": "bool",
          "name": "success",
          "type": "bool"
        }
      ],
      "stateMutability": "nonpayable",
      "type": "function"
    },
    {
      "inputs": [],
      "name": "closeSubmission",
      "outputs": [
        {
          "internalType": "bool",
          "name": "success",
          "type": "bool"
        }
      ],
      "stateMutability": "nonpayable",
      "type": "function"
    },
    {
      "inputs": [
        {
          "internalType": "address",
          "name": "staker",
          "type": "address"
        },
        {
          "internalType": "uint256",
          "name": "amountToken",
          "type": "uint256"
        }
      ],
      "name": "decreaseStake",
      "outputs": [
        {
          "internalType": "bool",
          "name": "success",
          "type": "bool"
        }
      ],
      "stateMutability": "nonpayable",
      "type": "function"
    },
    {
      "inputs": [
        {
          "internalType": "uint32",
          "name": "challengeNumber",
          "type": "uint32"
        },
        {
          "internalType": "address",
          "name": "participant",
          "type": "address"
        }
      ],
      "name": "getChallengeRewards",
      "outputs": [
        {
          "internalType": "uint256",
          "name": "challengeRewards",
          "type": "uint256"
        }
      ],
      "stateMutability": "view",
      "type": "function"
    },
    {
      "inputs": [],
      "name": "getChallengeRewardsPercentageInWei",
      "outputs": [
        {
          "internalType": "uint256",
          "name": "challengeRewardsPercentageInWei",
          "type": "uint256"
        }
      ],
      "stateMutability": "view",
      "type": "function"
    },
    {
      "inputs": [
        {
          "internalType": "uint32",
          "name": "challengeNumber",
          "type": "uint32"
        },
        {
          "internalType": "address",
          "name": "participant",
          "type": "address"
        }
      ],
      "name": "getChallengeScores",
      "outputs": [
        {
          "internalType": "uint256",
          "name": "challengeScores",
          "type": "uint256"
        }
      ],
      "stateMutability": "view",
      "type": "function"
    },
    {
      "inputs": [],
      "name": "getCompetitionPool",
      "outputs": [
        {
          "internalType": "uint256",
          "name": "competitionPool",
          "type": "uint256"
        }
      ],
      "stateMutability": "view",
      "type": "function"
    },
    {
      "inputs": [],
      "name": "getCurrentChallengeRewardsBudget",
      "outputs": [
        {
          "internalType": "uint256",
          "name": "currentChallengeRewardsBudget",
          "type": "uint256"
        }
      ],
      "stateMutability": "view",
      "type": "function"
    },
    {
      "inputs": [],
      "name": "getCurrentStakingRewardsBudget",
      "outputs": [
        {
          "internalType": "uint256",
          "name": "currentStakingRewardsBudget",
          "type": "uint256"
        }
      ],
      "stateMutability": "view",
      "type": "function"
    },
    {
      "inputs": [],
      "name": "getCurrentTotalStaked",
      "outputs": [
        {
          "internalType": "uint256",
          "name": "currentTotalStaked",
          "type": "uint256"
        }
      ],
      "stateMutability": "view",
      "type": "function"
    },
    {
      "inputs": [],
      "name": "getCurrentTournamentRewardsBudget",
      "outputs": [
        {
          "internalType": "uint256",
          "name": "currentTournamentRewardsBudget",
          "type": "uint256"
        }
      ],
      "stateMutability": "view",
      "type": "function"
    },
    {
      "inputs": [
        {
          "internalType": "uint32",
          "name": "challengeNumber",
          "type": "uint32"
        }
      ],
      "name": "getDatasetHash",
      "outputs": [
        {
          "internalType": "bytes32",
          "name": "dataset",
          "type": "bytes32"
        }
      ],
      "stateMutability": "view",
      "type": "function"
    },
    {
      "inputs": [
        {
          "internalType": "uint32",
          "name": "challengeNumber",
          "type": "uint32"
        },
        {
          "internalType": "uint256",
          "name": "index",
          "type": "uint256"
        }
      ],
      "name": "getDeadlines",
      "outputs": [
        {
          "internalType": "uint256",
          "name": "deadline",
          "type": "uint256"
        }
      ],
      "stateMutability": "view",
      "type": "function"
    },
    {
      "inputs": [
        {
          "internalType": "uint32",
          "name": "challengeNumber",
          "type": "uint32"
        },
        {
          "internalType": "address",
          "name": "participant",
          "type": "address"
        },
        {
          "internalType": "uint256",
          "name": "itemNumber",
          "type": "uint256"
        }
      ],
      "name": "getInformation",
      "outputs": [
        {
          "internalType": "uint256",
          "name": "value",
          "type": "uint256"
        }
      ],
      "stateMutability": "view",
      "type": "function"
    },
    {
      "inputs": [
        {
          "internalType": "uint32",
          "name": "challengeNumber",
          "type": "uint32"
        }
      ],
      "name": "getKeyHash",
      "outputs": [
        {
          "internalType": "bytes32",
          "name": "key",
          "type": "bytes32"
        }
      ],
      "stateMutability": "view",
      "type": "function"
    },
    {
      "inputs": [],
      "name": "getLatestChallengeNumber",
      "outputs": [
        {
          "internalType": "uint32",
          "name": "latestChallengeNumber",
          "type": "uint32"
        }
      ],
      "stateMutability": "view",
      "type": "function"
    },
    {
      "inputs": [],
      "name": "getMessage",
      "outputs": [
        {
          "internalType": "string",
          "name": "message",
          "type": "string"
        }
      ],
      "stateMutability": "view",
      "type": "function"
    },
    {
      "inputs": [
        {
          "internalType": "uint32",
          "name": "challengeNumber",
          "type": "uint32"
        },
        {
          "internalType": "address",
          "name": "participant",
          "type": "address"
        }
      ],
      "name": "getOverallRewards",
      "outputs": [
        {
          "internalType": "uint256",
          "name": "overallRewards",
          "type": "uint256"
        }
      ],
      "stateMutability": "view",
      "type": "function"
    },
    {
      "inputs": [
        {
          "internalType": "uint32",
          "name": "challengeNumber",
          "type": "uint32"
        }
      ],
      "name": "getPhase",
      "outputs": [
        {
          "internalType": "uint8",
          "name": "phase",
          "type": "uint8"
        }
      ],
      "stateMutability": "view",
      "type": "function"
    },
    {
      "inputs": [
        {
          "internalType": "uint32",
          "name": "challengeNumber",
          "type": "uint32"
        }
      ],
      "name": "getPrivateKeyHash",
      "outputs": [
        {
          "internalType": "bytes32",
          "name": "privateKey",
          "type": "bytes32"
        }
      ],
      "stateMutability": "view",
      "type": "function"
    },
    {
      "inputs": [],
      "name": "getRemainder",
      "outputs": [
        {
          "internalType": "uint256",
          "name": "remainder",
          "type": "uint256"
        }
      ],
      "stateMutability": "view",
      "type": "function"
    },
    {
      "inputs": [
        {
          "internalType": "uint32",
          "name": "challengeNumber",
          "type": "uint32"
        }
      ],
      "name": "getResultsHash",
      "outputs": [
        {
          "internalType": "bytes32",
          "name": "results",
          "type": "bytes32"
        }
      ],
      "stateMutability": "view",
      "type": "function"
    },
    {
      "inputs": [],
      "name": "getRewardsThreshold",
      "outputs": [
        {
          "internalType": "uint256",
          "name": "rewardsThreshold",
          "type": "uint256"
        }
      ],
      "stateMutability": "view",
      "type": "function"
    },
    {
      "inputs": [
        {
          "internalType": "bytes32",
          "name": "role",
          "type": "bytes32"
        }
      ],
      "name": "getRoleAdmin",
      "outputs": [
        {
          "internalType": "bytes32",
          "name": "",
          "type": "bytes32"
        }
      ],
      "stateMutability": "view",
      "type": "function"
    },
    {
      "inputs": [
        {
          "internalType": "address",
          "name": "participant",
          "type": "address"
        }
      ],
      "name": "getStake",
      "outputs": [
        {
          "internalType": "uint256",
          "name": "stake",
          "type": "uint256"
        }
      ],
      "stateMutability": "view",
      "type": "function"
    },
    {
      "inputs": [],
      "name": "getStakeThreshold",
      "outputs": [
        {
          "internalType": "uint256",
          "name": "stakeThreshold",
          "type": "uint256"
        }
      ],
      "stateMutability": "view",
      "type": "function"
    },
    {
      "inputs": [
        {
          "internalType": "uint32",
          "name": "challengeNumber",
          "type": "uint32"
        },
        {
          "internalType": "address",
          "name": "participant",
          "type": "address"
        }
      ],
      "name": "getStakedAmountForChallenge",
      "outputs": [
        {
          "internalType": "uint256",
          "name": "staked",
          "type": "uint256"
        }
      ],
      "stateMutability": "view",
      "type": "function"
    },
    {
      "inputs": [
        {
          "internalType": "uint32",
          "name": "challengeNumber",
          "type": "uint32"
        },
        {
          "internalType": "address",
          "name": "participant",
          "type": "address"
        }
      ],
      "name": "getStakingRewards",
      "outputs": [
        {
          "internalType": "uint256",
          "name": "stakingRewards",
          "type": "uint256"
        }
      ],
      "stateMutability": "view",
      "type": "function"
    },
    {
      "inputs": [
        {
          "internalType": "uint32",
          "name": "challengeNumber",
          "type": "uint32"
        },
        {
          "internalType": "address",
          "name": "participant",
          "type": "address"
        }
      ],
      "name": "getSubmission",
      "outputs": [
        {
          "internalType": "bytes32",
          "name": "submissionHash",
          "type": "bytes32"
        }
      ],
      "stateMutability": "view",
      "type": "function"
    },
    {
      "inputs": [
        {
          "internalType": "uint32",
          "name": "challengeNumber",
          "type": "uint32"
        }
      ],
      "name": "getSubmissionCounter",
      "outputs": [
        {
          "internalType": "uint256",
          "name": "submissionCounter",
          "type": "uint256"
        }
      ],
      "stateMutability": "view",
      "type": "function"
    },
    {
      "inputs": [
        {
          "internalType": "uint32",
          "name": "challengeNumber",
          "type": "uint32"
        },
        {
          "internalType": "uint256",
          "name": "startIndex",
          "type": "uint256"
        },
        {
          "internalType": "uint256",
          "name": "endIndex",
          "type": "uint256"
        }
      ],
      "name": "getSubmitters",
      "outputs": [
        {
          "internalType": "address[]",
          "name": "",
          "type": "address[]"
        }
      ],
      "stateMutability": "view",
      "type": "function"
    },
    {
      "inputs": [],
      "name": "getTokenAddress",
      "outputs": [
        {
          "internalType": "address",
          "name": "tokenAddress",
          "type": "address"
        }
      ],
      "stateMutability": "view",
      "type": "function"
    },
    {
      "inputs": [
        {
          "internalType": "uint32",
          "name": "challengeNumber",
          "type": "uint32"
        },
        {
          "internalType": "address",
          "name": "participant",
          "type": "address"
        }
      ],
      "name": "getTournamentRewards",
      "outputs": [
        {
          "internalType": "uint256",
          "name": "tournamentRewards",
          "type": "uint256"
        }
      ],
      "stateMutability": "view",
      "type": "function"
    },
    {
      "inputs": [],
      "name": "getTournamentRewardsPercentageInWei",
      "outputs": [
        {
          "internalType": "uint256",
          "name": "tournamentRewardsPercentageInWei",
          "type": "uint256"
        }
      ],
      "stateMutability": "view",
      "type": "function"
    },
    {
      "inputs": [
        {
          "internalType": "uint32",
          "name": "challengeNumber",
          "type": "uint32"
        },
        {
          "internalType": "address",
          "name": "participant",
          "type": "address"
        }
      ],
      "name": "getTournamentScores",
      "outputs": [
        {
          "internalType": "uint256",
          "name": "tournamentScores",
          "type": "uint256"
        }
      ],
      "stateMutability": "view",
      "type": "function"
    },
    {
      "inputs": [
        {
          "internalType": "bytes32",
          "name": "role",
          "type": "bytes32"
        },
        {
          "internalType": "address",
          "name": "account",
          "type": "address"
        }
      ],
      "name": "grantRole",
      "outputs": [],
      "stateMutability": "nonpayable",
      "type": "function"
    },
    {
      "inputs": [
        {
          "internalType": "bytes32",
          "name": "role",
          "type": "bytes32"
        },
        {
          "internalType": "address",
          "name": "account",
          "type": "address"
        }
      ],
      "name": "hasRole",
      "outputs": [
        {
          "internalType": "bool",
          "name": "",
          "type": "bool"
        }
      ],
      "stateMutability": "view",
      "type": "function"
    },
    {
      "inputs": [
        {
          "internalType": "address",
          "name": "staker",
          "type": "address"
        },
        {
          "internalType": "uint256",
          "name": "amountToken",
          "type": "uint256"
        }
      ],
      "name": "increaseStake",
      "outputs": [
        {
          "internalType": "bool",
          "name": "success",
          "type": "bool"
        }
      ],
      "stateMutability": "nonpayable",
      "type": "function"
    },
    {
      "inputs": [
        {
          "internalType": "uint256",
          "name": "stakeThreshold_",
          "type": "uint256"
        },
        {
          "internalType": "uint256",
          "name": "rewardsThreshold_",
          "type": "uint256"
        },
        {
          "internalType": "address",
          "name": "tokenAddress_",
          "type": "address"
        }
      ],
      "name": "initialize",
      "outputs": [],
      "stateMutability": "nonpayable",
      "type": "function"
    },
    {
      "inputs": [],
      "name": "moveRemainderToPool",
      "outputs": [
        {
          "internalType": "bool",
          "name": "success",
          "type": "bool"
        }
      ],
      "stateMutability": "nonpayable",
      "type": "function"
    },
    {
      "inputs": [
        {
          "internalType": "bytes32",
          "name": "datasetHash",
          "type": "bytes32"
        },
        {
          "internalType": "bytes32",
          "name": "keyHash",
          "type": "bytes32"
        },
        {
          "internalType": "uint256",
          "name": "submissionCloseDeadline",
          "type": "uint256"
        },
        {
          "internalType": "uint256",
          "name": "nextChallengeDeadline",
          "type": "uint256"
        }
      ],
      "name": "openChallenge",
      "outputs": [
        {
          "internalType": "bool",
          "name": "success",
          "type": "bool"
        }
      ],
      "stateMutability": "nonpayable",
      "type": "function"
    },
    {
      "inputs": [
        {
          "internalType": "address[]",
          "name": "submitters",
          "type": "address[]"
        },
        {
          "internalType": "uint256[]",
          "name": "stakingRewards",
          "type": "uint256[]"
        },
        {
          "internalType": "uint256[]",
          "name": "challengeRewards",
          "type": "uint256[]"
        },
        {
          "internalType": "uint256[]",
          "name": "tournamentRewards",
          "type": "uint256[]"
        }
      ],
      "name": "payRewards",
      "outputs": [
        {
          "internalType": "bool",
          "name": "success",
          "type": "bool"
        }
      ],
      "stateMutability": "nonpayable",
      "type": "function"
    },
    {
      "inputs": [
        {
          "internalType": "bytes32",
          "name": "role",
          "type": "bytes32"
        },
        {
          "internalType": "address",
          "name": "account",
          "type": "address"
        }
      ],
      "name": "renounceRole",
      "outputs": [],
      "stateMutability": "nonpayable",
      "type": "function"
    },
    {
      "inputs": [
        {
          "internalType": "bytes32",
          "name": "role",
          "type": "bytes32"
        },
        {
          "internalType": "address",
          "name": "account",
          "type": "address"
        }
      ],
      "name": "revokeRole",
      "outputs": [],
      "stateMutability": "nonpayable",
      "type": "function"
    },
    {
      "inputs": [
        {
          "internalType": "uint256",
          "name": "amountToken",
          "type": "uint256"
        }
      ],
      "name": "sponsor",
      "outputs": [
        {
          "internalType": "bool",
          "name": "success",
          "type": "bool"
        }
      ],
      "stateMutability": "nonpayable",
      "type": "function"
    },
    {
      "inputs": [
        {
          "internalType": "bytes32",
          "name": "submissionHash",
          "type": "bytes32"
        }
      ],
      "name": "submitNewPredictions",
      "outputs": [
        {
          "internalType": "uint32",
          "name": "challengeNumber",
          "type": "uint32"
        }
      ],
      "stateMutability": "nonpayable",
      "type": "function"
    },
    {
      "inputs": [
        {
          "internalType": "bytes32",
          "name": "resultsHash",
          "type": "bytes32"
        }
      ],
      "name": "submitResults",
      "outputs": [
        {
          "internalType": "bool",
          "name": "success",
          "type": "bool"
        }
      ],
      "stateMutability": "nonpayable",
      "type": "function"
    },
    {
      "inputs": [
        {
          "internalType": "bytes4",
          "name": "interfaceId",
          "type": "bytes4"
        }
      ],
      "name": "supportsInterface",
      "outputs": [
        {
          "internalType": "bool",
          "name": "",
          "type": "bool"
        }
      ],
      "stateMutability": "view",
      "type": "function"
    },
    {
      "inputs": [
        {
          "internalType": "uint32",
          "name": "challengeNumber",
          "type": "uint32"
        },
        {
          "internalType": "address[]",
          "name": "participants",
          "type": "address[]"
        },
        {
          "internalType": "uint256[]",
          "name": "challengeScores",
          "type": "uint256[]"
        },
        {
          "internalType": "uint256[]",
          "name": "tournamentScores",
          "type": "uint256[]"
        }
      ],
      "name": "updateChallengeAndTournamentScores",
      "outputs": [
        {
          "internalType": "bool",
          "name": "success",
          "type": "bool"
        }
      ],
      "stateMutability": "nonpayable",
      "type": "function"
    },
    {
      "inputs": [
        {
          "internalType": "uint256",
          "name": "newPercentage",
          "type": "uint256"
        }
      ],
      "name": "updateChallengeRewardsPercentageInWei",
      "outputs": [
        {
          "internalType": "bool",
          "name": "success",
          "type": "bool"
        }
      ],
      "stateMutability": "nonpayable",
      "type": "function"
    },
    {
      "inputs": [
        {
          "internalType": "bytes32",
          "name": "oldDatasetHash",
          "type": "bytes32"
        },
        {
          "internalType": "bytes32",
          "name": "newDatasetHash",
          "type": "bytes32"
        }
      ],
      "name": "updateDataset",
      "outputs": [
        {
          "internalType": "bool",
          "name": "success",
          "type": "bool"
        }
      ],
      "stateMutability": "nonpayable",
      "type": "function"
    },
    {
      "inputs": [
        {
          "internalType": "uint32",
          "name": "challengeNumber",
          "type": "uint32"
        },
        {
          "internalType": "uint256",
          "name": "index",
          "type": "uint256"
        },
        {
          "internalType": "uint256",
          "name": "timestamp",
          "type": "uint256"
        }
      ],
      "name": "updateDeadlines",
      "outputs": [
        {
          "internalType": "bool",
          "name": "success",
          "type": "bool"
        }
      ],
      "stateMutability": "nonpayable",
      "type": "function"
    },
    {
      "inputs": [
        {
          "internalType": "uint32",
          "name": "challengeNumber",
          "type": "uint32"
        },
        {
          "internalType": "address[]",
          "name": "participants",
          "type": "address[]"
        },
        {
          "internalType": "uint256",
          "name": "itemNumber",
          "type": "uint256"
        },
        {
          "internalType": "uint256[]",
          "name": "values",
          "type": "uint256[]"
        }
      ],
      "name": "updateInformationBatch",
      "outputs": [
        {
          "internalType": "bool",
          "name": "success",
          "type": "bool"
        }
      ],
      "stateMutability": "nonpayable",
      "type": "function"
    },
    {
      "inputs": [
        {
          "internalType": "bytes32",
          "name": "oldKeyHash",
          "type": "bytes32"
        },
        {
          "internalType": "bytes32",
          "name": "newKeyHash",
          "type": "bytes32"
        }
      ],
      "name": "updateKey",
      "outputs": [
        {
          "internalType": "bool",
          "name": "success",
          "type": "bool"
        }
      ],
      "stateMutability": "nonpayable",
      "type": "function"
    },
    {
      "inputs": [
        {
          "internalType": "string",
          "name": "newMessage",
          "type": "string"
        }
      ],
      "name": "updateMessage",
      "outputs": [
        {
          "internalType": "bool",
          "name": "success",
          "type": "bool"
        }
      ],
      "stateMutability": "nonpayable",
      "type": "function"
    },
    {
      "inputs": [
        {
          "internalType": "uint32",
          "name": "challengeNumber",
          "type": "uint32"
        },
        {
          "internalType": "bytes32",
          "name": "newKeyHash",
          "type": "bytes32"
        }
      ],
      "name": "updatePrivateKey",
      "outputs": [
        {
          "internalType": "bool",
          "name": "success",
          "type": "bool"
        }
      ],
      "stateMutability": "nonpayable",
      "type": "function"
    },
    {
      "inputs": [
        {
          "internalType": "bytes32",
          "name": "oldResultsHash",
          "type": "bytes32"
        },
        {
          "internalType": "bytes32",
          "name": "newResultsHash",
          "type": "bytes32"
        }
      ],
      "name": "updateResults",
      "outputs": [
        {
          "internalType": "bool",
          "name": "success",
          "type": "bool"
        }
      ],
      "stateMutability": "nonpayable",
      "type": "function"
    },
    {
      "inputs": [
        {
          "internalType": "uint256",
          "name": "newThreshold",
          "type": "uint256"
        }
      ],
      "name": "updateRewardsThreshold",
      "outputs": [
        {
          "internalType": "bool",
          "name": "success",
          "type": "bool"
        }
      ],
      "stateMutability": "nonpayable",
      "type": "function"
    },
    {
      "inputs": [
        {
          "internalType": "uint256",
          "name": "newStakeThreshold",
          "type": "uint256"
        }
      ],
      "name": "updateStakeThreshold",
      "outputs": [
        {
          "internalType": "bool",
          "name": "success",
          "type": "bool"
        }
      ],
      "stateMutability": "nonpayable",
      "type": "function"
    },
    {
      "inputs": [
        {
          "internalType": "bytes32",
          "name": "oldSubmissionHash",
          "type": "bytes32"
        },
        {
          "internalType": "bytes32",
          "name": "newSubmissionHash",
          "type": "bytes32"
        }
      ],
      "name": "updateSubmission",
      "outputs": [
        {
          "internalType": "uint32",
          "name": "challengeNumber",
          "type": "uint32"
        }
      ],
      "stateMutability": "nonpayable",
      "type": "function"
    },
    {
      "inputs": [
        {
          "internalType": "uint256",
          "name": "newPercentage",
          "type": "uint256"
        }
      ],
      "name": "updateTournamentRewardsPercentageInWei",
      "outputs": [
        {
          "internalType": "bool",
          "name": "success",
          "type": "bool"
        }
      ],
      "stateMutability": "nonpayable",
      "type": "function"
    }
  ],
  "bytecode": "608060405234801561001057600080fd5b50614665806100206000396000f3fe608060405234801561001057600080fd5b50600436106103d05760003560e01c8063736d8c91116101ff578063c8f971df1161011a578063dc9f76eb116100ad578063eecfc33f1161007c578063eecfc33f14610a5f578063f109a62414610a88578063f7fb373d14610a90578063ffc6ff1e14610aa357600080fd5b8063dc9f76eb146109a7578063dec9bf2f146109ba578063e6184ab8146109cd578063e7d5c4ea14610a1057600080fd5b8063d547741f116100e9578063d547741f14610936578063d68a7c0014610949578063d885e39b14610951578063dc1e207c1461099457600080fd5b8063c8f971df146108f3578063ce6d41de14610906578063d09e2c211461091b578063d4f4b8061461092e57600080fd5b806397d9abb811610192578063aa658b6911610161578063aa658b691461084c578063af976fec1461088f578063b6cce5e2146108cd578063c55e86b1146108e057600080fd5b806397d9abb81461080b5780639f2492a21461081e578063a217fddf14610831578063a6ab36f21461083957600080fd5b80637bfc90b2116101ce5780637bfc90b2146107d557806391d14854146107e8578063920920ba146107fb57806393a9dac71461080357600080fd5b8063736d8c911461073057806373af6745146107565780637a378430146107695780637a766460146107ac57600080fd5b8063343cb6be116102ef5780634a31156f116102825780635e35d498116102515780635e35d498146106875780635ef533291461069a57806360cdb6cc146106ad5780636c981570146106ed57600080fd5b80634a31156f1461060b578063572c686a1461062b57806357d0cf581461063e5780635d7e94671461067457600080fd5b80633c35f180116102be5780633c35f180146105795780633cbcb53a1461058c5780633f230915146105cf5780634169293b146105e257600080fd5b8063343cb6be1461053057806336568abe1461053857806337d6b9971461054b57806339e287771461055357600080fd5b80631a73ba01116103675780632d071f1a116103365780632d071f1a146104ed5780632f2ff15d14610500578063315c455e146105155780633228cf721461052857600080fd5b80631a73ba01146104a75780631e2ff711146104ba578063248a9ca3146104c257806325b06746146104e557600080fd5b806315343c11116103a357806315343c111461044e57806318829fc31461047757806318b125d11461047f5780631923be241461049457600080fd5b806301ffc9a7146103d557806302881b52146103fd57806310fe9ae8146104105780631442b8681461042b575b600080fd5b6103e86103e33660046140dc565b610aab565b60405190151581526020015b60405180910390f35b6103e861040b366004614369565b610ae2565b6001546040516001600160a01b0390911681526020016103f4565b6104406000805160206145d083398151915281565b6040519081526020016103f4565b61044061045c3660046141bd565b63ffffffff166000908152600d602052604090206002015490565b600454610440565b6104406000805160206145f083398151915281565b6103e86104a2366004614104565b610b6e565b6103e86104b5366004613f3f565b610be4565b600654610440565b6104406104d0366004614047565b60009081526020819052604090206001015490565b600554610440565b6103e86104fb366004614384565b611020565b61051361050e36600461405f565b611087565b005b6103e8610523366004614047565b611116565b600854610440565b600254610440565b61051361054636600461405f565b611157565b6103e86111d1565b6104406105613660046141bd565b63ffffffff166000908152600d602052604090205490565b6103e86105873660046142e2565b611393565b61044061059a3660046141d7565b63ffffffff9091166000908152600d602090815260408083206001600160a01b03909416835260059093019052206003015490565b6103e86105dd36600461408a565b61160a565b6104406105f03660046141bd565b63ffffffff166000908152600d602052604090206003015490565b61061e610619366004614384565b61174f565b6040516103f491906143d7565b6103e8610639366004614047565b61183a565b61044061064c366004614369565b63ffffffff9091166000908152600d6020908152604080832093835260069093019052205490565b6103e8610682366004613f3f565b6118a9565b6103e8610695366004614047565b611b11565b6103e86106a8366004614047565b611b80565b6104406106bb3660046141d7565b63ffffffff9091166000908152600d602090815260408083206001600160a01b03909416835260059093019052205490565b6104406106fb3660046141d7565b63ffffffff9091166000908152600d602090815260408083206001600160a01b03909416835260059093019052206002015490565b600154600160a01b900463ffffffff165b60405163ffffffff90911681526020016103f4565b6103e861076436600461408a565b611bef565b6104406107773660046141d7565b63ffffffff9091166000908152600d602090815260408083206001600160a01b03909416835260059093019052206006015490565b6104406107ba366004613f25565b6001600160a01b03166000908152600c602052604090205490565b6103e86107e3366004614047565b611d27565b6103e86107f636600461405f565b611d96565b600a54610440565b600954610440565b6104406108193660046141d7565b611dbf565b61074161082c366004614047565b611e17565b610440600081565b610513610847366004614189565b611efc565b61044061085a3660046141d7565b63ffffffff9091166000908152600d602090815260408083206001600160a01b03909416835260059093019052206004015490565b6108bb61089d3660046141bd565b63ffffffff166000908152600d602052604090206004015460ff1690565b60405160ff90911681526020016103f4565b6103e86108db366004614047565b612077565b6103e86108ee36600461408a565b612206565b6104406109013660046141bd565b6122b9565b61090e6122da565b6040516103f49190614424565b6103e8610929366004613f68565b61236c565b600354610440565b61051361094436600461405f565b6123d0565b600754610440565b61044061095f3660046141d7565b63ffffffff9091166000908152600d602090815260408083206001600160a01b03909416835260059384019091529020015490565b6103e86109a23660046140ab565b612450565b6103e86109b53660046143b6565b6126c8565b6103e86109c836600461423b565b612897565b6104406109db3660046141d7565b63ffffffff9091166000908152600d602090815260408083206001600160a01b03909416835260059093019052206001015490565b610440610a1e366004614200565b63ffffffff9092166000908152600d602090815260408083206001600160a01b03909416835260059093018152828220938252600790930190925290205490565b610440610a6d3660046141bd565b63ffffffff166000908152600d602052604090206001015490565b610440612bc6565b610741610a9e36600461408a565b612c63565b6103e8612d32565b60006001600160e01b03198216637965db0b60e01b1480610adc57506301ffc9a760e01b6001600160e01b03198316145b92915050565b6000610afc6000805160206145d083398151915233611d96565b610b215760405162461bcd60e51b8152600401610b1890614477565b60405180910390fd5b5063ffffffff82166000908152600d60205260408082206003018390555160019183917f840bdca8f6c2cde252f010db5e96e3b79deb9d4cf7c64989f75ff7325b0d3c609190a292915050565b6000610b886000805160206145d083398151915233611d96565b610ba45760405162461bcd60e51b8152600401610b1890614477565b610bb0600b8484613e12565b50506040516001907f89dbe1e8a053a391becc713b9c088b57cf1855cf857803e49eaae2f8fbc3b1cd90600090a192915050565b600154600090600160a01b810463ffffffff16906001600160a01b03163314610c8c5760405162461bcd60e51b815260206004820152604e60248201527f436f6d7065746974696f6e202d2064656372656173655374616b653a20506c6560448201527f6173652063616c6c20746869732066756e6374696f6e2076696120746865207460648201526d37b5b2b71031b7b73a3930b1ba1760911b608482015260a401610b18565b600154600160a01b900463ffffffff166000908152600d602052604090206004015460ff1660021415610d5c5760405162461bcd60e51b815260206004820152606660248201527f436f6d7065746974696f6e202d2064656372656173655374616b653a20506c6560448201527f617365207761697420666f7220746865207374616b696e6720706572696f642060648201527f746f20756e6c6f636b206265666f7265206d6f64696679696e6720796f75722060848201526539ba30b5b29760d11b60a482015260c401610b18565b6001600160a01b0384166000908152600c602052604090205480841115610deb5760405162461bcd60e51b815260206004820152603f60248201527f436f6d7065746974696f6e202d2064656372656173655374616b653a20496e7360448201527f756666696369656e742066756e647320666f72207769746864726177616c2e006064820152608401610b18565b63ffffffff82166000908152600d602090815260408083206001600160a01b038916845260050190915290205415610f1c57600254610e2a8583614505565b1015610ee15760405162461bcd60e51b815260206004820152607460248201527f436f6d7065746974696f6e202d2064656372656173655374616b653a20596f7560448201527f206d6179206e6f74206c6f77657220796f7572207374616b652062656c6f772060648201527f746865207468726573686f6c64207768696c6520796f75206861766520616e2060848201527332bc34b9ba34b7339039bab136b4b9b9b4b7b71760611b60a482015260c401610b18565b610eeb8482614505565b63ffffffff83166000908152600d602090815260408083206001600160a01b038a1684526005019091529020600101555b610f268482614505565b6001600160a01b0386166000908152600c602052604081209190915560058054869290610f54908490614505565b909155505060015460405163a9059cbb60e01b81526001600160a01b038781166004830152602482018790529091169063a9059cbb90604401602060405180830381600087803b158015610fa757600080fd5b505af1158015610fbb573d6000803e3d6000fd5b505050506040513d601f19601f82011682018060405250810190610fdf9190614027565b925083856001600160a01b03167f700865370ffb2a65a2b0242e6a64b21ac907ed5ecd46c9cffc729c177b2b1c6960405160405180910390a3505092915050565b600061103a6000805160206145d083398151915233611d96565b6110565760405162461bcd60e51b8152600401610b1890614477565b63ffffffff84166000908152600d60209081526040808320868452600601909152902082905560015b949350505050565b6000828152602081905260409020600101546110a4905b33611d96565b6111085760405162461bcd60e51b815260206004820152602f60248201527f416363657373436f6e74726f6c3a2073656e646572206d75737420626520616e60448201526e0818591b5a5b881d1bc819dc985b9d608a1b6064820152608401610b18565b6111128282612e56565b5050565b60006111306000805160206145d083398151915233611d96565b61114c5760405162461bcd60e51b8152600401610b1890614477565b610adc600083612eda565b6001600160a01b03811633146111c75760405162461bcd60e51b815260206004820152602f60248201527f416363657373436f6e74726f6c3a2063616e206f6e6c792072656e6f756e636560448201526e103937b632b9903337b91039b2b63360891b6064820152608401610b18565b61111282826130e1565b60006111eb6000805160206145d083398151915233611d96565b6112075760405162461bcd60e51b8152600401610b1890614477565b600154600160a01b900463ffffffff166000908152600d6020526040902060049081015460ff16146112c75760405162461bcd60e51b815260206004820152605f60248201527f436f6d7065746974696f6e202d206d6f766552656d61696e646572546f506f6f60448201527f6c3a20504c65617365207761697420666f7220746865206368616c6c656e676560648201527f20746f20636f6d706c657465206265666f72652073706f6e736f72696e672e00608482015260a401610b18565b60006112d1612bc6565b9050600081116113495760405162461bcd60e51b815260206004820152603860248201527f436f6d7065746974696f6e202d206d6f766552656d61696e646572546f506f6f60448201527f6c3a204e6f2072656d61696e64657220746f206d6f76652e00000000000000006064820152608401610b18565b806003600082825461135b91906144ae565b90915550506040516001925081907fda446d0471a795498335ed4bc219b34921a12ccb87136a9aa03964adc83eadf390600090a25090565b60006113ad6000805160206145d083398151915233611d96565b6113c95760405162461bcd60e51b8152600401610b1890614477565b63ffffffff87166000908152600d6020526040902060040154600360ff909116101561146d5760405162461bcd60e51b815260206004820152604760248201527f436f6d7065746974696f6e202d20757064617465496e666f726d6174696f6e4260448201527f617463683a204368616c6c656e676520697320696e20756e65787065637465646064820152661039ba30ba329760c91b608482015260a401610b18565b8482146115015760405162461bcd60e51b815260206004820152605660248201527f436f6d7065746974696f6e202d20757064617465496e666f726d6174696f6e4260448201527f617463683a204e756d626572206f66207061727469636970616e747320616e64606482015275103b30b63ab2b99030b932903234b33332b932b73a1760511b608482015260a401610b18565b60005b858110156115c85783838281811061152c57634e487b7160e01b600052603260045260246000fd5b90506020020135600d60008a63ffffffff1663ffffffff168152602001908152602001600020600501600089898581811061157757634e487b7160e01b600052603260045260246000fd5b905060200201602081019061158c9190613f25565b6001600160a01b0316815260208082019290925260409081016000908120898252600701909252902055806115c08161457a565b915050611504565b5050604051600190849063ffffffff8916907fdfc0e8d429222115bcdeae8834d5fbcecc360f743768fc2a9693a30a379999e990600090a39695505050505050565b60006116246000805160206145d083398151915233611d96565b6116405760405162461bcd60e51b8152600401610b1890614477565b60018054600160a01b900463ffffffff166000818152600d6020526040902060040154909160ff909116146116d15760405162461bcd60e51b815260206004820152603160248201527f436f6d7065746974696f6e202d20757064617465446174617365743a20436861604482015270363632b733b29034b99031b637b9b2b21760791b6064820152608401610b18565b836117445760405162461bcd60e51b815260206004820152603c60248201527f436f6d7065746974696f6e202d20757064617465446174617365743a204d757360448201527f742068617665207072652d6578697374696e6720646174617365742e000000006064820152608401610b18565b61107f818585613146565b6060600061175d8484614505565b67ffffffffffffffff81111561178357634e487b7160e01b600052604160045260246000fd5b6040519080825280602002602001820160405280156117ac578160200160208202803683370190505b5063ffffffff86166000908152600d60205260409020909150600701845b8481101561182f576117dc82826132a6565b836117e78884614505565b8151811061180557634e487b7160e01b600052603260045260246000fd5b6001600160a01b0390921660209283029190910190910152806118278161457a565b9150506117ca565b509095945050505050565b60006118546000805160206145d083398151915233611d96565b6118705760405162461bcd60e51b8152600401610b1890614477565b50600481905560405160019082907f73e002420a7defb91818836f9aaa83222b749a40c213c7c0fbccaacdd259e05290600090a2919050565b600154600090600160a01b810463ffffffff16906001600160a01b031633146119515760405162461bcd60e51b815260206004820152604e60248201527f436f6d7065746974696f6e202d20696e6372656173655374616b653a20506c6560448201527f6173652063616c6c20746869732066756e6374696f6e2076696120746865207460648201526d37b5b2b71031b7b73a3930b1ba1760911b608482015260a401610b18565b63ffffffff81166000908152600d602052604090206004015460ff1660021415611a185760405162461bcd60e51b815260206004820152606660248201527f436f6d7065746974696f6e202d20696e6372656173655374616b653a20506c6560448201527f617365207761697420666f7220746865207374616b696e6720706572696f642060648201527f746f20756e6c6f636b206265666f7265206d6f64696679696e6720796f75722060848201526539ba30b5b29760d11b60a482015260c401610b18565b6001600160a01b0384166000818152600c602090815260408083205463ffffffff86168452600d8352818420948452600590940190915290205415611a9257611a6184826144ae565b63ffffffff83166000908152600d602090815260408083206001600160a01b038a1684526005019091529020600101555b611a9c84826144ae565b6001600160a01b0386166000908152600c602052604081209190915560058054869290611aca9084906144ae565b90915550506040516001935084906001600160a01b038716907f8b0ed825817a2e696c9a931715af4609fc60e1701f09c89ee7645130e937eb2d90600090a3505092915050565b6000611b2b6000805160206145d083398151915233611d96565b611b475760405162461bcd60e51b8152600401610b1890614477565b50600a81905560405160019082907f211318e1b6942c96eaad65d5f6c4c520722236466093427de4dacb729bd36dfb90600090a2919050565b6000611b9a6000805160206145d083398151915233611d96565b611bb65760405162461bcd60e51b8152600401610b1890614477565b50600281905560405160019082907f99c5af1f811b150d39d592621f8f23f4df7e5664642f227684973847eb2888be90600090a2919050565b6000611c096000805160206145d083398151915233611d96565b611c255760405162461bcd60e51b8152600401610b1890614477565b60018054600160a01b900463ffffffff166000818152600d6020526040902060040154909160ff90911614611cb25760405162461bcd60e51b815260206004820152602d60248201527f436f6d7065746974696f6e202d207570646174654b65793a204368616c6c656e60448201526c33b29034b99031b637b9b2b21760991b6064820152608401610b18565b83611d1c5760405162461bcd60e51b815260206004820152603460248201527f436f6d7065746974696f6e202d207570646174654b65793a204d7573742068616044820152733b329038393296b2bc34b9ba34b7339035b2bc9760611b6064820152608401610b18565b61107f8185856132b2565b6000611d416000805160206145d083398151915233611d96565b611d5d5760405162461bcd60e51b8152600401610b1890614477565b50600981905560405160019082907f94327140b3bb3bb989865fef53b345cd1ddd7991b30e3233137ab646448fbeb590600090a2919050565b6000918252602082815260408084206001600160a01b0393909316845291905290205460ff1690565b63ffffffff82166000908152600d602090815260408083206001600160a01b03851684526005019091528120600481015460038201546002909201549091611e06916144ae565b611e1091906144ae565b9392505050565b336000908152600c6020526040812054600254811015611e9f5760405162461bcd60e51b815260206004820152603d60248201527f436f6d7065746974696f6e202d207375626d69744e657750726564696374696f60448201527f6e733a205374616b652069732062656c6f77207468726573686f6c642e0000006064820152608401610b18565b611eaa60008461340e565b63ffffffff81166000908152600d60205260409020909250611ecf90600701336135fa565b5063ffffffff82166000908152600d60209081526040808320338452600501909152902060010155919050565b600e54610100900460ff1680611f155750600e5460ff16155b611f785760405162461bcd60e51b815260206004820152602e60248201527f496e697469616c697a61626c653a20636f6e747261637420697320616c72656160448201526d191e481a5b9a5d1a585b1a5e995960921b6064820152608401610b18565b600e54610100900460ff16158015611f9a57600e805461ffff19166101011790555b6001600160a01b038216611ff05760405162461bcd60e51b815260206004820152601760248201527f4e6f20746f6b656e206164647265737320666f756e642e0000000000000000006044820152606401610b18565b611ff861360f565b60028490556004838155600180546001600160c01b0319166001600160a01b0385161790819055600160a01b900463ffffffff166000908152600d602052604090208101805460ff191690911790556702c68af0bb140000600955670853a0d2313c0000600a55801561207157600e805461ff00191690555b50505050565b600154600160a01b900463ffffffff166000908152600d6020526040812060049081015460ff161461212d5760405162461bcd60e51b815260206004820152605360248201527f436f6d7065746974696f6e202d2073706f6e736f723a20504c6561736520776160448201527f697420666f7220746865206368616c6c656e676520746f20636f6d706c657465606482015272103132b337b9329039b837b739b7b934b7339760691b608482015260a401610b18565b60035461213a83826144ae565b6003556001546040516323b872dd60e01b8152336004820152306024820152604481018590526001600160a01b03909116906323b872dd90606401602060405180830381600087803b15801561218f57600080fd5b505af11580156121a3573d6000803e3d6000fd5b505050506040513d601f19601f820116820180604052508101906121c79190614027565b91506121d383826144ae565b604051849033907f64939930c3fd0a1fe9e7fb9810272db7730a0f02b900972787bcb79fb6fd3d2d90600090a450919050565b60006122206000805160206145d083398151915233611d96565b61223c5760405162461bcd60e51b8152600401610b1890614477565b826122af5760405162461bcd60e51b815260206004820152603c60248201527f436f6d7065746974696f6e202d20757064617465526573756c74733a204d757360448201527f742068617665207072652d6578697374696e6720726573756c74732e000000006064820152608401610b18565b611e108383612eda565b63ffffffff81166000908152600d60205260408120610adc9060070161367f565b6060600b80546122e99061453f565b80601f01602080910402602001604051908101604052809291908181526020018280546123159061453f565b80156123625780601f1061233757610100808354040283529160200191612362565b820191906000526020600020905b81548152906001019060200180831161234557829003601f168201915b5050505050905090565b60006123866000805160206145d083398151915233611d96565b6123a25760405162461bcd60e51b8152600401610b1890614477565b6001546123c390600160a01b900463ffffffff168a8a8a8a8a8a8a8a613689565b9998505050505050505050565b6000828152602081905260409020600101546123eb9061109e565b6111c75760405162461bcd60e51b815260206004820152603060248201527f416363657373436f6e74726f6c3a2073656e646572206d75737420626520616e60448201526f2061646d696e20746f207265766f6b6560801b6064820152608401610b18565b600061246a6000805160206145d083398151915233611d96565b6124865760405162461bcd60e51b8152600401610b1890614477565b600154600160a01b900463ffffffff166000818152600d6020526040902060049081015460ff16146125205760405162461bcd60e51b815260206004820152603a60248201527f436f6d7065746974696f6e202d206f70656e4368616c6c656e67653a2050726560448201527f76696f757320706861736520697320696e636f6d706c6574652e0000000000006064820152608401610b18565b600454600354101561258c5760405162461bcd60e51b815260206004820152602f60248201527f436f6d70657469746f6e202d206f70656e4368616c6c656e67653a204e6f742060448201526e32b737bab3b4103932bbb0b932399760891b6064820152608401610b18565b8061259681614595565b63ffffffff81166000818152600d602052604081206004018054600160ff199091168117909155805463ffffffff60a01b1916600160a01b909302929092179091559092506125e89150829088613146565b506125f5816000876132b2565b50670de0b6b3a764000060095460035461260f91906144e6565b61261991906144c6565b600755600a54600354670de0b6b3a764000091612635916144e6565b61263f91906144c6565b60088190556007546003546126549190614505565b61265e9190614505565b600690815563ffffffff82166000818152600d6020908152604080832083805290940190528281208790556001808252838220879055925192945090917f9da6f4cd0f617f153c3ebc9840a08792cff9f0fd8c796ce09c5d2006f42da6d99190a250949350505050565b60006126e26000805160206145d083398151915233611d96565b6126fe5760405162461bcd60e51b8152600401610b1890614477565b600154600160a01b900463ffffffff1660ff83166002108015612724575060058360ff16105b6127bc5760405162461bcd60e51b815260206004820152605a60248201527f436f6d7065746974696f6e202d20616476616e6365546f50686173653a20596f60448201527f75206d6179206f6e6c79207573652074686973206d6574686f6420666f72206160648201527f6476616e63696e6720746f207068617365732033206f7220342e000000000000608482015260a401610b18565b63ffffffff81166000908152600d602052604090206004015460ff166127e360018561451c565b60ff16146128675760405162461bcd60e51b815260206004820152604560248201527f436f6d7065746974696f6e202d20616476616e6365546f50686173653a20596f60448201527f75206d6179206f6e6c7920616476616e636520746f20746865206e65787420706064820152643430b9b29760d91b608482015260a401610b18565b63ffffffff166000908152600d60205260409020600401805460ff191660ff939093169290921790915550600190565b60006128b16000805160206145d083398151915233611d96565b6128cd5760405162461bcd60e51b8152600401610b1890614477565b63ffffffff88166000908152600d6020526040902060040154600360ff909116101561297d5760405162461bcd60e51b815260206004820152605360248201527f436f6d7065746974696f6e202d207570646174654368616c6c656e6765416e6460448201527f546f75726e616d656e7453636f7265733a204368616c6c656e6765206973206960648201527237103ab732bc3832b1ba32b21039ba30ba329760691b608482015260a401610b18565b858414801561298b57508582145b612a2e5760405162461bcd60e51b815260206004820152606260248201527f436f6d7065746974696f6e202d207570646174654368616c6c656e6765416e6460448201527f546f75726e616d656e7453636f7265733a204e756d626572206f66207061727460648201527f69636970616e747320616e642073636f7265732061726520646966666572656e6084820152613a1760f11b60a482015260c401610b18565b60005b86811015612b8557858582818110612a5957634e487b7160e01b600052603260045260246000fd5b90506020020135600d60008b63ffffffff1663ffffffff16815260200190815260200160002060050160008a8a85818110612aa457634e487b7160e01b600052603260045260246000fd5b9050602002016020810190612ab99190613f25565b6001600160a01b03168152602081019190915260400160002060050155838382818110612af657634e487b7160e01b600052603260045260246000fd5b90506020020135600d60008b63ffffffff1663ffffffff16815260200190815260200160002060050160008a8a85818110612b4157634e487b7160e01b600052603260045260246000fd5b9050602002016020810190612b569190613f25565b6001600160a01b0316815260208101919091526040016000206006015580612b7d8161457a565b915050612a31565b505060405160019063ffffffff8916907f6fa7224843e16ab8c76a13b984cfcf54de67707a118bf52ce93e0e5be358987190600090a2979650505050505050565b6003546005546001546040516370a0823160e01b815230600482015260009392916001600160a01b0316906370a082319060240160206040518083038186803b158015612c1257600080fd5b505afa158015612c26573d6000803e3d6000fd5b505050506040513d601f19601f82011682018060405250810190612c4a9190614171565b612c549190614505565b612c5e9190614505565b905090565b600082612cd15760405162461bcd60e51b8152602060048201526042602482015260008051602061461083398151915260448201527f4d7573742068617665207072652d6578697374696e67207375626d697373696f606482015261371760f11b608482015260a401610b18565b612cdb838361340e565b905081610adc5763ffffffff81166000908152600d60205260409020612d0490600701336139ec565b5063ffffffff81166000908152600d6020908152604080832033845260050190915281206001015592915050565b6000612d4c6000805160206145d083398151915233611d96565b612d685760405162461bcd60e51b8152600401610b1890614477565b60018054600160a01b900463ffffffff166000818152600d6020526040902060040154909160ff90911614612e055760405162461bcd60e51b815260206004820152603d60248201527f436f6d7065746974696f6e202d20636c6f73655375626d697373696f6e3a204360448201527f68616c6c656e676520696e20756e65787065637465642073746174652e0000006064820152608401610b18565b63ffffffff81166000818152600d6020526040808220600401805460ff1916600217905551600194507faa5ebdc7900b87a79257aabbab219af255ada0be7148632ce5afcd622df7a88b9190a25090565b612e608282611d96565b611112576000828152602081815260408083206001600160a01b03851684529091529020805460ff19166001179055612e963390565b6001600160a01b0316816001600160a01b0316837f2f8788117e7eff1d82e926ec794901d17c78024a50270940304540a733656f0d60405160405180910390a45050565b600081831415612f635760405162461bcd60e51b815260206004820152604860248201527f436f6d7065746974696f6e202d20757064617465526573756c74733a2043616e60448201527f6e6f74207570646174652077697468207468652073616d652068617368206173606482015267103132b337b9329760c11b608482015260a401610b18565b600154600160a01b900463ffffffff166000818152600d6020526040902060040154600360ff90911610156130005760405162461bcd60e51b815260206004820152603b60248201527f436f6d7065746974696f6e202d20757064617465526573756c74733a2043686160448201527f6c6c656e676520696e20756e65787065637465642073746174652e00000000006064820152608401610b18565b63ffffffff81166000908152600d6020526040902060010154841461308d5760405162461bcd60e51b815260206004820152603c60248201527f436f6d7065746974696f6e202d20757064617465526573756c74733a20436c6160448201527f736820696e206578697374696e6720726573756c747320686173682e000000006064820152608401610b18565b63ffffffff81166000818152600d6020526040808220600190810187905590519094508592879290917f0fb7d772905d44c5fdd59d4ab87c7f40281e09f93e2e189d03737c6d82b154ea9190a45092915050565b6130eb8282611d96565b15611112576000828152602081815260408083206001600160a01b0385168085529252808320805460ff1916905551339285917ff6391f5c32d9c69d2a47ea670b442974b53935d1edc7fd64eb21e047a839171b9190a45050565b6000818314156131cf5760405162461bcd60e51b815260206004820152604860248201527f436f6d7065746974696f6e202d20757064617465446174617365743a2043616e60448201527f6e6f74207570646174652077697468207468652073616d652068617368206173606482015267103132b337b9329760c11b608482015260a401610b18565b63ffffffff84166000908152600d602052604090205483146132595760405162461bcd60e51b815260206004820152603d60248201527f436f6d7065746974696f6e202d20757064617465446174617365743a20496e6360448201527f6f7272656374206f6c642064617461736574207265666572656e63652e0000006064820152608401610b18565b5063ffffffff83166000818152600d602052604080822084905551600192849286927f0b4ad7e2453c3c06a28c5cfe29a3067c6edde6eb03be4df2a461f9d806cb747e9190a49392505050565b6000611e108383613a01565b6000818314156133385760405162461bcd60e51b815260206004820152604560248201527f436f6d7065746974696f6e202d205f7570646174654b65793a2043616e6e6f7460448201527f207570646174652077697468207468652073616d6520686173682061732062656064820152643337b9329760d91b608482015260a401610b18565b63ffffffff84166000908152600d602052604090206002015483146133be5760405162461bcd60e51b815260206004820152603660248201527f436f6d7065746974696f6e202d205f7570646174654b65793a20496e636f727260448201527532b1ba1037b6321035b2bc903932b332b932b731b29760511b6064820152608401610b18565b5063ffffffff83166000818152600d602052604080822060020184905551600192849286927f7a2b6b0f48d13449d72d8fd2c1fae94cd13c970cc0dc738abd0bae8d50ce81c69190a49392505050565b60018054600160a01b900463ffffffff166000818152600d6020526040902060040154909160ff909116146134995760405162461bcd60e51b815260206004820152603e602482015260008051602061461083398151915260448201527f4e6f7420617661696c61626c6520666f72207375626d697373696f6e732e00006064820152608401610b18565b818314156135115760405162461bcd60e51b815260206004820152604b602482015260008051602061461083398151915260448201527f43616e6e6f74207570646174652077697468207468652073616d65206861736860648201526a1030b9903132b337b9329760a91b608482015260a401610b18565b63ffffffff81166000908152600d6020908152604080832033845260050190915290205483146135a25760405162461bcd60e51b8152602060048201526042602482015260008051602061461083398151915260448201527f436c61736820696e206578697374696e67207375626d697373696f6e20686173606482015261341760f11b608482015260a401610b18565b63ffffffff81166000818152600d6020908152604080832033808552600590910190925280832086905551859391927f953e3b79bb71898776bb2ef8bb919748c883b8b27c42e334de1ecdbf79d472bb91a492915050565b6000611e10836001600160a01b038416613a95565b6136276000805160206145f083398151915233611108565b61363f6000805160206145f083398151915280613ae4565b6136576000805160206145d083398151915233611108565b61367d6000805160206145d08339815191526000805160206145f0833981519152613ae4565b565b6000610adc825490565b63ffffffff89166000908152600d6020526040812060040154600360ff909116101561371d5760405162461bcd60e51b815260206004820152603b60248201527f436f6d7065746974696f6e202d20706179526577617264733a204368616c6c6560448201527f6e676520697320696e20756e65787065637465642073746174652e00000000006064820152608401610b18565b878614801561372b57508784145b801561373657508782145b6137ba5760405162461bcd60e51b815260206004820152604960248201527f436f6d7065746974696f6e202d20706179526577617264733a204e756d62657260448201527f206f66207375626d69747465727320616e64207265776172647320617265206460648201526834b33332b932b73a1760b91b608482015260a401610b18565b60008080805b8b811015613929578a8a828181106137e857634e487b7160e01b600052603260045260246000fd5b90506020020135846137fa91906144ae565b935088888281811061381c57634e487b7160e01b600052603260045260246000fd5b905060200201358361382e91906144ae565b925086868281811061385057634e487b7160e01b600052603260045260246000fd5b905060200201358261386291906144ae565b91506139178e8e8e8481811061388857634e487b7160e01b600052603260045260246000fd5b905060200201602081019061389d9190613f25565b8d8d858181106138bd57634e487b7160e01b600052603260045260246000fd5b905060200201358c8c868181106138e457634e487b7160e01b600052603260045260246000fd5b905060200201358b8b8781811061390b57634e487b7160e01b600052603260045260246000fd5b90506020020135613b38565b806139218161457a565b9150506137c0565b50826006600082825461393c9190614505565b9250508190555081600760008282546139559190614505565b92505081905550806008600082825461396e9190614505565b9091555081905061397f83856144ae565b61398991906144ae565b6003600082825461399a9190614505565b909155508190506139ab83856144ae565b6139b591906144ae565b600560008282546139c691906144ae565b90915550600194506139dc90508d848484613cb0565b5050509998505050505050505050565b6000611e10836001600160a01b038416613cf5565b81546000908210613a5f5760405162461bcd60e51b815260206004820152602260248201527f456e756d657261626c655365743a20696e646578206f7574206f6620626f756e604482015261647360f01b6064820152608401610b18565b826000018281548110613a8257634e487b7160e01b600052603260045260246000fd5b9060005260206000200154905092915050565b6000818152600183016020526040812054613adc57508154600181810184556000848152602080822090930184905584548482528286019093526040902091909155610adc565b506000610adc565b600082815260208190526040902060010154819060405184907fbd79b86ffe0ab8e8776151514217cd7cacd52c909f66475c3af44e129f0b00ff90600090a460009182526020829052604090912060010155565b80613b4383856144ae565b613b4d91906144ae565b6001600160a01b0385166000908152600c602052604081208054909190613b759084906144ae565b90915550508215613bc55763ffffffff85166000908152600d602090815260408083206001600160a01b038816845260050190915281206002018054859290613bbf9084906144ae565b90915550505b8115613c105763ffffffff85166000908152600d602090815260408083206001600160a01b038816845260050190915281206003018054849290613c0a9084906144ae565b90915550505b8015613c5b5763ffffffff85166000908152600d602090815260408083206001600160a01b038816845260050190915281206004018054839290613c559084906144ae565b90915550505b6040805163ffffffff8716815260208101859052829184916001600160a01b038816917f6bf9f9ab57efedd3554e5388390b4ec0cc61506e0dfc7ad37db38d940a23b743910160405180910390a45050505050565b60405163ffffffff851681528190839085907f8b77f1e219a52706fcf536bedec95f5df41e062d16118ae8f4bedffd30afc9399060200160405180910390a450505050565b60008181526001830160205260408120548015613e08576000613d19600183614505565b8554909150600090613d2d90600190614505565b90506000866000018281548110613d5457634e487b7160e01b600052603260045260246000fd5b9060005260206000200154905080876000018481548110613d8557634e487b7160e01b600052603260045260246000fd5b600091825260209091200155613d9c8360016144ae565b60008281526001890160205260409020558654879080613dcc57634e487b7160e01b600052603160045260246000fd5b60019003818190600052602060002001600090559055866001016000878152602001908152602001600020600090556001945050505050610adc565b6000915050610adc565b828054613e1e9061453f565b90600052602060002090601f016020900481019282613e405760008555613e86565b82601f10613e595782800160ff19823516178555613e86565b82800160010185558215613e86579182015b82811115613e86578235825591602001919060010190613e6b565b50613e92929150613e96565b5090565b5b80821115613e925760008155600101613e97565b80356001600160a01b0381168114613ec257600080fd5b919050565b60008083601f840112613ed8578182fd5b50813567ffffffffffffffff811115613eef578182fd5b6020830191508360208260051b8501011115613f0a57600080fd5b9250929050565b803563ffffffff81168114613ec257600080fd5b600060208284031215613f36578081fd5b611e1082613eab565b60008060408385031215613f51578081fd5b613f5a83613eab565b946020939093013593505050565b6000806000806000806000806080898b031215613f83578384fd5b883567ffffffffffffffff80821115613f9a578586fd5b613fa68c838d01613ec7565b909a50985060208b0135915080821115613fbe578586fd5b613fca8c838d01613ec7565b909850965060408b0135915080821115613fe2578586fd5b613fee8c838d01613ec7565b909650945060608b0135915080821115614006578384fd5b506140138b828c01613ec7565b999c989b5096995094979396929594505050565b600060208284031215614038578081fd5b81518015158114611e10578182fd5b600060208284031215614058578081fd5b5035919050565b60008060408385031215614071578182fd5b8235915061408160208401613eab565b90509250929050565b6000806040838503121561409c578182fd5b50508035926020909101359150565b600080600080608085870312156140c0578384fd5b5050823594602084013594506040840135936060013592509050565b6000602082840312156140ed578081fd5b81356001600160e01b031981168114611e10578182fd5b60008060208385031215614116578182fd5b823567ffffffffffffffff8082111561412d578384fd5b818501915085601f830112614140578384fd5b81358181111561414e578485fd5b86602082850101111561415f578485fd5b60209290920196919550909350505050565b600060208284031215614182578081fd5b5051919050565b60008060006060848603121561419d578283fd5b83359250602084013591506141b460408501613eab565b90509250925092565b6000602082840312156141ce578081fd5b611e1082613f11565b600080604083850312156141e9578182fd5b6141f283613f11565b915061408160208401613eab565b600080600060608486031215614214578081fd5b61421d84613f11565b925061422b60208501613eab565b9150604084013590509250925092565b60008060008060008060006080888a031215614255578081fd5b61425e88613f11565b9650602088013567ffffffffffffffff8082111561427a578283fd5b6142868b838c01613ec7565b909850965060408a013591508082111561429e578283fd5b6142aa8b838c01613ec7565b909650945060608a01359150808211156142c2578283fd5b506142cf8a828b01613ec7565b989b979a50959850939692959293505050565b600080600080600080608087890312156142fa578384fd5b61430387613f11565b9550602087013567ffffffffffffffff8082111561431f578586fd5b61432b8a838b01613ec7565b909750955060408901359450606089013591508082111561434a578384fd5b5061435789828a01613ec7565b979a9699509497509295939492505050565b6000806040838503121561437b578182fd5b613f5a83613f11565b600080600060608486031215614398578081fd5b6143a184613f11565b95602085013595506040909401359392505050565b6000602082840312156143c7578081fd5b813560ff81168114611e10578182fd5b6020808252825182820181905260009190848201906040850190845b818110156144185783516001600160a01b0316835292840192918401916001016143f3565b50909695505050505050565b6000602080835283518082850152825b8181101561445057858101830151858201604001528201614434565b818111156144615783604083870101525b50601f01601f1916929092016040019392505050565b60208082526017908201527f43616c6c657220697320756e617574686f72697a65642e000000000000000000604082015260600190565b600082198211156144c1576144c16145b9565b500190565b6000826144e157634e487b7160e01b81526012600452602481fd5b500490565b6000816000190483118215151615614500576145006145b9565b500290565b600082821015614517576145176145b9565b500390565b600060ff821660ff841680821015614536576145366145b9565b90039392505050565b600181811c9082168061455357607f821691505b6020821081141561457457634e487b7160e01b600052602260045260246000fd5b50919050565b600060001982141561458e5761458e6145b9565b5060010190565b600063ffffffff808316818114156145af576145af6145b9565b6001019392505050565b634e487b7160e01b600052601160045260246000fdfea7c37a885c101433a066f48b62753beb2a7567fe326b80d58772c6ef61e282e7c6497b0d1af5627a7b5dc7995c3c9c668c87bd99ddc7e1609ba9724fe0e860b5436f6d7065746974696f6e202d207570646174655375626d697373696f6e3a20a26469706673582212203d2c15c453c9f6ebf77b10c30e38f4a1f1f0b753d92ac42fd5b146992f6691c964736f6c63430008040033",
  "bytecodeSha1": "8541dd27e17e3f28b90c7fbc7ec1b4c67701e91e",
  "compiler": {
    "evm_version": "istanbul",
    "optimizer": {
      "enabled": true,
      "runs": 200
    },
    "version": "0.8.4+commit.c7e474f2"
  },
  "contractName": "Competition",
  "language": "Solidity",
  "natspec": {
    "author": "Rocket Capital Investment Pte Ltd",
    "details": "This contract manages registration and reward payouts for the RCI Tournament.IPFS hash format: Hash Identifier (2 bytes), Actual Hash (May eventually take on other formats but currently 32 bytes)",
    "kind": "dev",
    "methods": {
      "advanceToPhase(uint8)": {
        "details": "Called only by an authorized admin to advance to the next phase.Due to the block gas limit rewards payments may need to be split up into multiple function calls.In other words, payStakingRewards and payChallengeAndTournamentRewards may need to be called multiple times to complete all required payments.This function is used to advance to phase 3 after staking rewards payments have complemted or to phase 4 after challenge and tournament rewards payments have completed.",
        "params": {
          "phase": "The phase to advance to."
        },
        "returns": {
          "success": "True if the operation completed successfully.*"
        }
      },
      "closeSubmission()": {
        "details": "Called only by authorized admin to stop allowing submissions for a particular challenge.",
        "returns": {
          "success": "True if the operation completed successfully.*"
        }
      },
      "decreaseStake(address,uint256)": {
        "details": "Called by anyone ONLY VIA THE ERC20 TOKEN CONTRACT to decrease their stake.",
        "params": {
          "amountToken": "Number of tokens to withdraw.",
          "staker": "The address of the staker that wants to withdraw their stake."
        },
        "returns": {
          "success": "True if the operation completed successfully.*"
        }
      },
      "getChallengeRewards(uint32,address)": {
        "details": "Called by anyone to check the challenge rewards given to this participant in a particular challenge.",
        "params": {
          "challengeNumber": "Challenge to get the challenge rewards given of.",
          "participant": "Address of participant to check on."
        },
        "returns": {
          "challengeRewards": "Amount of challenge rewards given to this participant for this challenge.*"
        }
      },
      "getChallengeRewardsPercentageInWei()": {
        "details": "Called by anyone to check the percentage of the total competition reward pool allocated for the challenge reward for this challenge.",
        "returns": {
          "challengeRewardsPercentageInWei": "Percentage for challenge reward budget in wei.*"
        }
      },
      "getChallengeScores(uint32,address)": {
        "details": "Called by anyone to check get the challenge score of this participant for this challenge.",
        "params": {
          "challengeNumber": "Challenge to get the participant's challenge score of.",
          "participant": "Address of participant to check on."
        },
        "returns": {
          "challengeScores": "The challenge score of this participant for this challenge.*"
        }
      },
      "getCompetitionPool()": {
        "notice": "READ METHODS*"
      },
      "getCurrentChallengeRewardsBudget()": {
        "details": "Called by anyone to check the challenge rewards budget for the current challenge.",
        "returns": {
          "currentChallengeRewardsBudget": "Budget for challenge rewards payment in wei.*"
        }
      },
      "getCurrentStakingRewardsBudget()": {
        "details": "Called by anyone to check the staking rewards budget allocation for the current challenge.",
        "returns": {
          "currentStakingRewardsBudget": "Budget for staking rewards in wei.*"
        }
      },
      "getCurrentTotalStaked()": {
        "details": "Called by anyone to check the current total amount staked.",
        "returns": {
          "currentTotalStaked": "Amount of tokens currently staked in wei.*"
        }
      },
      "getCurrentTournamentRewardsBudget()": {
        "details": "Called by anyone to check the tournament rewards budget for the current challenge.",
        "returns": {
          "currentTournamentRewardsBudget": "Budget for tournament rewards payment in wei.*"
        }
      },
      "getDatasetHash(uint32)": {
        "details": "Called by anyone to obtain the dataset hash for this particular challenge.",
        "params": {
          "challengeNumber": "The challenge to get the dataset hash of."
        },
        "returns": {
          "dataset": "IPFS hash where the dataset of this particular challenge is stored. This is the IPFS CID less the 1220 prefix.*"
        }
      },
      "getDeadlines(uint32,uint256)": {
        "details": "Called by anyone to retrieve one of the deadlines for this challenge.",
        "params": {
          "challengeNumber": "Challenge to get the deadline of.",
          "index": "Index of the deadline to retrieve."
        },
        "returns": {
          "deadline": "Deadline in milliseconds.*"
        }
      },
      "getInformation(uint32,address,uint256)": {
        "details": "Called by anyone to check the additional information for this participant in a particular challenge.",
        "params": {
          "challengeNumber": "Challenge to get the additional information of.",
          "itemNumber": "Additional information item to check on.",
          "participant": "Address of participant to check on."
        },
        "returns": {
          "value": "Value of this additional information item for this participant for this challenge.*"
        }
      },
      "getKeyHash(uint32)": {
        "details": "Called by anyone to obtain the key hash for this particular challenge.",
        "params": {
          "challengeNumber": "The challenge to get the key hash of."
        },
        "returns": {
          "key": "IPFS hash where results of this particular challenge are stored. This is the IPFS CID less the 1220 prefix.*"
        }
      },
      "getLatestChallengeNumber()": {
        "details": "Called by anyone to get the number of the latest challenge.As the challenge number begins from 1, this is also the total number of challenges created in this competition.",
        "returns": {
          "latestChallengeNumber": "Latest challenge created.*"
        }
      },
      "getMessage()": {
        "details": "Called by anyone to get the current broadcast message.",
        "returns": {
          "message": "Current message being broadcasted.*"
        }
      },
      "getOverallRewards(uint32,address)": {
        "details": "Called by anyone to check the overall rewards (staking + challenge + tournament rewards) given to this participant in a particular challenge.",
        "params": {
          "challengeNumber": "Challenge to get the overall rewards given of.",
          "participant": "Address of participant to check on."
        },
        "returns": {
          "overallRewards": "Amount of overall rewards given to this participant for this challenge.*"
        }
      },
      "getPhase(uint32)": {
        "details": "Called by anyone to obtain the phase number for this particular challenge.",
        "params": {
          "challengeNumber": "The challenge to get the phase of."
        },
        "returns": {
          "phase": "The phase that this challenge is in.*"
        }
      },
      "getPrivateKeyHash(uint32)": {
        "details": "Called by anyone to obtain the private key hash for this particular challenge.",
        "params": {
          "challengeNumber": "The challenge to get the key hash of."
        },
        "returns": {
          "privateKey": "IPFS hash where results of this particular challenge are stored. This is the IPFS CID less the 1220 prefix.*"
        }
      },
      "getRemainder()": {
        "details": "Called by anyone to check the amount of tokens that have been sent to this contract but are not recorded as a stake or as part of the competition rewards pool.",
        "returns": {
          "remainder": "The amount of tokens held by this contract that are not recorded as a stake or as part of the competition rewards pool.*"
        }
      },
      "getResultsHash(uint32)": {
        "details": "Called by anyone to obtain the results hash for this particular challenge.",
        "params": {
          "challengeNumber": "The challenge to get the results hash of."
        },
        "returns": {
          "results": "IPFS hash where results of this particular challenge are stored. This is the IPFS CID less the 1220 prefix.*"
        }
      },
      "getRewardsThreshold()": {
        "details": "Called by anyone to check minimum amount required to open a new challenge.",
        "returns": {
          "rewardsThreshold": "Amount of tokens in wei the competition pool must contain to open a new challenge.*"
        }
      },
      "getRoleAdmin(bytes32)": {
        "details": "Returns the admin role that controls `role`. See {grantRole} and {revokeRole}. To change a role's admin, use {_setRoleAdmin}."
      },
      "getStake(address)": {
        "details": "Called by anyone to obtain the stake amount in wei of a particular address.",
        "params": {
          "participant": "Address to query token balance of."
        },
        "returns": {
          "stake": "Token balance of given address in wei.*"
        }
      },
      "getStakeThreshold()": {
        "details": "Called by anyone to obtain the minimum amount of stake required to participate in the competition.",
        "returns": {
          "stakeThreshold": "Minimum stake amount in wei.*"
        }
      },
      "getStakedAmountForChallenge(uint32,address)": {
        "details": "Called by anyone to check the stakes locked for this participant in a particular challenge.",
        "params": {
          "challengeNumber": "Challenge to get the stakes locked of.",
          "participant": "Address of participant to check on."
        },
        "returns": {
          "staked": "Amount of tokens locked for this challenge for this participant.*"
        }
      },
      "getStakingRewards(uint32,address)": {
        "details": "Called by anyone to check the staking rewards given to this participant in a particular challenge.",
        "params": {
          "challengeNumber": "Challenge to get the staking rewards given of.",
          "participant": "Address of participant to check on."
        },
        "returns": {
          "stakingRewards": "Amount of staking rewards given to this participant for this challenge.*"
        }
      },
      "getSubmission(uint32,address)": {
        "details": "Called by anyone to get submission hash of a participant for a challenge.",
        "params": {
          "challengeNumber": "Challenge index to check on.",
          "participant": "Address of participant to check on."
        },
        "returns": {
          "submissionHash": "IPFS reference hash of participant's prediction submission for this challenge. This is the IPFS CID less the 1220 prefix.*"
        }
      },
      "getSubmissionCounter(uint32)": {
        "details": "Called by anyone to obtain the number of submissions made for this particular challenge.",
        "params": {
          "challengeNumber": "The challenge to get the submission counter of."
        },
        "returns": {
          "submissionCounter": "Number of submissions made.*"
        }
      },
      "getSubmitters(uint32,uint256,uint256)": {
        "details": "Called by anyone to obtain the list of submitters for this particular challenge.Submitters refer to participants that have made submissions for this particular challenge.",
        "params": {
          "challengeNumber": "The challenge to get the submitters list of.",
          "endIndex": "The challenge to get the submitters list of.",
          "startIndex": "The challenge to get the submitters list of."
        },
        "returns": {
          "_0": "List of submitter addresses.*"
        }
      },
      "getTokenAddress()": {
        "details": "Called by anyone to obtain the smart contract address of the ERC20 token used in this competition.",
        "returns": {
          "tokenAddress": "ERC20 Token smart contract address.*"
        }
      },
      "getTournamentRewards(uint32,address)": {
        "details": "Called by anyone to check the tournament rewards given to this participant in a particular challenge.",
        "params": {
          "challengeNumber": "Challenge to get the tournament rewards given of.",
          "participant": "Address of participant to check on."
        },
        "returns": {
          "tournamentRewards": "Amount of tournament rewards given to this participant for this challenge.*"
        }
      },
      "getTournamentRewardsPercentageInWei()": {
        "details": "Called by anyone to check the percentage of the total competition reward pool allocated for the tournament reward for this challenge.",
        "returns": {
          "tournamentRewardsPercentageInWei": "Percentage for tournament reward budget in wei.*"
        }
      },
      "getTournamentScores(uint32,address)": {
        "details": "Called by anyone to check get the tournament score of this participant for this challenge.",
        "params": {
          "challengeNumber": "Challenge to get the participant's tournament score of..",
          "participant": "Address of participant to check on."
        },
        "returns": {
          "tournamentScores": "The tournament score of this participant for this challenge.*"
        }
      },
      "grantRole(bytes32,address)": {
        "details": "Grants `role` to `account`. If `account` had not been already granted `role`, emits a {RoleGranted} event. Requirements: - the caller must have ``role``'s admin role."
      },
      "hasRole(bytes32,address)": {
        "details": "Returns `true` if `account` has been granted `role`."
      },
      "increaseStake(address,uint256)": {
        "notice": "PARTICIPANT WRITE METHODS*"
      },
      "moveRemainderToPool()": {
        "details": "Called only by an authorized admin, to move any tokens sent to this contract without using the 'sponsor' or 'setStake'/'increaseStake' methods into the competition pool.",
        "returns": {
          "success": "True if the operation completed successfully.*"
        }
      },
      "openChallenge(bytes32,bytes32,uint256,uint256)": {
        "details": "Called only by authorized admin to start allowing staking for a new challenge.",
        "params": {
          "datasetHash": "IPFS reference hash where dataset for this challenge is stored. This is the IPFS CID less the 1220 prefix.",
          "keyHash": "IPFS reference hash where the key for this challenge is stored. This is the IPFS CID less the 1220 prefix.",
          "nextChallengeDeadline": "Timestamp where ths challenge will be closed and the next challenge opened.",
          "submissionCloseDeadline": "Timestamp of the time where submissions will be closed."
        },
        "returns": {
          "success": "True if the operation completed successfully.*"
        }
      },
      "payRewards(address[],uint256[],uint256[],uint256[])": {
        "details": "Called only by authorized admin to move rewards from the competition pool to the winners' competition internal balances based on results from the current challenge.Note that the size of the array parameters passed in to this function is limited by the block gas limit.This function allows for the payout to be split into chunks by calling it repeatedly.",
        "params": {
          "challengeRewards": "List of corresponding amount of tokens in wei won by each submitter for the challenge rewards portion.",
          "stakingRewards": "List of corresponding amount of tokens in wei given to each submitter for the staking rewards portion.",
          "submitters": "List of addresses that made submissions for the challenge.",
          "tournamentRewards": "List of corresponding amount of tokens in wei won by each submitter for the tournament rewards portion."
        },
        "returns": {
          "success": "True if operation completes successfully.*"
        }
      },
      "renounceRole(bytes32,address)": {
        "details": "Revokes `role` from the calling account. Roles are often managed via {grantRole} and {revokeRole}: this function's purpose is to provide a mechanism for accounts to lose their privileges if they are compromised (such as when a trusted device is misplaced). If the calling account had been granted `role`, emits a {RoleRevoked} event. Requirements: - the caller must be `account`."
      },
      "revokeRole(bytes32,address)": {
        "details": "Revokes `role` from `account`. If `account` had been granted `role`, emits a {RoleRevoked} event. Requirements: - the caller must have ``role``'s admin role."
      },
      "sponsor(uint256)": {
        "notice": "METHODS CALLABLE BY BOTH ADMIN AND PARTICIPANTS.*"
      },
      "submitNewPredictions(bytes32)": {
        "details": "Called by participant to make a new prediction submission for the current challenge.Will be successful if the participant's stake is above the staking threshold.",
        "params": {
          "submissionHash": "IPFS reference hash of submission. This is the IPFS CID less the 1220 prefix."
        },
        "returns": {
          "challengeNumber": "Challenge that this submission was made for.*"
        }
      },
      "submitResults(bytes32)": {
        "details": "Called only by authorized admin to submit the IPFS reference for the results of a particular challenge.",
        "params": {
          "resultsHash": "IPFS reference hash where results for this challenge are stored. This is the IPFS CID less the 1220 prefix."
        },
        "returns": {
          "success": "True if the operation completed successfully.*"
        }
      },
      "supportsInterface(bytes4)": {
        "details": "See {IERC165-supportsInterface}."
      },
      "updateChallengeAndTournamentScores(uint32,address[],uint256[],uint256[])": {
        "details": "Provides the same function as above but allows for challenge number to be specified.Note that the size of the array parameters passed in to this function is limited by the block gas limit.This function allows for the update to be split into chunks by calling it repeatedly.",
        "params": {
          "challengeNumber": "Challenge to make updates for.",
          "challengeScores": "List of corresponding challenge scores.",
          "participants": "List of participants' addresses.",
          "tournamentScores": "List of corresponding tournament scores."
        },
        "returns": {
          "success": "True if operation completes successfully.*"
        }
      },
      "updateChallengeRewardsPercentageInWei(uint256)": {
        "details": "Called only by authorized admin to update the percentage of the competition rewards pool allocated to the challenge rewards budget.",
        "params": {
          "newPercentage": "New percentage amount in wei."
        },
        "returns": {
          "success": "True if the operation completed successfully.*"
        }
      },
      "updateDataset(bytes32,bytes32)": {
        "details": "Called only by authorized admin to update the IPFS reference for the dataset of a particular challenge.",
        "params": {
          "newDatasetHash": "IPFS reference hash where new dataset for this challenge is stored. This is the IPFS CID less the 1220 prefix.",
          "oldDatasetHash": "IPFS reference hash where previous dataset for this challenge is stored. This is the IPFS CID less the 1220 prefix."
        },
        "returns": {
          "success": "True if the operation completed successfully.*"
        }
      },
      "updateDeadlines(uint32,uint256,uint256)": {
        "details": "Called only by authorized admin to update one of the deadlines for this challenge.",
        "params": {
          "challengeNumber": "Challenge to perform the update for.",
          "index": "Deadline index to update.",
          "timestamp": "Deadline timestamp in milliseconds."
        },
        "returns": {
          "success": "True if the operation completed successfully.*"
        }
      },
      "updateInformationBatch(uint32,address[],uint256,uint256[])": {
        "details": "Called only by authorized admin to do a batch update of an additional information item for a list of participants for a given challenge.",
        "params": {
          "challengeNumber": "Challenge to update information for.",
          "itemNumber": "Item to update for.",
          "participants": "List of participant' addresses.",
          "values": "List of corresponding values to store."
        },
        "returns": {
          "success": "True if operation completes successfully.*"
        }
      },
      "updateKey(bytes32,bytes32)": {
        "details": "Called only by authorized admin to update the IPFS reference for the key of a particular challenge.",
        "params": {
          "newKeyHash": "IPFS reference hash where new key for this challenge is stored. This is the IPFS CID less the 1220 prefix.",
          "oldKeyHash": "IPFS reference hash where previous key for this challenge is stored. This is the IPFS CID less the 1220 prefix."
        },
        "returns": {
          "success": "True if the operation completed successfully.*"
        }
      },
      "updateMessage(string)": {
        "notice": "ORGANIZER WRITE METHODS*"
      },
      "updatePrivateKey(uint32,bytes32)": {
        "details": "Called only by authorized admin to update the private key for this challenge. This should be done at the end of the challenge.",
        "params": {
          "challengeNumber": "Challenge to perform the update for.",
          "newKeyHash": "IPFS reference cid where private key is stored."
        },
        "returns": {
          "success": "True if the operation completed successfully.*"
        }
      },
      "updateResults(bytes32,bytes32)": {
        "details": "Called only by authorized admin to update the IPFS reference for the results of the current challenge.",
        "params": {
          "newResultsHash": "IPFS reference hash where new results for this challenge are stored. This is the IPFS CID less the 1220 prefix.",
          "oldResultsHash": "IPFS reference hash where previous results for this challenge are stored. This is the IPFS CID less the 1220 prefix."
        },
        "returns": {
          "success": "True if the operation completed successfully.*"
        }
      },
      "updateRewardsThreshold(uint256)": {
        "details": "Called only by authorized admin to update the minimum amount required in the competition rewards pool to open a new challenge.",
        "params": {
          "newThreshold": "New minimum amount for opening new challenge."
        },
        "returns": {
          "success": "True if the operation completed successfully.*"
        }
      },
      "updateStakeThreshold(uint256)": {
        "details": "Called only by authorized admin to update the minimum stake amount required to take part in the competition.",
        "params": {
          "newStakeThreshold": "New stake threshold amount in wei."
        },
        "returns": {
          "success": "True if the operation completed successfully.*"
        }
      },
      "updateSubmission(bytes32,bytes32)": {
        "details": "Called by participant to modify prediction submission for the current challenge.",
        "params": {
          "newSubmissionHash": "IPFS reference hash of new submission. This is the IPFS CID less the 1220 prefix.",
          "oldSubmissionHash": "IPFS reference hash of previous submission. This is the IPFS CID less the 1220 prefix."
        },
        "returns": {
          "challengeNumber": "Challenge that this submission was made for.*"
        }
      },
      "updateTournamentRewardsPercentageInWei(uint256)": {
        "details": "Called only by authorized admin to update the percentage of the competition rewards pool allocated to the tournament rewards budget.",
        "params": {
          "newPercentage": "New percentage amount in wei."
        },
        "returns": {
          "success": "True if the operation completed successfully.*"
        }
      }
    },
    "title": "RCI Tournament(Competition) Contract",
    "version": 1
  },
  "opcodes": "PUSH1 0x80 PUSH1 0x40 MSTORE CALLVALUE DUP1 ISZERO PUSH2 0x10 JUMPI PUSH1 0x0 DUP1 REVERT JUMPDEST POP PUSH1 0x4 CALLDATASIZE LT PUSH2 0x3D0 JUMPI PUSH1 0x0 CALLDATALOAD PUSH1 0xE0 SHR DUP1 PUSH4 0x736D8C91 GT PUSH2 0x1FF JUMPI DUP1 PUSH4 0xC8F971DF GT PUSH2 0x11A JUMPI DUP1 PUSH4 0xDC9F76EB GT PUSH2 0xAD JUMPI DUP1 PUSH4 0xEECFC33F GT PUSH2 0x7C JUMPI DUP1 PUSH4 0xEECFC33F EQ PUSH2 0xA5F JUMPI DUP1 PUSH4 0xF109A624 EQ PUSH2 0xA88 JUMPI DUP1 PUSH4 0xF7FB373D EQ PUSH2 0xA90 JUMPI DUP1 PUSH4 0xFFC6FF1E EQ PUSH2 0xAA3 JUMPI PUSH1 0x0 DUP1 REVERT JUMPDEST DUP1 PUSH4 0xDC9F76EB EQ PUSH2 0x9A7 JUMPI DUP1 PUSH4 0xDEC9BF2F EQ PUSH2 0x9BA JUMPI DUP1 PUSH4 0xE6184AB8 EQ PUSH2 0x9CD JUMPI DUP1 PUSH4 0xE7D5C4EA EQ PUSH2 0xA10 JUMPI PUSH1 0x0 DUP1 REVERT JUMPDEST DUP1 PUSH4 0xD547741F GT PUSH2 0xE9 JUMPI DUP1 PUSH4 0xD547741F EQ PUSH2 0x936 JUMPI DUP1 PUSH4 0xD68A7C00 EQ PUSH2 0x949 JUMPI DUP1 PUSH4 0xD885E39B EQ PUSH2 0x951 JUMPI DUP1 PUSH4 0xDC1E207C EQ PUSH2 0x994 JUMPI PUSH1 0x0 DUP1 REVERT JUMPDEST DUP1 PUSH4 0xC8F971DF EQ PUSH2 0x8F3 JUMPI DUP1 PUSH4 0xCE6D41DE EQ PUSH2 0x906 JUMPI DUP1 PUSH4 0xD09E2C21 EQ PUSH2 0x91B JUMPI DUP1 PUSH4 0xD4F4B806 EQ PUSH2 0x92E JUMPI PUSH1 0x0 DUP1 REVERT JUMPDEST DUP1 PUSH4 0x97D9ABB8 GT PUSH2 0x192 JUMPI DUP1 PUSH4 0xAA658B69 GT PUSH2 0x161 JUMPI DUP1 PUSH4 0xAA658B69 EQ PUSH2 0x84C JUMPI DUP1 PUSH4 0xAF976FEC EQ PUSH2 0x88F JUMPI DUP1 PUSH4 0xB6CCE5E2 EQ PUSH2 0x8CD JUMPI DUP1 PUSH4 0xC55E86B1 EQ PUSH2 0x8E0 JUMPI PUSH1 0x0 DUP1 REVERT JUMPDEST DUP1 PUSH4 0x97D9ABB8 EQ PUSH2 0x80B JUMPI DUP1 PUSH4 0x9F2492A2 EQ PUSH2 0x81E JUMPI DUP1 PUSH4 0xA217FDDF EQ PUSH2 0x831 JUMPI DUP1 PUSH4 0xA6AB36F2 EQ PUSH2 0x839 JUMPI PUSH1 0x0 DUP1 REVERT JUMPDEST DUP1 PUSH4 0x7BFC90B2 GT PUSH2 0x1CE JUMPI DUP1 PUSH4 0x7BFC90B2 EQ PUSH2 0x7D5 JUMPI DUP1 PUSH4 0x91D14854 EQ PUSH2 0x7E8 JUMPI DUP1 PUSH4 0x920920BA EQ PUSH2 0x7FB JUMPI DUP1 PUSH4 0x93A9DAC7 EQ PUSH2 0x803 JUMPI PUSH1 0x0 DUP1 REVERT JUMPDEST DUP1 PUSH4 0x736D8C91 EQ PUSH2 0x730 JUMPI DUP1 PUSH4 0x73AF6745 EQ PUSH2 0x756 JUMPI DUP1 PUSH4 0x7A378430 EQ PUSH2 0x769 JUMPI DUP1 PUSH4 0x7A766460 EQ PUSH2 0x7AC JUMPI PUSH1 0x0 DUP1 REVERT JUMPDEST DUP1 PUSH4 0x343CB6BE GT PUSH2 0x2EF JUMPI DUP1 PUSH4 0x4A31156F GT PUSH2 0x282 JUMPI DUP1 PUSH4 0x5E35D498 GT PUSH2 0x251 JUMPI DUP1 PUSH4 0x5E35D498 EQ PUSH2 0x687 JUMPI DUP1 PUSH4 0x5EF53329 EQ PUSH2 0x69A JUMPI DUP1 PUSH4 0x60CDB6CC EQ PUSH2 0x6AD JUMPI DUP1 PUSH4 0x6C981570 EQ PUSH2 0x6ED JUMPI PUSH1 0x0 DUP1 REVERT JUMPDEST DUP1 PUSH4 0x4A31156F EQ PUSH2 0x60B JUMPI DUP1 PUSH4 0x572C686A EQ PUSH2 0x62B JUMPI DUP1 PUSH4 0x57D0CF58 EQ PUSH2 0x63E JUMPI DUP1 PUSH4 0x5D7E9467 EQ PUSH2 0x674 JUMPI PUSH1 0x0 DUP1 REVERT JUMPDEST DUP1 PUSH4 0x3C35F180 GT PUSH2 0x2BE JUMPI DUP1 PUSH4 0x3C35F180 EQ PUSH2 0x579 JUMPI DUP1 PUSH4 0x3CBCB53A EQ PUSH2 0x58C JUMPI DUP1 PUSH4 0x3F230915 EQ PUSH2 0x5CF JUMPI DUP1 PUSH4 0x4169293B EQ PUSH2 0x5E2 JUMPI PUSH1 0x0 DUP1 REVERT JUMPDEST DUP1 PUSH4 0x343CB6BE EQ PUSH2 0x530 JUMPI DUP1 PUSH4 0x36568ABE EQ PUSH2 0x538 JUMPI DUP1 PUSH4 0x37D6B997 EQ PUSH2 0x54B JUMPI DUP1 PUSH4 0x39E28777 EQ PUSH2 0x553 JUMPI PUSH1 0x0 DUP1 REVERT JUMPDEST DUP1 PUSH4 0x1A73BA01 GT PUSH2 0x367 JUMPI DUP1 PUSH4 0x2D071F1A GT PUSH2 0x336 JUMPI DUP1 PUSH4 0x2D071F1A EQ PUSH2 0x4ED JUMPI DUP1 PUSH4 0x2F2FF15D EQ PUSH2 0x500 JUMPI DUP1 PUSH4 0x315C455E EQ PUSH2 0x515 JUMPI DUP1 PUSH4 0x3228CF72 EQ PUSH2 0x528 JUMPI PUSH1 0x0 DUP1 REVERT JUMPDEST DUP1 PUSH4 0x1A73BA01 EQ PUSH2 0x4A7 JUMPI DUP1 PUSH4 0x1E2FF711 EQ PUSH2 0x4BA JUMPI DUP1 PUSH4 0x248A9CA3 EQ PUSH2 0x4C2 JUMPI DUP1 PUSH4 0x25B06746 EQ PUSH2 0x4E5 JUMPI PUSH1 0x0 DUP1 REVERT JUMPDEST DUP1 PUSH4 0x15343C11 GT PUSH2 0x3A3 JUMPI DUP1 PUSH4 0x15343C11 EQ PUSH2 0x44E JUMPI DUP1 PUSH4 0x18829FC3 EQ PUSH2 0x477 JUMPI DUP1 PUSH4 0x18B125D1 EQ PUSH2 0x47F JUMPI DUP1 PUSH4 0x1923BE24 EQ PUSH2 0x494 JUMPI PUSH1 0x0 DUP1 REVERT JUMPDEST DUP1 PUSH4 0x1FFC9A7 EQ PUSH2 0x3D5 JUMPI DUP1 PUSH4 0x2881B52 EQ PUSH2 0x3FD JUMPI DUP1 PUSH4 0x10FE9AE8 EQ PUSH2 0x410 JUMPI DUP1 PUSH4 0x1442B868 EQ PUSH2 0x42B JUMPI JUMPDEST PUSH1 0x0 DUP1 REVERT JUMPDEST PUSH2 0x3E8 PUSH2 0x3E3 CALLDATASIZE PUSH1 0x4 PUSH2 0x40DC JUMP JUMPDEST PUSH2 0xAAB JUMP JUMPDEST PUSH1 0x40 MLOAD SWAP1 ISZERO ISZERO DUP2 MSTORE PUSH1 0x20 ADD JUMPDEST PUSH1 0x40 MLOAD DUP1 SWAP2 SUB SWAP1 RETURN JUMPDEST PUSH2 0x3E8 PUSH2 0x40B CALLDATASIZE PUSH1 0x4 PUSH2 0x4369 JUMP JUMPDEST PUSH2 0xAE2 JUMP JUMPDEST PUSH1 0x1 SLOAD PUSH1 0x40 MLOAD PUSH1 0x1 PUSH1 0x1 PUSH1 0xA0 SHL SUB SWAP1 SWAP2 AND DUP2 MSTORE PUSH1 0x20 ADD PUSH2 0x3F4 JUMP JUMPDEST PUSH2 0x440 PUSH1 0x0 DUP1 MLOAD PUSH1 0x20 PUSH2 0x45D0 DUP4 CODECOPY DUP2 MLOAD SWAP2 MSTORE DUP2 JUMP JUMPDEST PUSH1 0x40 MLOAD SWAP1 DUP2 MSTORE PUSH1 0x20 ADD PUSH2 0x3F4 JUMP JUMPDEST PUSH2 0x440 PUSH2 0x45C CALLDATASIZE PUSH1 0x4 PUSH2 0x41BD JUMP JUMPDEST PUSH4 0xFFFFFFFF AND PUSH1 0x0 SWAP1 DUP2 MSTORE PUSH1 0xD PUSH1 0x20 MSTORE PUSH1 0x40 SWAP1 KECCAK256 PUSH1 0x2 ADD SLOAD SWAP1 JUMP JUMPDEST PUSH1 0x4 SLOAD PUSH2 0x440 JUMP JUMPDEST PUSH2 0x440 PUSH1 0x0 DUP1 MLOAD PUSH1 0x20 PUSH2 0x45F0 DUP4 CODECOPY DUP2 MLOAD SWAP2 MSTORE DUP2 JUMP JUMPDEST PUSH2 0x3E8 PUSH2 0x4A2 CALLDATASIZE PUSH1 0x4 PUSH2 0x4104 JUMP JUMPDEST PUSH2 0xB6E JUMP JUMPDEST PUSH2 0x3E8 PUSH2 0x4B5 CALLDATASIZE PUSH1 0x4 PUSH2 0x3F3F JUMP JUMPDEST PUSH2 0xBE4 JUMP JUMPDEST PUSH1 0x6 SLOAD PUSH2 0x440 JUMP JUMPDEST PUSH2 0x440 PUSH2 0x4D0 CALLDATASIZE PUSH1 0x4 PUSH2 0x4047 JUMP JUMPDEST PUSH1 0x0 SWAP1 DUP2 MSTORE PUSH1 0x20 DUP2 SWAP1 MSTORE PUSH1 0x40 SWAP1 KECCAK256 PUSH1 0x1 ADD SLOAD SWAP1 JUMP JUMPDEST PUSH1 0x5 SLOAD PUSH2 0x440 JUMP JUMPDEST PUSH2 0x3E8 PUSH2 0x4FB CALLDATASIZE PUSH1 0x4 PUSH2 0x4384 JUMP JUMPDEST PUSH2 0x1020 JUMP JUMPDEST PUSH2 0x513 PUSH2 0x50E CALLDATASIZE PUSH1 0x4 PUSH2 0x405F JUMP JUMPDEST PUSH2 0x1087 JUMP JUMPDEST STOP JUMPDEST PUSH2 0x3E8 PUSH2 0x523 CALLDATASIZE PUSH1 0x4 PUSH2 0x4047 JUMP JUMPDEST PUSH2 0x1116 JUMP JUMPDEST PUSH1 0x8 SLOAD PUSH2 0x440 JUMP JUMPDEST PUSH1 0x2 SLOAD PUSH2 0x440 JUMP JUMPDEST PUSH2 0x513 PUSH2 0x546 CALLDATASIZE PUSH1 0x4 PUSH2 0x405F JUMP JUMPDEST PUSH2 0x1157 JUMP JUMPDEST PUSH2 0x3E8 PUSH2 0x11D1 JUMP JUMPDEST PUSH2 0x440 PUSH2 0x561 CALLDATASIZE PUSH1 0x4 PUSH2 0x41BD JUMP JUMPDEST PUSH4 0xFFFFFFFF AND PUSH1 0x0 SWAP1 DUP2 MSTORE PUSH1 0xD PUSH1 0x20 MSTORE PUSH1 0x40 SWAP1 KECCAK256 SLOAD SWAP1 JUMP JUMPDEST PUSH2 0x3E8 PUSH2 0x587 CALLDATASIZE PUSH1 0x4 PUSH2 0x42E2 JUMP JUMPDEST PUSH2 0x1393 JUMP JUMPDEST PUSH2 0x440 PUSH2 0x59A CALLDATASIZE PUSH1 0x4 PUSH2 0x41D7 JUMP JUMPDEST PUSH4 0xFFFFFFFF SWAP1 SWAP2 AND PUSH1 0x0 SWAP1 DUP2 MSTORE PUSH1 0xD PUSH1 0x20 SWAP1 DUP2 MSTORE PUSH1 0x40 DUP1 DUP4 KECCAK256 PUSH1 0x1 PUSH1 0x1 PUSH1 0xA0 SHL SUB SWAP1 SWAP5 AND DUP4 MSTORE PUSH1 0x5 SWAP1 SWAP4 ADD SWAP1 MSTORE KECCAK256 PUSH1 0x3 ADD SLOAD SWAP1 JUMP JUMPDEST PUSH2 0x3E8 PUSH2 0x5DD CALLDATASIZE PUSH1 0x4 PUSH2 0x408A JUMP JUMPDEST PUSH2 0x160A JUMP JUMPDEST PUSH2 0x440 PUSH2 0x5F0 CALLDATASIZE PUSH1 0x4 PUSH2 0x41BD JUMP JUMPDEST PUSH4 0xFFFFFFFF AND PUSH1 0x0 SWAP1 DUP2 MSTORE PUSH1 0xD PUSH1 0x20 MSTORE PUSH1 0x40 SWAP1 KECCAK256 PUSH1 0x3 ADD SLOAD SWAP1 JUMP JUMPDEST PUSH2 0x61E PUSH2 0x619 CALLDATASIZE PUSH1 0x4 PUSH2 0x4384 JUMP JUMPDEST PUSH2 0x174F JUMP JUMPDEST PUSH1 0x40 MLOAD PUSH2 0x3F4 SWAP2 SWAP1 PUSH2 0x43D7 JUMP JUMPDEST PUSH2 0x3E8 PUSH2 0x639 CALLDATASIZE PUSH1 0x4 PUSH2 0x4047 JUMP JUMPDEST PUSH2 0x183A JUMP JUMPDEST PUSH2 0x440 PUSH2 0x64C CALLDATASIZE PUSH1 0x4 PUSH2 0x4369 JUMP JUMPDEST PUSH4 0xFFFFFFFF SWAP1 SWAP2 AND PUSH1 0x0 SWAP1 DUP2 MSTORE PUSH1 0xD PUSH1 0x20 SWAP1 DUP2 MSTORE PUSH1 0x40 DUP1 DUP4 KECCAK256 SWAP4 DUP4 MSTORE PUSH1 0x6 SWAP1 SWAP4 ADD SWAP1 MSTORE KECCAK256 SLOAD SWAP1 JUMP JUMPDEST PUSH2 0x3E8 PUSH2 0x682 CALLDATASIZE PUSH1 0x4 PUSH2 0x3F3F JUMP JUMPDEST PUSH2 0x18A9 JUMP JUMPDEST PUSH2 0x3E8 PUSH2 0x695 CALLDATASIZE PUSH1 0x4 PUSH2 0x4047 JUMP JUMPDEST PUSH2 0x1B11 JUMP JUMPDEST PUSH2 0x3E8 PUSH2 0x6A8 CALLDATASIZE PUSH1 0x4 PUSH2 0x4047 JUMP JUMPDEST PUSH2 0x1B80 JUMP JUMPDEST PUSH2 0x440 PUSH2 0x6BB CALLDATASIZE PUSH1 0x4 PUSH2 0x41D7 JUMP JUMPDEST PUSH4 0xFFFFFFFF SWAP1 SWAP2 AND PUSH1 0x0 SWAP1 DUP2 MSTORE PUSH1 0xD PUSH1 0x20 SWAP1 DUP2 MSTORE PUSH1 0x40 DUP1 DUP4 KECCAK256 PUSH1 0x1 PUSH1 0x1 PUSH1 0xA0 SHL SUB SWAP1 SWAP5 AND DUP4 MSTORE PUSH1 0x5 SWAP1 SWAP4 ADD SWAP1 MSTORE KECCAK256 SLOAD SWAP1 JUMP JUMPDEST PUSH2 0x440 PUSH2 0x6FB CALLDATASIZE PUSH1 0x4 PUSH2 0x41D7 JUMP JUMPDEST PUSH4 0xFFFFFFFF SWAP1 SWAP2 AND PUSH1 0x0 SWAP1 DUP2 MSTORE PUSH1 0xD PUSH1 0x20 SWAP1 DUP2 MSTORE PUSH1 0x40 DUP1 DUP4 KECCAK256 PUSH1 0x1 PUSH1 0x1 PUSH1 0xA0 SHL SUB SWAP1 SWAP5 AND DUP4 MSTORE PUSH1 0x5 SWAP1 SWAP4 ADD SWAP1 MSTORE KECCAK256 PUSH1 0x2 ADD SLOAD SWAP1 JUMP JUMPDEST PUSH1 0x1 SLOAD PUSH1 0x1 PUSH1 0xA0 SHL SWAP1 DIV PUSH4 0xFFFFFFFF AND JUMPDEST PUSH1 0x40 MLOAD PUSH4 0xFFFFFFFF SWAP1 SWAP2 AND DUP2 MSTORE PUSH1 0x20 ADD PUSH2 0x3F4 JUMP JUMPDEST PUSH2 0x3E8 PUSH2 0x764 CALLDATASIZE PUSH1 0x4 PUSH2 0x408A JUMP JUMPDEST PUSH2 0x1BEF JUMP JUMPDEST PUSH2 0x440 PUSH2 0x777 CALLDATASIZE PUSH1 0x4 PUSH2 0x41D7 JUMP JUMPDEST PUSH4 0xFFFFFFFF SWAP1 SWAP2 AND PUSH1 0x0 SWAP1 DUP2 MSTORE PUSH1 0xD PUSH1 0x20 SWAP1 DUP2 MSTORE PUSH1 0x40 DUP1 DUP4 KECCAK256 PUSH1 0x1 PUSH1 0x1 PUSH1 0xA0 SHL SUB SWAP1 SWAP5 AND DUP4 MSTORE PUSH1 0x5 SWAP1 SWAP4 ADD SWAP1 MSTORE KECCAK256 PUSH1 0x6 ADD SLOAD SWAP1 JUMP JUMPDEST PUSH2 0x440 PUSH2 0x7BA CALLDATASIZE PUSH1 0x4 PUSH2 0x3F25 JUMP JUMPDEST PUSH1 0x1 PUSH1 0x1 PUSH1 0xA0 SHL SUB AND PUSH1 0x0 SWAP1 DUP2 MSTORE PUSH1 0xC PUSH1 0x20 MSTORE PUSH1 0x40 SWAP1 KECCAK256 SLOAD SWAP1 JUMP JUMPDEST PUSH2 0x3E8 PUSH2 0x7E3 CALLDATASIZE PUSH1 0x4 PUSH2 0x4047 JUMP JUMPDEST PUSH2 0x1D27 JUMP JUMPDEST PUSH2 0x3E8 PUSH2 0x7F6 CALLDATASIZE PUSH1 0x4 PUSH2 0x405F JUMP JUMPDEST PUSH2 0x1D96 JUMP JUMPDEST PUSH1 0xA SLOAD PUSH2 0x440 JUMP JUMPDEST PUSH1 0x9 SLOAD PUSH2 0x440 JUMP JUMPDEST PUSH2 0x440 PUSH2 0x819 CALLDATASIZE PUSH1 0x4 PUSH2 0x41D7 JUMP JUMPDEST PUSH2 0x1DBF JUMP JUMPDEST PUSH2 0x741 PUSH2 0x82C CALLDATASIZE PUSH1 0x4 PUSH2 0x4047 JUMP JUMPDEST PUSH2 0x1E17 JUMP JUMPDEST PUSH2 0x440 PUSH1 0x0 DUP2 JUMP JUMPDEST PUSH2 0x513 PUSH2 0x847 CALLDATASIZE PUSH1 0x4 PUSH2 0x4189 JUMP JUMPDEST PUSH2 0x1EFC JUMP JUMPDEST PUSH2 0x440 PUSH2 0x85A CALLDATASIZE PUSH1 0x4 PUSH2 0x41D7 JUMP JUMPDEST PUSH4 0xFFFFFFFF SWAP1 SWAP2 AND PUSH1 0x0 SWAP1 DUP2 MSTORE PUSH1 0xD PUSH1 0x20 SWAP1 DUP2 MSTORE PUSH1 0x40 DUP1 DUP4 KECCAK256 PUSH1 0x1 PUSH1 0x1 PUSH1 0xA0 SHL SUB SWAP1 SWAP5 AND DUP4 MSTORE PUSH1 0x5 SWAP1 SWAP4 ADD SWAP1 MSTORE KECCAK256 PUSH1 0x4 ADD SLOAD SWAP1 JUMP JUMPDEST PUSH2 0x8BB PUSH2 0x89D CALLDATASIZE PUSH1 0x4 PUSH2 0x41BD JUMP JUMPDEST PUSH4 0xFFFFFFFF AND PUSH1 0x0 SWAP1 DUP2 MSTORE PUSH1 0xD PUSH1 0x20 MSTORE PUSH1 0x40 SWAP1 KECCAK256 PUSH1 0x4 ADD SLOAD PUSH1 0xFF AND SWAP1 JUMP JUMPDEST PUSH1 0x40 MLOAD PUSH1 0xFF SWAP1 SWAP2 AND DUP2 MSTORE PUSH1 0x20 ADD PUSH2 0x3F4 JUMP JUMPDEST PUSH2 0x3E8 PUSH2 0x8DB CALLDATASIZE PUSH1 0x4 PUSH2 0x4047 JUMP JUMPDEST PUSH2 0x2077 JUMP JUMPDEST PUSH2 0x3E8 PUSH2 0x8EE CALLDATASIZE PUSH1 0x4 PUSH2 0x408A JUMP JUMPDEST PUSH2 0x2206 JUMP JUMPDEST PUSH2 0x440 PUSH2 0x901 CALLDATASIZE PUSH1 0x4 PUSH2 0x41BD JUMP JUMPDEST PUSH2 0x22B9 JUMP JUMPDEST PUSH2 0x90E PUSH2 0x22DA JUMP JUMPDEST PUSH1 0x40 MLOAD PUSH2 0x3F4 SWAP2 SWAP1 PUSH2 0x4424 JUMP JUMPDEST PUSH2 0x3E8 PUSH2 0x929 CALLDATASIZE PUSH1 0x4 PUSH2 0x3F68 JUMP JUMPDEST PUSH2 0x236C JUMP JUMPDEST PUSH1 0x3 SLOAD PUSH2 0x440 JUMP JUMPDEST PUSH2 0x513 PUSH2 0x944 CALLDATASIZE PUSH1 0x4 PUSH2 0x405F JUMP JUMPDEST PUSH2 0x23D0 JUMP JUMPDEST PUSH1 0x7 SLOAD PUSH2 0x440 JUMP JUMPDEST PUSH2 0x440 PUSH2 0x95F CALLDATASIZE PUSH1 0x4 PUSH2 0x41D7 JUMP JUMPDEST PUSH4 0xFFFFFFFF SWAP1 SWAP2 AND PUSH1 0x0 SWAP1 DUP2 MSTORE PUSH1 0xD PUSH1 0x20 SWAP1 DUP2 MSTORE PUSH1 0x40 DUP1 DUP4 KECCAK256 PUSH1 0x1 PUSH1 0x1 PUSH1 0xA0 SHL SUB SWAP1 SWAP5 AND DUP4 MSTORE PUSH1 0x5 SWAP4 DUP5 ADD SWAP1 SWAP2 MSTORE SWAP1 KECCAK256 ADD SLOAD SWAP1 JUMP JUMPDEST PUSH2 0x3E8 PUSH2 0x9A2 CALLDATASIZE PUSH1 0x4 PUSH2 0x40AB JUMP JUMPDEST PUSH2 0x2450 JUMP JUMPDEST PUSH2 0x3E8 PUSH2 0x9B5 CALLDATASIZE PUSH1 0x4 PUSH2 0x43B6 JUMP JUMPDEST PUSH2 0x26C8 JUMP JUMPDEST PUSH2 0x3E8 PUSH2 0x9C8 CALLDATASIZE PUSH1 0x4 PUSH2 0x423B JUMP JUMPDEST PUSH2 0x2897 JUMP JUMPDEST PUSH2 0x440 PUSH2 0x9DB CALLDATASIZE PUSH1 0x4 PUSH2 0x41D7 JUMP JUMPDEST PUSH4 0xFFFFFFFF SWAP1 SWAP2 AND PUSH1 0x0 SWAP1 DUP2 MSTORE PUSH1 0xD PUSH1 0x20 SWAP1 DUP2 MSTORE PUSH1 0x40 DUP1 DUP4 KECCAK256 PUSH1 0x1 PUSH1 0x1 PUSH1 0xA0 SHL SUB SWAP1 SWAP5 AND DUP4 MSTORE PUSH1 0x5 SWAP1 SWAP4 ADD SWAP1 MSTORE KECCAK256 PUSH1 0x1 ADD SLOAD SWAP1 JUMP JUMPDEST PUSH2 0x440 PUSH2 0xA1E CALLDATASIZE PUSH1 0x4 PUSH2 0x4200 JUMP JUMPDEST PUSH4 0xFFFFFFFF SWAP1 SWAP3 AND PUSH1 0x0 SWAP1 DUP2 MSTORE PUSH1 0xD PUSH1 0x20 SWAP1 DUP2 MSTORE PUSH1 0x40 DUP1 DUP4 KECCAK256 PUSH1 0x1 PUSH1 0x1 PUSH1 0xA0 SHL SUB SWAP1 SWAP5 AND DUP4 MSTORE PUSH1 0x5 SWAP1 SWAP4 ADD DUP2 MSTORE DUP3 DUP3 KECCAK256 SWAP4 DUP3 MSTORE PUSH1 0x7 SWAP1 SWAP4 ADD SWAP1 SWAP3 MSTORE SWAP1 KECCAK256 SLOAD SWAP1 JUMP JUMPDEST PUSH2 0x440 PUSH2 0xA6D CALLDATASIZE PUSH1 0x4 PUSH2 0x41BD JUMP JUMPDEST PUSH4 0xFFFFFFFF AND PUSH1 0x0 SWAP1 DUP2 MSTORE PUSH1 0xD PUSH1 0x20 MSTORE PUSH1 0x40 SWAP1 KECCAK256 PUSH1 0x1 ADD SLOAD SWAP1 JUMP JUMPDEST PUSH2 0x440 PUSH2 0x2BC6 JUMP JUMPDEST PUSH2 0x741 PUSH2 0xA9E CALLDATASIZE PUSH1 0x4 PUSH2 0x408A JUMP JUMPDEST PUSH2 0x2C63 JUMP JUMPDEST PUSH2 0x3E8 PUSH2 0x2D32 JUMP JUMPDEST PUSH1 0x0 PUSH1 0x1 PUSH1 0x1 PUSH1 0xE0 SHL SUB NOT DUP3 AND PUSH4 0x7965DB0B PUSH1 0xE0 SHL EQ DUP1 PUSH2 0xADC JUMPI POP PUSH4 0x1FFC9A7 PUSH1 0xE0 SHL PUSH1 0x1 PUSH1 0x1 PUSH1 0xE0 SHL SUB NOT DUP4 AND EQ JUMPDEST SWAP3 SWAP2 POP POP JUMP JUMPDEST PUSH1 0x0 PUSH2 0xAFC PUSH1 0x0 DUP1 MLOAD PUSH1 0x20 PUSH2 0x45D0 DUP4 CODECOPY DUP2 MLOAD SWAP2 MSTORE CALLER PUSH2 0x1D96 JUMP JUMPDEST PUSH2 0xB21 JUMPI PUSH1 0x40 MLOAD PUSH3 0x461BCD PUSH1 0xE5 SHL DUP2 MSTORE PUSH1 0x4 ADD PUSH2 0xB18 SWAP1 PUSH2 0x4477 JUMP JUMPDEST PUSH1 0x40 MLOAD DUP1 SWAP2 SUB SWAP1 REVERT JUMPDEST POP PUSH4 0xFFFFFFFF DUP3 AND PUSH1 0x0 SWAP1 DUP2 MSTORE PUSH1 0xD PUSH1 0x20 MSTORE PUSH1 0x40 DUP1 DUP3 KECCAK256 PUSH1 0x3 ADD DUP4 SWAP1 SSTORE MLOAD PUSH1 0x1 SWAP2 DUP4 SWAP2 PUSH32 0x840BDCA8F6C2CDE252F010DB5E96E3B79DEB9D4CF7C64989F75FF7325B0D3C60 SWAP2 SWAP1 LOG2 SWAP3 SWAP2 POP POP JUMP JUMPDEST PUSH1 0x0 PUSH2 0xB88 PUSH1 0x0 DUP1 MLOAD PUSH1 0x20 PUSH2 0x45D0 DUP4 CODECOPY DUP2 MLOAD SWAP2 MSTORE CALLER PUSH2 0x1D96 JUMP JUMPDEST PUSH2 0xBA4 JUMPI PUSH1 0x40 MLOAD PUSH3 0x461BCD PUSH1 0xE5 SHL DUP2 MSTORE PUSH1 0x4 ADD PUSH2 0xB18 SWAP1 PUSH2 0x4477 JUMP JUMPDEST PUSH2 0xBB0 PUSH1 0xB DUP5 DUP5 PUSH2 0x3E12 JUMP JUMPDEST POP POP PUSH1 0x40 MLOAD PUSH1 0x1 SWAP1 PUSH32 0x89DBE1E8A053A391BECC713B9C088B57CF1855CF857803E49EAAE2F8FBC3B1CD SWAP1 PUSH1 0x0 SWAP1 LOG1 SWAP3 SWAP2 POP POP JUMP JUMPDEST PUSH1 0x1 SLOAD PUSH1 0x0 SWAP1 PUSH1 0x1 PUSH1 0xA0 SHL DUP2 DIV PUSH4 0xFFFFFFFF AND SWAP1 PUSH1 0x1 PUSH1 0x1 PUSH1 0xA0 SHL SUB AND CALLER EQ PUSH2 0xC8C JUMPI PUSH1 0x40 MLOAD PUSH3 0x461BCD PUSH1 0xE5 SHL DUP2 MSTORE PUSH1 0x20 PUSH1 0x4 DUP3 ADD MSTORE PUSH1 0x4E PUSH1 0x24 DUP3 ADD MSTORE PUSH32 0x436F6D7065746974696F6E202D2064656372656173655374616B653A20506C65 PUSH1 0x44 DUP3 ADD MSTORE PUSH32 0x6173652063616C6C20746869732066756E6374696F6E20766961207468652074 PUSH1 0x64 DUP3 ADD MSTORE PUSH14 0x37B5B2B71031B7B73A3930B1BA17 PUSH1 0x91 SHL PUSH1 0x84 DUP3 ADD MSTORE PUSH1 0xA4 ADD PUSH2 0xB18 JUMP JUMPDEST PUSH1 0x1 SLOAD PUSH1 0x1 PUSH1 0xA0 SHL SWAP1 DIV PUSH4 0xFFFFFFFF AND PUSH1 0x0 SWAP1 DUP2 MSTORE PUSH1 0xD PUSH1 0x20 MSTORE PUSH1 0x40 SWAP1 KECCAK256 PUSH1 0x4 ADD SLOAD PUSH1 0xFF AND PUSH1 0x2 EQ ISZERO PUSH2 0xD5C JUMPI PUSH1 0x40 MLOAD PUSH3 0x461BCD PUSH1 0xE5 SHL DUP2 MSTORE PUSH1 0x20 PUSH1 0x4 DUP3 ADD MSTORE PUSH1 0x66 PUSH1 0x24 DUP3 ADD MSTORE PUSH32 0x436F6D7065746974696F6E202D2064656372656173655374616B653A20506C65 PUSH1 0x44 DUP3 ADD MSTORE PUSH32 0x617365207761697420666F7220746865207374616B696E6720706572696F6420 PUSH1 0x64 DUP3 ADD MSTORE PUSH32 0x746F20756E6C6F636B206265666F7265206D6F64696679696E6720796F757220 PUSH1 0x84 DUP3 ADD MSTORE PUSH6 0x39BA30B5B297 PUSH1 0xD1 SHL PUSH1 0xA4 DUP3 ADD MSTORE PUSH1 0xC4 ADD PUSH2 0xB18 JUMP JUMPDEST PUSH1 0x1 PUSH1 0x1 PUSH1 0xA0 SHL SUB DUP5 AND PUSH1 0x0 SWAP1 DUP2 MSTORE PUSH1 0xC PUSH1 0x20 MSTORE PUSH1 0x40 SWAP1 KECCAK256 SLOAD DUP1 DUP5 GT ISZERO PUSH2 0xDEB JUMPI PUSH1 0x40 MLOAD PUSH3 0x461BCD PUSH1 0xE5 SHL DUP2 MSTORE PUSH1 0x20 PUSH1 0x4 DUP3 ADD MSTORE PUSH1 0x3F PUSH1 0x24 DUP3 ADD MSTORE PUSH32 0x436F6D7065746974696F6E202D2064656372656173655374616B653A20496E73 PUSH1 0x44 DUP3 ADD MSTORE PUSH32 0x756666696369656E742066756E647320666F72207769746864726177616C2E00 PUSH1 0x64 DUP3 ADD MSTORE PUSH1 0x84 ADD PUSH2 0xB18 JUMP JUMPDEST PUSH4 0xFFFFFFFF DUP3 AND PUSH1 0x0 SWAP1 DUP2 MSTORE PUSH1 0xD PUSH1 0x20 SWAP1 DUP2 MSTORE PUSH1 0x40 DUP1 DUP4 KECCAK256 PUSH1 0x1 PUSH1 0x1 PUSH1 0xA0 SHL SUB DUP10 AND DUP5 MSTORE PUSH1 0x5 ADD SWAP1 SWAP2 MSTORE SWAP1 KECCAK256 SLOAD ISZERO PUSH2 0xF1C JUMPI PUSH1 0x2 SLOAD PUSH2 0xE2A DUP6 DUP4 PUSH2 0x4505 JUMP JUMPDEST LT ISZERO PUSH2 0xEE1 JUMPI PUSH1 0x40 MLOAD PUSH3 0x461BCD PUSH1 0xE5 SHL DUP2 MSTORE PUSH1 0x20 PUSH1 0x4 DUP3 ADD MSTORE PUSH1 0x74 PUSH1 0x24 DUP3 ADD MSTORE PUSH32 0x436F6D7065746974696F6E202D2064656372656173655374616B653A20596F75 PUSH1 0x44 DUP3 ADD MSTORE PUSH32 0x206D6179206E6F74206C6F77657220796F7572207374616B652062656C6F7720 PUSH1 0x64 DUP3 ADD MSTORE PUSH32 0x746865207468726573686F6C64207768696C6520796F75206861766520616E20 PUSH1 0x84 DUP3 ADD MSTORE PUSH20 0x32BC34B9BA34B7339039BAB136B4B9B9B4B7B717 PUSH1 0x61 SHL PUSH1 0xA4 DUP3 ADD MSTORE PUSH1 0xC4 ADD PUSH2 0xB18 JUMP JUMPDEST PUSH2 0xEEB DUP5 DUP3 PUSH2 0x4505 JUMP JUMPDEST PUSH4 0xFFFFFFFF DUP4 AND PUSH1 0x0 SWAP1 DUP2 MSTORE PUSH1 0xD PUSH1 0x20 SWAP1 DUP2 MSTORE PUSH1 0x40 DUP1 DUP4 KECCAK256 PUSH1 0x1 PUSH1 0x1 PUSH1 0xA0 SHL SUB DUP11 AND DUP5 MSTORE PUSH1 0x5 ADD SWAP1 SWAP2 MSTORE SWAP1 KECCAK256 PUSH1 0x1 ADD SSTORE JUMPDEST PUSH2 0xF26 DUP5 DUP3 PUSH2 0x4505 JUMP JUMPDEST PUSH1 0x1 PUSH1 0x1 PUSH1 0xA0 SHL SUB DUP7 AND PUSH1 0x0 SWAP1 DUP2 MSTORE PUSH1 0xC PUSH1 0x20 MSTORE PUSH1 0x40 DUP2 KECCAK256 SWAP2 SWAP1 SWAP2 SSTORE PUSH1 0x5 DUP1 SLOAD DUP7 SWAP3 SWAP1 PUSH2 0xF54 SWAP1 DUP5 SWAP1 PUSH2 0x4505 JUMP JUMPDEST SWAP1 SWAP2 SSTORE POP POP PUSH1 0x1 SLOAD PUSH1 0x40 MLOAD PUSH4 0xA9059CBB PUSH1 0xE0 SHL DUP2 MSTORE PUSH1 0x1 PUSH1 0x1 PUSH1 0xA0 SHL SUB DUP8 DUP2 AND PUSH1 0x4 DUP4 ADD MSTORE PUSH1 0x24 DUP3 ADD DUP8 SWAP1 MSTORE SWAP1 SWAP2 AND SWAP1 PUSH4 0xA9059CBB SWAP1 PUSH1 0x44 ADD PUSH1 0x20 PUSH1 0x40 MLOAD DUP1 DUP4 SUB DUP2 PUSH1 0x0 DUP8 DUP1 EXTCODESIZE ISZERO DUP1 ISZERO PUSH2 0xFA7 JUMPI PUSH1 0x0 DUP1 REVERT JUMPDEST POP GAS CALL ISZERO DUP1 ISZERO PUSH2 0xFBB JUMPI RETURNDATASIZE PUSH1 0x0 DUP1 RETURNDATACOPY RETURNDATASIZE PUSH1 0x0 REVERT JUMPDEST POP POP POP POP PUSH1 0x40 MLOAD RETURNDATASIZE PUSH1 0x1F NOT PUSH1 0x1F DUP3 ADD AND DUP3 ADD DUP1 PUSH1 0x40 MSTORE POP DUP2 ADD SWAP1 PUSH2 0xFDF SWAP2 SWAP1 PUSH2 0x4027 JUMP JUMPDEST SWAP3 POP DUP4 DUP6 PUSH1 0x1 PUSH1 0x1 PUSH1 0xA0 SHL SUB AND PUSH32 0x700865370FFB2A65A2B0242E6A64B21AC907ED5ECD46C9CFFC729C177B2B1C69 PUSH1 0x40 MLOAD PUSH1 0x40 MLOAD DUP1 SWAP2 SUB SWAP1 LOG3 POP POP SWAP3 SWAP2 POP POP JUMP JUMPDEST PUSH1 0x0 PUSH2 0x103A PUSH1 0x0 DUP1 MLOAD PUSH1 0x20 PUSH2 0x45D0 DUP4 CODECOPY DUP2 MLOAD SWAP2 MSTORE CALLER PUSH2 0x1D96 JUMP JUMPDEST PUSH2 0x1056 JUMPI PUSH1 0x40 MLOAD PUSH3 0x461BCD PUSH1 0xE5 SHL DUP2 MSTORE PUSH1 0x4 ADD PUSH2 0xB18 SWAP1 PUSH2 0x4477 JUMP JUMPDEST PUSH4 0xFFFFFFFF DUP5 AND PUSH1 0x0 SWAP1 DUP2 MSTORE PUSH1 0xD PUSH1 0x20 SWAP1 DUP2 MSTORE PUSH1 0x40 DUP1 DUP4 KECCAK256 DUP7 DUP5 MSTORE PUSH1 0x6 ADD SWAP1 SWAP2 MSTORE SWAP1 KECCAK256 DUP3 SWAP1 SSTORE PUSH1 0x1 JUMPDEST SWAP5 SWAP4 POP POP POP POP JUMP JUMPDEST PUSH1 0x0 DUP3 DUP2 MSTORE PUSH1 0x20 DUP2 SWAP1 MSTORE PUSH1 0x40 SWAP1 KECCAK256 PUSH1 0x1 ADD SLOAD PUSH2 0x10A4 SWAP1 JUMPDEST CALLER PUSH2 0x1D96 JUMP JUMPDEST PUSH2 0x1108 JUMPI PUSH1 0x40 MLOAD PUSH3 0x461BCD PUSH1 0xE5 SHL DUP2 MSTORE PUSH1 0x20 PUSH1 0x4 DUP3 ADD MSTORE PUSH1 0x2F PUSH1 0x24 DUP3 ADD MSTORE PUSH32 0x416363657373436F6E74726F6C3A2073656E646572206D75737420626520616E PUSH1 0x44 DUP3 ADD MSTORE PUSH15 0x818591B5A5B881D1BC819DC985B9D PUSH1 0x8A SHL PUSH1 0x64 DUP3 ADD MSTORE PUSH1 0x84 ADD PUSH2 0xB18 JUMP JUMPDEST PUSH2 0x1112 DUP3 DUP3 PUSH2 0x2E56 JUMP JUMPDEST POP POP JUMP JUMPDEST PUSH1 0x0 PUSH2 0x1130 PUSH1 0x0 DUP1 MLOAD PUSH1 0x20 PUSH2 0x45D0 DUP4 CODECOPY DUP2 MLOAD SWAP2 MSTORE CALLER PUSH2 0x1D96 JUMP JUMPDEST PUSH2 0x114C JUMPI PUSH1 0x40 MLOAD PUSH3 0x461BCD PUSH1 0xE5 SHL DUP2 MSTORE PUSH1 0x4 ADD PUSH2 0xB18 SWAP1 PUSH2 0x4477 JUMP JUMPDEST PUSH2 0xADC PUSH1 0x0 DUP4 PUSH2 0x2EDA JUMP JUMPDEST PUSH1 0x1 PUSH1 0x1 PUSH1 0xA0 SHL SUB DUP2 AND CALLER EQ PUSH2 0x11C7 JUMPI PUSH1 0x40 MLOAD PUSH3 0x461BCD PUSH1 0xE5 SHL DUP2 MSTORE PUSH1 0x20 PUSH1 0x4 DUP3 ADD MSTORE PUSH1 0x2F PUSH1 0x24 DUP3 ADD MSTORE PUSH32 0x416363657373436F6E74726F6C3A2063616E206F6E6C792072656E6F756E6365 PUSH1 0x44 DUP3 ADD MSTORE PUSH15 0x103937B632B9903337B91039B2B633 PUSH1 0x89 SHL PUSH1 0x64 DUP3 ADD MSTORE PUSH1 0x84 ADD PUSH2 0xB18 JUMP JUMPDEST PUSH2 0x1112 DUP3 DUP3 PUSH2 0x30E1 JUMP JUMPDEST PUSH1 0x0 PUSH2 0x11EB PUSH1 0x0 DUP1 MLOAD PUSH1 0x20 PUSH2 0x45D0 DUP4 CODECOPY DUP2 MLOAD SWAP2 MSTORE CALLER PUSH2 0x1D96 JUMP JUMPDEST PUSH2 0x1207 JUMPI PUSH1 0x40 MLOAD PUSH3 0x461BCD PUSH1 0xE5 SHL DUP2 MSTORE PUSH1 0x4 ADD PUSH2 0xB18 SWAP1 PUSH2 0x4477 JUMP JUMPDEST PUSH1 0x1 SLOAD PUSH1 0x1 PUSH1 0xA0 SHL SWAP1 DIV PUSH4 0xFFFFFFFF AND PUSH1 0x0 SWAP1 DUP2 MSTORE PUSH1 0xD PUSH1 0x20 MSTORE PUSH1 0x40 SWAP1 KECCAK256 PUSH1 0x4 SWAP1 DUP2 ADD SLOAD PUSH1 0xFF AND EQ PUSH2 0x12C7 JUMPI PUSH1 0x40 MLOAD PUSH3 0x461BCD PUSH1 0xE5 SHL DUP2 MSTORE PUSH1 0x20 PUSH1 0x4 DUP3 ADD MSTORE PUSH1 0x5F PUSH1 0x24 DUP3 ADD MSTORE PUSH32 0x436F6D7065746974696F6E202D206D6F766552656D61696E646572546F506F6F PUSH1 0x44 DUP3 ADD MSTORE PUSH32 0x6C3A20504C65617365207761697420666F7220746865206368616C6C656E6765 PUSH1 0x64 DUP3 ADD MSTORE PUSH32 0x20746F20636F6D706C657465206265666F72652073706F6E736F72696E672E00 PUSH1 0x84 DUP3 ADD MSTORE PUSH1 0xA4 ADD PUSH2 0xB18 JUMP JUMPDEST PUSH1 0x0 PUSH2 0x12D1 PUSH2 0x2BC6 JUMP JUMPDEST SWAP1 POP PUSH1 0x0 DUP2 GT PUSH2 0x1349 JUMPI PUSH1 0x40 MLOAD PUSH3 0x461BCD PUSH1 0xE5 SHL DUP2 MSTORE PUSH1 0x20 PUSH1 0x4 DUP3 ADD MSTORE PUSH1 0x38 PUSH1 0x24 DUP3 ADD MSTORE PUSH32 0x436F6D7065746974696F6E202D206D6F766552656D61696E646572546F506F6F PUSH1 0x44 DUP3 ADD MSTORE PUSH32 0x6C3A204E6F2072656D61696E64657220746F206D6F76652E0000000000000000 PUSH1 0x64 DUP3 ADD MSTORE PUSH1 0x84 ADD PUSH2 0xB18 JUMP JUMPDEST DUP1 PUSH1 0x3 PUSH1 0x0 DUP3 DUP3 SLOAD PUSH2 0x135B SWAP2 SWAP1 PUSH2 0x44AE JUMP JUMPDEST SWAP1 SWAP2 SSTORE POP POP PUSH1 0x40 MLOAD PUSH1 0x1 SWAP3 POP DUP2 SWAP1 PUSH32 0xDA446D0471A795498335ED4BC219B34921A12CCB87136A9AA03964ADC83EADF3 SWAP1 PUSH1 0x0 SWAP1 LOG2 POP SWAP1 JUMP JUMPDEST PUSH1 0x0 PUSH2 0x13AD PUSH1 0x0 DUP1 MLOAD PUSH1 0x20 PUSH2 0x45D0 DUP4 CODECOPY DUP2 MLOAD SWAP2 MSTORE CALLER PUSH2 0x1D96 JUMP JUMPDEST PUSH2 0x13C9 JUMPI PUSH1 0x40 MLOAD PUSH3 0x461BCD PUSH1 0xE5 SHL DUP2 MSTORE PUSH1 0x4 ADD PUSH2 0xB18 SWAP1 PUSH2 0x4477 JUMP JUMPDEST PUSH4 0xFFFFFFFF DUP8 AND PUSH1 0x0 SWAP1 DUP2 MSTORE PUSH1 0xD PUSH1 0x20 MSTORE PUSH1 0x40 SWAP1 KECCAK256 PUSH1 0x4 ADD SLOAD PUSH1 0x3 PUSH1 0xFF SWAP1 SWAP2 AND LT ISZERO PUSH2 0x146D JUMPI PUSH1 0x40 MLOAD PUSH3 0x461BCD PUSH1 0xE5 SHL DUP2 MSTORE PUSH1 0x20 PUSH1 0x4 DUP3 ADD MSTORE PUSH1 0x47 PUSH1 0x24 DUP3 ADD MSTORE PUSH32 0x436F6D7065746974696F6E202D20757064617465496E666F726D6174696F6E42 PUSH1 0x44 DUP3 ADD MSTORE PUSH32 0x617463683A204368616C6C656E676520697320696E20756E6578706563746564 PUSH1 0x64 DUP3 ADD MSTORE PUSH7 0x1039BA30BA3297 PUSH1 0xC9 SHL PUSH1 0x84 DUP3 ADD MSTORE PUSH1 0xA4 ADD PUSH2 0xB18 JUMP JUMPDEST DUP5 DUP3 EQ PUSH2 0x1501 JUMPI PUSH1 0x40 MLOAD PUSH3 0x461BCD PUSH1 0xE5 SHL DUP2 MSTORE PUSH1 0x20 PUSH1 0x4 DUP3 ADD MSTORE PUSH1 0x56 PUSH1 0x24 DUP3 ADD MSTORE PUSH32 0x436F6D7065746974696F6E202D20757064617465496E666F726D6174696F6E42 PUSH1 0x44 DUP3 ADD MSTORE PUSH32 0x617463683A204E756D626572206F66207061727469636970616E747320616E64 PUSH1 0x64 DUP3 ADD MSTORE PUSH22 0x103B30B63AB2B99030B932903234B33332B932B73A17 PUSH1 0x51 SHL PUSH1 0x84 DUP3 ADD MSTORE PUSH1 0xA4 ADD PUSH2 0xB18 JUMP JUMPDEST PUSH1 0x0 JUMPDEST DUP6 DUP2 LT ISZERO PUSH2 0x15C8 JUMPI DUP4 DUP4 DUP3 DUP2 DUP2 LT PUSH2 0x152C JUMPI PUSH4 0x4E487B71 PUSH1 0xE0 SHL PUSH1 0x0 MSTORE PUSH1 0x32 PUSH1 0x4 MSTORE PUSH1 0x24 PUSH1 0x0 REVERT JUMPDEST SWAP1 POP PUSH1 0x20 MUL ADD CALLDATALOAD PUSH1 0xD PUSH1 0x0 DUP11 PUSH4 0xFFFFFFFF AND PUSH4 0xFFFFFFFF AND DUP2 MSTORE PUSH1 0x20 ADD SWAP1 DUP2 MSTORE PUSH1 0x20 ADD PUSH1 0x0 KECCAK256 PUSH1 0x5 ADD PUSH1 0x0 DUP10 DUP10 DUP6 DUP2 DUP2 LT PUSH2 0x1577 JUMPI PUSH4 0x4E487B71 PUSH1 0xE0 SHL PUSH1 0x0 MSTORE PUSH1 0x32 PUSH1 0x4 MSTORE PUSH1 0x24 PUSH1 0x0 REVERT JUMPDEST SWAP1 POP PUSH1 0x20 MUL ADD PUSH1 0x20 DUP2 ADD SWAP1 PUSH2 0x158C SWAP2 SWAP1 PUSH2 0x3F25 JUMP JUMPDEST PUSH1 0x1 PUSH1 0x1 PUSH1 0xA0 SHL SUB AND DUP2 MSTORE PUSH1 0x20 DUP1 DUP3 ADD SWAP3 SWAP1 SWAP3 MSTORE PUSH1 0x40 SWAP1 DUP2 ADD PUSH1 0x0 SWAP1 DUP2 KECCAK256 DUP10 DUP3 MSTORE PUSH1 0x7 ADD SWAP1 SWAP3 MSTORE SWAP1 KECCAK256 SSTORE DUP1 PUSH2 0x15C0 DUP2 PUSH2 0x457A JUMP JUMPDEST SWAP2 POP POP PUSH2 0x1504 JUMP JUMPDEST POP POP PUSH1 0x40 MLOAD PUSH1 0x1 SWAP1 DUP5 SWAP1 PUSH4 0xFFFFFFFF DUP10 AND SWAP1 PUSH32 0xDFC0E8D429222115BCDEAE8834D5FBCECC360F743768FC2A9693A30A379999E9 SWAP1 PUSH1 0x0 SWAP1 LOG3 SWAP7 SWAP6 POP POP POP POP POP POP JUMP JUMPDEST PUSH1 0x0 PUSH2 0x1624 PUSH1 0x0 DUP1 MLOAD PUSH1 0x20 PUSH2 0x45D0 DUP4 CODECOPY DUP2 MLOAD SWAP2 MSTORE CALLER PUSH2 0x1D96 JUMP JUMPDEST PUSH2 0x1640 JUMPI PUSH1 0x40 MLOAD PUSH3 0x461BCD PUSH1 0xE5 SHL DUP2 MSTORE PUSH1 0x4 ADD PUSH2 0xB18 SWAP1 PUSH2 0x4477 JUMP JUMPDEST PUSH1 0x1 DUP1 SLOAD PUSH1 0x1 PUSH1 0xA0 SHL SWAP1 DIV PUSH4 0xFFFFFFFF AND PUSH1 0x0 DUP2 DUP2 MSTORE PUSH1 0xD PUSH1 0x20 MSTORE PUSH1 0x40 SWAP1 KECCAK256 PUSH1 0x4 ADD SLOAD SWAP1 SWAP2 PUSH1 0xFF SWAP1 SWAP2 AND EQ PUSH2 0x16D1 JUMPI PUSH1 0x40 MLOAD PUSH3 0x461BCD PUSH1 0xE5 SHL DUP2 MSTORE PUSH1 0x20 PUSH1 0x4 DUP3 ADD MSTORE PUSH1 0x31 PUSH1 0x24 DUP3 ADD MSTORE PUSH32 0x436F6D7065746974696F6E202D20757064617465446174617365743A20436861 PUSH1 0x44 DUP3 ADD MSTORE PUSH17 0x363632B733B29034B99031B637B9B2B217 PUSH1 0x79 SHL PUSH1 0x64 DUP3 ADD MSTORE PUSH1 0x84 ADD PUSH2 0xB18 JUMP JUMPDEST DUP4 PUSH2 0x1744 JUMPI PUSH1 0x40 MLOAD PUSH3 0x461BCD PUSH1 0xE5 SHL DUP2 MSTORE PUSH1 0x20 PUSH1 0x4 DUP3 ADD MSTORE PUSH1 0x3C PUSH1 0x24 DUP3 ADD MSTORE PUSH32 0x436F6D7065746974696F6E202D20757064617465446174617365743A204D7573 PUSH1 0x44 DUP3 ADD MSTORE PUSH32 0x742068617665207072652D6578697374696E6720646174617365742E00000000 PUSH1 0x64 DUP3 ADD MSTORE PUSH1 0x84 ADD PUSH2 0xB18 JUMP JUMPDEST PUSH2 0x107F DUP2 DUP6 DUP6 PUSH2 0x3146 JUMP JUMPDEST PUSH1 0x60 PUSH1 0x0 PUSH2 0x175D DUP5 DUP5 PUSH2 0x4505 JUMP JUMPDEST PUSH8 0xFFFFFFFFFFFFFFFF DUP2 GT ISZERO PUSH2 0x1783 JUMPI PUSH4 0x4E487B71 PUSH1 0xE0 SHL PUSH1 0x0 MSTORE PUSH1 0x41 PUSH1 0x4 MSTORE PUSH1 0x24 PUSH1 0x0 REVERT JUMPDEST PUSH1 0x40 MLOAD SWAP1 DUP1 DUP3 MSTORE DUP1 PUSH1 0x20 MUL PUSH1 0x20 ADD DUP3 ADD PUSH1 0x40 MSTORE DUP1 ISZERO PUSH2 0x17AC JUMPI DUP2 PUSH1 0x20 ADD PUSH1 0x20 DUP3 MUL DUP1 CALLDATASIZE DUP4 CALLDATACOPY ADD SWAP1 POP JUMPDEST POP PUSH4 0xFFFFFFFF DUP7 AND PUSH1 0x0 SWAP1 DUP2 MSTORE PUSH1 0xD PUSH1 0x20 MSTORE PUSH1 0x40 SWAP1 KECCAK256 SWAP1 SWAP2 POP PUSH1 0x7 ADD DUP5 JUMPDEST DUP5 DUP2 LT ISZERO PUSH2 0x182F JUMPI PUSH2 0x17DC DUP3 DUP3 PUSH2 0x32A6 JUMP JUMPDEST DUP4 PUSH2 0x17E7 DUP9 DUP5 PUSH2 0x4505 JUMP JUMPDEST DUP2 MLOAD DUP2 LT PUSH2 0x1805 JUMPI PUSH4 0x4E487B71 PUSH1 0xE0 SHL PUSH1 0x0 MSTORE PUSH1 0x32 PUSH1 0x4 MSTORE PUSH1 0x24 PUSH1 0x0 REVERT JUMPDEST PUSH1 0x1 PUSH1 0x1 PUSH1 0xA0 SHL SUB SWAP1 SWAP3 AND PUSH1 0x20 SWAP3 DUP4 MUL SWAP2 SWAP1 SWAP2 ADD SWAP1 SWAP2 ADD MSTORE DUP1 PUSH2 0x1827 DUP2 PUSH2 0x457A JUMP JUMPDEST SWAP2 POP POP PUSH2 0x17CA JUMP JUMPDEST POP SWAP1 SWAP6 SWAP5 POP POP POP POP POP JUMP JUMPDEST PUSH1 0x0 PUSH2 0x1854 PUSH1 0x0 DUP1 MLOAD PUSH1 0x20 PUSH2 0x45D0 DUP4 CODECOPY DUP2 MLOAD SWAP2 MSTORE CALLER PUSH2 0x1D96 JUMP JUMPDEST PUSH2 0x1870 JUMPI PUSH1 0x40 MLOAD PUSH3 0x461BCD PUSH1 0xE5 SHL DUP2 MSTORE PUSH1 0x4 ADD PUSH2 0xB18 SWAP1 PUSH2 0x4477 JUMP JUMPDEST POP PUSH1 0x4 DUP2 SWAP1 SSTORE PUSH1 0x40 MLOAD PUSH1 0x1 SWAP1 DUP3 SWAP1 PUSH32 0x73E002420A7DEFB91818836F9AAA83222B749A40C213C7C0FBCCAACDD259E052 SWAP1 PUSH1 0x0 SWAP1 LOG2 SWAP2 SWAP1 POP JUMP JUMPDEST PUSH1 0x1 SLOAD PUSH1 0x0 SWAP1 PUSH1 0x1 PUSH1 0xA0 SHL DUP2 DIV PUSH4 0xFFFFFFFF AND SWAP1 PUSH1 0x1 PUSH1 0x1 PUSH1 0xA0 SHL SUB AND CALLER EQ PUSH2 0x1951 JUMPI PUSH1 0x40 MLOAD PUSH3 0x461BCD PUSH1 0xE5 SHL DUP2 MSTORE PUSH1 0x20 PUSH1 0x4 DUP3 ADD MSTORE PUSH1 0x4E PUSH1 0x24 DUP3 ADD MSTORE PUSH32 0x436F6D7065746974696F6E202D20696E6372656173655374616B653A20506C65 PUSH1 0x44 DUP3 ADD MSTORE PUSH32 0x6173652063616C6C20746869732066756E6374696F6E20766961207468652074 PUSH1 0x64 DUP3 ADD MSTORE PUSH14 0x37B5B2B71031B7B73A3930B1BA17 PUSH1 0x91 SHL PUSH1 0x84 DUP3 ADD MSTORE PUSH1 0xA4 ADD PUSH2 0xB18 JUMP JUMPDEST PUSH4 0xFFFFFFFF DUP2 AND PUSH1 0x0 SWAP1 DUP2 MSTORE PUSH1 0xD PUSH1 0x20 MSTORE PUSH1 0x40 SWAP1 KECCAK256 PUSH1 0x4 ADD SLOAD PUSH1 0xFF AND PUSH1 0x2 EQ ISZERO PUSH2 0x1A18 JUMPI PUSH1 0x40 MLOAD PUSH3 0x461BCD PUSH1 0xE5 SHL DUP2 MSTORE PUSH1 0x20 PUSH1 0x4 DUP3 ADD MSTORE PUSH1 0x66 PUSH1 0x24 DUP3 ADD MSTORE PUSH32 0x436F6D7065746974696F6E202D20696E6372656173655374616B653A20506C65 PUSH1 0x44 DUP3 ADD MSTORE PUSH32 0x617365207761697420666F7220746865207374616B696E6720706572696F6420 PUSH1 0x64 DUP3 ADD MSTORE PUSH32 0x746F20756E6C6F636B206265666F7265206D6F64696679696E6720796F757220 PUSH1 0x84 DUP3 ADD MSTORE PUSH6 0x39BA30B5B297 PUSH1 0xD1 SHL PUSH1 0xA4 DUP3 ADD MSTORE PUSH1 0xC4 ADD PUSH2 0xB18 JUMP JUMPDEST PUSH1 0x1 PUSH1 0x1 PUSH1 0xA0 SHL SUB DUP5 AND PUSH1 0x0 DUP2 DUP2 MSTORE PUSH1 0xC PUSH1 0x20 SWAP1 DUP2 MSTORE PUSH1 0x40 DUP1 DUP4 KECCAK256 SLOAD PUSH4 0xFFFFFFFF DUP7 AND DUP5 MSTORE PUSH1 0xD DUP4 MSTORE DUP2 DUP5 KECCAK256 SWAP5 DUP5 MSTORE PUSH1 0x5 SWAP1 SWAP5 ADD SWAP1 SWAP2 MSTORE SWAP1 KECCAK256 SLOAD ISZERO PUSH2 0x1A92 JUMPI PUSH2 0x1A61 DUP5 DUP3 PUSH2 0x44AE JUMP JUMPDEST PUSH4 0xFFFFFFFF DUP4 AND PUSH1 0x0 SWAP1 DUP2 MSTORE PUSH1 0xD PUSH1 0x20 SWAP1 DUP2 MSTORE PUSH1 0x40 DUP1 DUP4 KECCAK256 PUSH1 0x1 PUSH1 0x1 PUSH1 0xA0 SHL SUB DUP11 AND DUP5 MSTORE PUSH1 0x5 ADD SWAP1 SWAP2 MSTORE SWAP1 KECCAK256 PUSH1 0x1 ADD SSTORE JUMPDEST PUSH2 0x1A9C DUP5 DUP3 PUSH2 0x44AE JUMP JUMPDEST PUSH1 0x1 PUSH1 0x1 PUSH1 0xA0 SHL SUB DUP7 AND PUSH1 0x0 SWAP1 DUP2 MSTORE PUSH1 0xC PUSH1 0x20 MSTORE PUSH1 0x40 DUP2 KECCAK256 SWAP2 SWAP1 SWAP2 SSTORE PUSH1 0x5 DUP1 SLOAD DUP7 SWAP3 SWAP1 PUSH2 0x1ACA SWAP1 DUP5 SWAP1 PUSH2 0x44AE JUMP JUMPDEST SWAP1 SWAP2 SSTORE POP POP PUSH1 0x40 MLOAD PUSH1 0x1 SWAP4 POP DUP5 SWAP1 PUSH1 0x1 PUSH1 0x1 PUSH1 0xA0 SHL SUB DUP8 AND SWAP1 PUSH32 0x8B0ED825817A2E696C9A931715AF4609FC60E1701F09C89EE7645130E937EB2D SWAP1 PUSH1 0x0 SWAP1 LOG3 POP POP SWAP3 SWAP2 POP POP JUMP JUMPDEST PUSH1 0x0 PUSH2 0x1B2B PUSH1 0x0 DUP1 MLOAD PUSH1 0x20 PUSH2 0x45D0 DUP4 CODECOPY DUP2 MLOAD SWAP2 MSTORE CALLER PUSH2 0x1D96 JUMP JUMPDEST PUSH2 0x1B47 JUMPI PUSH1 0x40 MLOAD PUSH3 0x461BCD PUSH1 0xE5 SHL DUP2 MSTORE PUSH1 0x4 ADD PUSH2 0xB18 SWAP1 PUSH2 0x4477 JUMP JUMPDEST POP PUSH1 0xA DUP2 SWAP1 SSTORE PUSH1 0x40 MLOAD PUSH1 0x1 SWAP1 DUP3 SWAP1 PUSH32 0x211318E1B6942C96EAAD65D5F6C4C520722236466093427DE4DACB729BD36DFB SWAP1 PUSH1 0x0 SWAP1 LOG2 SWAP2 SWAP1 POP JUMP JUMPDEST PUSH1 0x0 PUSH2 0x1B9A PUSH1 0x0 DUP1 MLOAD PUSH1 0x20 PUSH2 0x45D0 DUP4 CODECOPY DUP2 MLOAD SWAP2 MSTORE CALLER PUSH2 0x1D96 JUMP JUMPDEST PUSH2 0x1BB6 JUMPI PUSH1 0x40 MLOAD PUSH3 0x461BCD PUSH1 0xE5 SHL DUP2 MSTORE PUSH1 0x4 ADD PUSH2 0xB18 SWAP1 PUSH2 0x4477 JUMP JUMPDEST POP PUSH1 0x2 DUP2 SWAP1 SSTORE PUSH1 0x40 MLOAD PUSH1 0x1 SWAP1 DUP3 SWAP1 PUSH32 0x99C5AF1F811B150D39D592621F8F23F4DF7E5664642F227684973847EB2888BE SWAP1 PUSH1 0x0 SWAP1 LOG2 SWAP2 SWAP1 POP JUMP JUMPDEST PUSH1 0x0 PUSH2 0x1C09 PUSH1 0x0 DUP1 MLOAD PUSH1 0x20 PUSH2 0x45D0 DUP4 CODECOPY DUP2 MLOAD SWAP2 MSTORE CALLER PUSH2 0x1D96 JUMP JUMPDEST PUSH2 0x1C25 JUMPI PUSH1 0x40 MLOAD PUSH3 0x461BCD PUSH1 0xE5 SHL DUP2 MSTORE PUSH1 0x4 ADD PUSH2 0xB18 SWAP1 PUSH2 0x4477 JUMP JUMPDEST PUSH1 0x1 DUP1 SLOAD PUSH1 0x1 PUSH1 0xA0 SHL SWAP1 DIV PUSH4 0xFFFFFFFF AND PUSH1 0x0 DUP2 DUP2 MSTORE PUSH1 0xD PUSH1 0x20 MSTORE PUSH1 0x40 SWAP1 KECCAK256 PUSH1 0x4 ADD SLOAD SWAP1 SWAP2 PUSH1 0xFF SWAP1 SWAP2 AND EQ PUSH2 0x1CB2 JUMPI PUSH1 0x40 MLOAD PUSH3 0x461BCD PUSH1 0xE5 SHL DUP2 MSTORE PUSH1 0x20 PUSH1 0x4 DUP3 ADD MSTORE PUSH1 0x2D PUSH1 0x24 DUP3 ADD MSTORE PUSH32 0x436F6D7065746974696F6E202D207570646174654B65793A204368616C6C656E PUSH1 0x44 DUP3 ADD MSTORE PUSH13 0x33B29034B99031B637B9B2B217 PUSH1 0x99 SHL PUSH1 0x64 DUP3 ADD MSTORE PUSH1 0x84 ADD PUSH2 0xB18 JUMP JUMPDEST DUP4 PUSH2 0x1D1C JUMPI PUSH1 0x40 MLOAD PUSH3 0x461BCD PUSH1 0xE5 SHL DUP2 MSTORE PUSH1 0x20 PUSH1 0x4 DUP3 ADD MSTORE PUSH1 0x34 PUSH1 0x24 DUP3 ADD MSTORE PUSH32 0x436F6D7065746974696F6E202D207570646174654B65793A204D757374206861 PUSH1 0x44 DUP3 ADD MSTORE PUSH20 0x3B329038393296B2BC34B9BA34B7339035B2BC97 PUSH1 0x61 SHL PUSH1 0x64 DUP3 ADD MSTORE PUSH1 0x84 ADD PUSH2 0xB18 JUMP JUMPDEST PUSH2 0x107F DUP2 DUP6 DUP6 PUSH2 0x32B2 JUMP JUMPDEST PUSH1 0x0 PUSH2 0x1D41 PUSH1 0x0 DUP1 MLOAD PUSH1 0x20 PUSH2 0x45D0 DUP4 CODECOPY DUP2 MLOAD SWAP2 MSTORE CALLER PUSH2 0x1D96 JUMP JUMPDEST PUSH2 0x1D5D JUMPI PUSH1 0x40 MLOAD PUSH3 0x461BCD PUSH1 0xE5 SHL DUP2 MSTORE PUSH1 0x4 ADD PUSH2 0xB18 SWAP1 PUSH2 0x4477 JUMP JUMPDEST POP PUSH1 0x9 DUP2 SWAP1 SSTORE PUSH1 0x40 MLOAD PUSH1 0x1 SWAP1 DUP3 SWAP1 PUSH32 0x94327140B3BB3BB989865FEF53B345CD1DDD7991B30E3233137AB646448FBEB5 SWAP1 PUSH1 0x0 SWAP1 LOG2 SWAP2 SWAP1 POP JUMP JUMPDEST PUSH1 0x0 SWAP2 DUP3 MSTORE PUSH1 0x20 DUP3 DUP2 MSTORE PUSH1 0x40 DUP1 DUP5 KECCAK256 PUSH1 0x1 PUSH1 0x1 PUSH1 0xA0 SHL SUB SWAP4 SWAP1 SWAP4 AND DUP5 MSTORE SWAP2 SWAP1 MSTORE SWAP1 KECCAK256 SLOAD PUSH1 0xFF AND SWAP1 JUMP JUMPDEST PUSH4 0xFFFFFFFF DUP3 AND PUSH1 0x0 SWAP1 DUP2 MSTORE PUSH1 0xD PUSH1 0x20 SWAP1 DUP2 MSTORE PUSH1 0x40 DUP1 DUP4 KECCAK256 PUSH1 0x1 PUSH1 0x1 PUSH1 0xA0 SHL SUB DUP6 AND DUP5 MSTORE PUSH1 0x5 ADD SWAP1 SWAP2 MSTORE DUP2 KECCAK256 PUSH1 0x4 DUP2 ADD SLOAD PUSH1 0x3 DUP3 ADD SLOAD PUSH1 0x2 SWAP1 SWAP3 ADD SLOAD SWAP1 SWAP2 PUSH2 0x1E06 SWAP2 PUSH2 0x44AE JUMP JUMPDEST PUSH2 0x1E10 SWAP2 SWAP1 PUSH2 0x44AE JUMP JUMPDEST SWAP4 SWAP3 POP POP POP JUMP JUMPDEST CALLER PUSH1 0x0 SWAP1 DUP2 MSTORE PUSH1 0xC PUSH1 0x20 MSTORE PUSH1 0x40 DUP2 KECCAK256 SLOAD PUSH1 0x2 SLOAD DUP2 LT ISZERO PUSH2 0x1E9F JUMPI PUSH1 0x40 MLOAD PUSH3 0x461BCD PUSH1 0xE5 SHL DUP2 MSTORE PUSH1 0x20 PUSH1 0x4 DUP3 ADD MSTORE PUSH1 0x3D PUSH1 0x24 DUP3 ADD MSTORE PUSH32 0x436F6D7065746974696F6E202D207375626D69744E657750726564696374696F PUSH1 0x44 DUP3 ADD MSTORE PUSH32 0x6E733A205374616B652069732062656C6F77207468726573686F6C642E000000 PUSH1 0x64 DUP3 ADD MSTORE PUSH1 0x84 ADD PUSH2 0xB18 JUMP JUMPDEST PUSH2 0x1EAA PUSH1 0x0 DUP5 PUSH2 0x340E JUMP JUMPDEST PUSH4 0xFFFFFFFF DUP2 AND PUSH1 0x0 SWAP1 DUP2 MSTORE PUSH1 0xD PUSH1 0x20 MSTORE PUSH1 0x40 SWAP1 KECCAK256 SWAP1 SWAP3 POP PUSH2 0x1ECF SWAP1 PUSH1 0x7 ADD CALLER PUSH2 0x35FA JUMP JUMPDEST POP PUSH4 0xFFFFFFFF DUP3 AND PUSH1 0x0 SWAP1 DUP2 MSTORE PUSH1 0xD PUSH1 0x20 SWAP1 DUP2 MSTORE PUSH1 0x40 DUP1 DUP4 KECCAK256 CALLER DUP5 MSTORE PUSH1 0x5 ADD SWAP1 SWAP2 MSTORE SWAP1 KECCAK256 PUSH1 0x1 ADD SSTORE SWAP2 SWAP1 POP JUMP JUMPDEST PUSH1 0xE SLOAD PUSH2 0x100 SWAP1 DIV PUSH1 0xFF AND DUP1 PUSH2 0x1F15 JUMPI POP PUSH1 0xE SLOAD PUSH1 0xFF AND ISZERO JUMPDEST PUSH2 0x1F78 JUMPI PUSH1 0x40 MLOAD PUSH3 0x461BCD PUSH1 0xE5 SHL DUP2 MSTORE PUSH1 0x20 PUSH1 0x4 DUP3 ADD MSTORE PUSH1 0x2E PUSH1 0x24 DUP3 ADD MSTORE PUSH32 0x496E697469616C697A61626C653A20636F6E747261637420697320616C726561 PUSH1 0x44 DUP3 ADD MSTORE PUSH14 0x191E481A5B9A5D1A585B1A5E9959 PUSH1 0x92 SHL PUSH1 0x64 DUP3 ADD MSTORE PUSH1 0x84 ADD PUSH2 0xB18 JUMP JUMPDEST PUSH1 0xE SLOAD PUSH2 0x100 SWAP1 DIV PUSH1 0xFF AND ISZERO DUP1 ISZERO PUSH2 0x1F9A JUMPI PUSH1 0xE DUP1 SLOAD PUSH2 0xFFFF NOT AND PUSH2 0x101 OR SWAP1 SSTORE JUMPDEST PUSH1 0x1 PUSH1 0x1 PUSH1 0xA0 SHL SUB DUP3 AND PUSH2 0x1FF0 JUMPI PUSH1 0x40 MLOAD PUSH3 0x461BCD PUSH1 0xE5 SHL DUP2 MSTORE PUSH1 0x20 PUSH1 0x4 DUP3 ADD MSTORE PUSH1 0x17 PUSH1 0x24 DUP3 ADD MSTORE PUSH32 0x4E6F20746F6B656E206164647265737320666F756E642E000000000000000000 PUSH1 0x44 DUP3 ADD MSTORE PUSH1 0x64 ADD PUSH2 0xB18 JUMP JUMPDEST PUSH2 0x1FF8 PUSH2 0x360F JUMP JUMPDEST PUSH1 0x2 DUP5 SWAP1 SSTORE PUSH1 0x4 DUP4 DUP2 SSTORE PUSH1 0x1 DUP1 SLOAD PUSH1 0x1 PUSH1 0x1 PUSH1 0xC0 SHL SUB NOT AND PUSH1 0x1 PUSH1 0x1 PUSH1 0xA0 SHL SUB DUP6 AND OR SWAP1 DUP2 SWAP1 SSTORE PUSH1 0x1 PUSH1 0xA0 SHL SWAP1 DIV PUSH4 0xFFFFFFFF AND PUSH1 0x0 SWAP1 DUP2 MSTORE PUSH1 0xD PUSH1 0x20 MSTORE PUSH1 0x40 SWAP1 KECCAK256 DUP2 ADD DUP1 SLOAD PUSH1 0xFF NOT AND SWAP1 SWAP2 OR SWAP1 SSTORE PUSH8 0x2C68AF0BB140000 PUSH1 0x9 SSTORE PUSH8 0x853A0D2313C0000 PUSH1 0xA SSTORE DUP1 ISZERO PUSH2 0x2071 JUMPI PUSH1 0xE DUP1 SLOAD PUSH2 0xFF00 NOT AND SWAP1 SSTORE JUMPDEST POP POP POP POP JUMP JUMPDEST PUSH1 0x1 SLOAD PUSH1 0x1 PUSH1 0xA0 SHL SWAP1 DIV PUSH4 0xFFFFFFFF AND PUSH1 0x0 SWAP1 DUP2 MSTORE PUSH1 0xD PUSH1 0x20 MSTORE PUSH1 0x40 DUP2 KECCAK256 PUSH1 0x4 SWAP1 DUP2 ADD SLOAD PUSH1 0xFF AND EQ PUSH2 0x212D JUMPI PUSH1 0x40 MLOAD PUSH3 0x461BCD PUSH1 0xE5 SHL DUP2 MSTORE PUSH1 0x20 PUSH1 0x4 DUP3 ADD MSTORE PUSH1 0x53 PUSH1 0x24 DUP3 ADD MSTORE PUSH32 0x436F6D7065746974696F6E202D2073706F6E736F723A20504C65617365207761 PUSH1 0x44 DUP3 ADD MSTORE PUSH32 0x697420666F7220746865206368616C6C656E676520746F20636F6D706C657465 PUSH1 0x64 DUP3 ADD MSTORE PUSH19 0x103132B337B9329039B837B739B7B934B73397 PUSH1 0x69 SHL PUSH1 0x84 DUP3 ADD MSTORE PUSH1 0xA4 ADD PUSH2 0xB18 JUMP JUMPDEST PUSH1 0x3 SLOAD PUSH2 0x213A DUP4 DUP3 PUSH2 0x44AE JUMP JUMPDEST PUSH1 0x3 SSTORE PUSH1 0x1 SLOAD PUSH1 0x40 MLOAD PUSH4 0x23B872DD PUSH1 0xE0 SHL DUP2 MSTORE CALLER PUSH1 0x4 DUP3 ADD MSTORE ADDRESS PUSH1 0x24 DUP3 ADD MSTORE PUSH1 0x44 DUP2 ADD DUP6 SWAP1 MSTORE PUSH1 0x1 PUSH1 0x1 PUSH1 0xA0 SHL SUB SWAP1 SWAP2 AND SWAP1 PUSH4 0x23B872DD SWAP1 PUSH1 0x64 ADD PUSH1 0x20 PUSH1 0x40 MLOAD DUP1 DUP4 SUB DUP2 PUSH1 0x0 DUP8 DUP1 EXTCODESIZE ISZERO DUP1 ISZERO PUSH2 0x218F JUMPI PUSH1 0x0 DUP1 REVERT JUMPDEST POP GAS CALL ISZERO DUP1 ISZERO PUSH2 0x21A3 JUMPI RETURNDATASIZE PUSH1 0x0 DUP1 RETURNDATACOPY RETURNDATASIZE PUSH1 0x0 REVERT JUMPDEST POP POP POP POP PUSH1 0x40 MLOAD RETURNDATASIZE PUSH1 0x1F NOT PUSH1 0x1F DUP3 ADD AND DUP3 ADD DUP1 PUSH1 0x40 MSTORE POP DUP2 ADD SWAP1 PUSH2 0x21C7 SWAP2 SWAP1 PUSH2 0x4027 JUMP JUMPDEST SWAP2 POP PUSH2 0x21D3 DUP4 DUP3 PUSH2 0x44AE JUMP JUMPDEST PUSH1 0x40 MLOAD DUP5 SWAP1 CALLER SWAP1 PUSH32 0x64939930C3FD0A1FE9E7FB9810272DB7730A0F02B900972787BCB79FB6FD3D2D SWAP1 PUSH1 0x0 SWAP1 LOG4 POP SWAP2 SWAP1 POP JUMP JUMPDEST PUSH1 0x0 PUSH2 0x2220 PUSH1 0x0 DUP1 MLOAD PUSH1 0x20 PUSH2 0x45D0 DUP4 CODECOPY DUP2 MLOAD SWAP2 MSTORE CALLER PUSH2 0x1D96 JUMP JUMPDEST PUSH2 0x223C JUMPI PUSH1 0x40 MLOAD PUSH3 0x461BCD PUSH1 0xE5 SHL DUP2 MSTORE PUSH1 0x4 ADD PUSH2 0xB18 SWAP1 PUSH2 0x4477 JUMP JUMPDEST DUP3 PUSH2 0x22AF JUMPI PUSH1 0x40 MLOAD PUSH3 0x461BCD PUSH1 0xE5 SHL DUP2 MSTORE PUSH1 0x20 PUSH1 0x4 DUP3 ADD MSTORE PUSH1 0x3C PUSH1 0x24 DUP3 ADD MSTORE PUSH32 0x436F6D7065746974696F6E202D20757064617465526573756C74733A204D7573 PUSH1 0x44 DUP3 ADD MSTORE PUSH32 0x742068617665207072652D6578697374696E6720726573756C74732E00000000 PUSH1 0x64 DUP3 ADD MSTORE PUSH1 0x84 ADD PUSH2 0xB18 JUMP JUMPDEST PUSH2 0x1E10 DUP4 DUP4 PUSH2 0x2EDA JUMP JUMPDEST PUSH4 0xFFFFFFFF DUP2 AND PUSH1 0x0 SWAP1 DUP2 MSTORE PUSH1 0xD PUSH1 0x20 MSTORE PUSH1 0x40 DUP2 KECCAK256 PUSH2 0xADC SWAP1 PUSH1 0x7 ADD PUSH2 0x367F JUMP JUMPDEST PUSH1 0x60 PUSH1 0xB DUP1 SLOAD PUSH2 0x22E9 SWAP1 PUSH2 0x453F JUMP JUMPDEST DUP1 PUSH1 0x1F ADD PUSH1 0x20 DUP1 SWAP2 DIV MUL PUSH1 0x20 ADD PUSH1 0x40 MLOAD SWAP1 DUP2 ADD PUSH1 0x40 MSTORE DUP1 SWAP3 SWAP2 SWAP1 DUP2 DUP2 MSTORE PUSH1 0x20 ADD DUP3 DUP1 SLOAD PUSH2 0x2315 SWAP1 PUSH2 0x453F JUMP JUMPDEST DUP1 ISZERO PUSH2 0x2362 JUMPI DUP1 PUSH1 0x1F LT PUSH2 0x2337 JUMPI PUSH2 0x100 DUP1 DUP4 SLOAD DIV MUL DUP4 MSTORE SWAP2 PUSH1 0x20 ADD SWAP2 PUSH2 0x2362 JUMP JUMPDEST DUP3 ADD SWAP2 SWAP1 PUSH1 0x0 MSTORE PUSH1 0x20 PUSH1 0x0 KECCAK256 SWAP1 JUMPDEST DUP2 SLOAD DUP2 MSTORE SWAP1 PUSH1 0x1 ADD SWAP1 PUSH1 0x20 ADD DUP1 DUP4 GT PUSH2 0x2345 JUMPI DUP3 SWAP1 SUB PUSH1 0x1F AND DUP3 ADD SWAP2 JUMPDEST POP POP POP POP POP SWAP1 POP SWAP1 JUMP JUMPDEST PUSH1 0x0 PUSH2 0x2386 PUSH1 0x0 DUP1 MLOAD PUSH1 0x20 PUSH2 0x45D0 DUP4 CODECOPY DUP2 MLOAD SWAP2 MSTORE CALLER PUSH2 0x1D96 JUMP JUMPDEST PUSH2 0x23A2 JUMPI PUSH1 0x40 MLOAD PUSH3 0x461BCD PUSH1 0xE5 SHL DUP2 MSTORE PUSH1 0x4 ADD PUSH2 0xB18 SWAP1 PUSH2 0x4477 JUMP JUMPDEST PUSH1 0x1 SLOAD PUSH2 0x23C3 SWAP1 PUSH1 0x1 PUSH1 0xA0 SHL SWAP1 DIV PUSH4 0xFFFFFFFF AND DUP11 DUP11 DUP11 DUP11 DUP11 DUP11 DUP11 DUP11 PUSH2 0x3689 JUMP JUMPDEST SWAP10 SWAP9 POP POP POP POP POP POP POP POP POP JUMP JUMPDEST PUSH1 0x0 DUP3 DUP2 MSTORE PUSH1 0x20 DUP2 SWAP1 MSTORE PUSH1 0x40 SWAP1 KECCAK256 PUSH1 0x1 ADD SLOAD PUSH2 0x23EB SWAP1 PUSH2 0x109E JUMP JUMPDEST PUSH2 0x11C7 JUMPI PUSH1 0x40 MLOAD PUSH3 0x461BCD PUSH1 0xE5 SHL DUP2 MSTORE PUSH1 0x20 PUSH1 0x4 DUP3 ADD MSTORE PUSH1 0x30 PUSH1 0x24 DUP3 ADD MSTORE PUSH32 0x416363657373436F6E74726F6C3A2073656E646572206D75737420626520616E PUSH1 0x44 DUP3 ADD MSTORE PUSH16 0x2061646D696E20746F207265766F6B65 PUSH1 0x80 SHL PUSH1 0x64 DUP3 ADD MSTORE PUSH1 0x84 ADD PUSH2 0xB18 JUMP JUMPDEST PUSH1 0x0 PUSH2 0x246A PUSH1 0x0 DUP1 MLOAD PUSH1 0x20 PUSH2 0x45D0 DUP4 CODECOPY DUP2 MLOAD SWAP2 MSTORE CALLER PUSH2 0x1D96 JUMP JUMPDEST PUSH2 0x2486 JUMPI PUSH1 0x40 MLOAD PUSH3 0x461BCD PUSH1 0xE5 SHL DUP2 MSTORE PUSH1 0x4 ADD PUSH2 0xB18 SWAP1 PUSH2 0x4477 JUMP JUMPDEST PUSH1 0x1 SLOAD PUSH1 0x1 PUSH1 0xA0 SHL SWAP1 DIV PUSH4 0xFFFFFFFF AND PUSH1 0x0 DUP2 DUP2 MSTORE PUSH1 0xD PUSH1 0x20 MSTORE PUSH1 0x40 SWAP1 KECCAK256 PUSH1 0x4 SWAP1 DUP2 ADD SLOAD PUSH1 0xFF AND EQ PUSH2 0x2520 JUMPI PUSH1 0x40 MLOAD PUSH3 0x461BCD PUSH1 0xE5 SHL DUP2 MSTORE PUSH1 0x20 PUSH1 0x4 DUP3 ADD MSTORE PUSH1 0x3A PUSH1 0x24 DUP3 ADD MSTORE PUSH32 0x436F6D7065746974696F6E202D206F70656E4368616C6C656E67653A20507265 PUSH1 0x44 DUP3 ADD MSTORE PUSH32 0x76696F757320706861736520697320696E636F6D706C6574652E000000000000 PUSH1 0x64 DUP3 ADD MSTORE PUSH1 0x84 ADD PUSH2 0xB18 JUMP JUMPDEST PUSH1 0x4 SLOAD PUSH1 0x3 SLOAD LT ISZERO PUSH2 0x258C JUMPI PUSH1 0x40 MLOAD PUSH3 0x461BCD PUSH1 0xE5 SHL DUP2 MSTORE PUSH1 0x20 PUSH1 0x4 DUP3 ADD MSTORE PUSH1 0x2F PUSH1 0x24 DUP3 ADD MSTORE PUSH32 0x436F6D70657469746F6E202D206F70656E4368616C6C656E67653A204E6F7420 PUSH1 0x44 DUP3 ADD MSTORE PUSH15 0x32B737BAB3B4103932BBB0B9323997 PUSH1 0x89 SHL PUSH1 0x64 DUP3 ADD MSTORE PUSH1 0x84 ADD PUSH2 0xB18 JUMP JUMPDEST DUP1 PUSH2 0x2596 DUP2 PUSH2 0x4595 JUMP JUMPDEST PUSH4 0xFFFFFFFF DUP2 AND PUSH1 0x0 DUP2 DUP2 MSTORE PUSH1 0xD PUSH1 0x20 MSTORE PUSH1 0x40 DUP2 KECCAK256 PUSH1 0x4 ADD DUP1 SLOAD PUSH1 0x1 PUSH1 0xFF NOT SWAP1 SWAP2 AND DUP2 OR SWAP1 SWAP2 SSTORE DUP1 SLOAD PUSH4 0xFFFFFFFF PUSH1 0xA0 SHL NOT AND PUSH1 0x1 PUSH1 0xA0 SHL SWAP1 SWAP4 MUL SWAP3 SWAP1 SWAP3 OR SWAP1 SWAP2 SSTORE SWAP1 SWAP3 POP PUSH2 0x25E8 SWAP2 POP DUP3 SWAP1 DUP9 PUSH2 0x3146 JUMP JUMPDEST POP PUSH2 0x25F5 DUP2 PUSH1 0x0 DUP8 PUSH2 0x32B2 JUMP JUMPDEST POP PUSH8 0xDE0B6B3A7640000 PUSH1 0x9 SLOAD PUSH1 0x3 SLOAD PUSH2 0x260F SWAP2 SWAP1 PUSH2 0x44E6 JUMP JUMPDEST PUSH2 0x2619 SWAP2 SWAP1 PUSH2 0x44C6 JUMP JUMPDEST PUSH1 0x7 SSTORE PUSH1 0xA SLOAD PUSH1 0x3 SLOAD PUSH8 0xDE0B6B3A7640000 SWAP2 PUSH2 0x2635 SWAP2 PUSH2 0x44E6 JUMP JUMPDEST PUSH2 0x263F SWAP2 SWAP1 PUSH2 0x44C6 JUMP JUMPDEST PUSH1 0x8 DUP2 SWAP1 SSTORE PUSH1 0x7 SLOAD PUSH1 0x3 SLOAD PUSH2 0x2654 SWAP2 SWAP1 PUSH2 0x4505 JUMP JUMPDEST PUSH2 0x265E SWAP2 SWAP1 PUSH2 0x4505 JUMP JUMPDEST PUSH1 0x6 SWAP1 DUP2 SSTORE PUSH4 0xFFFFFFFF DUP3 AND PUSH1 0x0 DUP2 DUP2 MSTORE PUSH1 0xD PUSH1 0x20 SWAP1 DUP2 MSTORE PUSH1 0x40 DUP1 DUP4 KECCAK256 DUP4 DUP1 MSTORE SWAP1 SWAP5 ADD SWAP1 MSTORE DUP3 DUP2 KECCAK256 DUP8 SWAP1 SSTORE PUSH1 0x1 DUP1 DUP3 MSTORE DUP4 DUP3 KECCAK256 DUP8 SWAP1 SSTORE SWAP3 MLOAD SWAP3 SWAP5 POP SWAP1 SWAP2 PUSH32 0x9DA6F4CD0F617F153C3EBC9840A08792CFF9F0FD8C796CE09C5D2006F42DA6D9 SWAP2 SWAP1 LOG2 POP SWAP5 SWAP4 POP POP POP POP JUMP JUMPDEST PUSH1 0x0 PUSH2 0x26E2 PUSH1 0x0 DUP1 MLOAD PUSH1 0x20 PUSH2 0x45D0 DUP4 CODECOPY DUP2 MLOAD SWAP2 MSTORE CALLER PUSH2 0x1D96 JUMP JUMPDEST PUSH2 0x26FE JUMPI PUSH1 0x40 MLOAD PUSH3 0x461BCD PUSH1 0xE5 SHL DUP2 MSTORE PUSH1 0x4 ADD PUSH2 0xB18 SWAP1 PUSH2 0x4477 JUMP JUMPDEST PUSH1 0x1 SLOAD PUSH1 0x1 PUSH1 0xA0 SHL SWAP1 DIV PUSH4 0xFFFFFFFF AND PUSH1 0xFF DUP4 AND PUSH1 0x2 LT DUP1 ISZERO PUSH2 0x2724 JUMPI POP PUSH1 0x5 DUP4 PUSH1 0xFF AND LT JUMPDEST PUSH2 0x27BC JUMPI PUSH1 0x40 MLOAD PUSH3 0x461BCD PUSH1 0xE5 SHL DUP2 MSTORE PUSH1 0x20 PUSH1 0x4 DUP3 ADD MSTORE PUSH1 0x5A PUSH1 0x24 DUP3 ADD MSTORE PUSH32 0x436F6D7065746974696F6E202D20616476616E6365546F50686173653A20596F PUSH1 0x44 DUP3 ADD MSTORE PUSH32 0x75206D6179206F6E6C79207573652074686973206D6574686F6420666F722061 PUSH1 0x64 DUP3 ADD MSTORE PUSH32 0x6476616E63696E6720746F207068617365732033206F7220342E000000000000 PUSH1 0x84 DUP3 ADD MSTORE PUSH1 0xA4 ADD PUSH2 0xB18 JUMP JUMPDEST PUSH4 0xFFFFFFFF DUP2 AND PUSH1 0x0 SWAP1 DUP2 MSTORE PUSH1 0xD PUSH1 0x20 MSTORE PUSH1 0x40 SWAP1 KECCAK256 PUSH1 0x4 ADD SLOAD PUSH1 0xFF AND PUSH2 0x27E3 PUSH1 0x1 DUP6 PUSH2 0x451C JUMP JUMPDEST PUSH1 0xFF AND EQ PUSH2 0x2867 JUMPI PUSH1 0x40 MLOAD PUSH3 0x461BCD PUSH1 0xE5 SHL DUP2 MSTORE PUSH1 0x20 PUSH1 0x4 DUP3 ADD MSTORE PUSH1 0x45 PUSH1 0x24 DUP3 ADD MSTORE PUSH32 0x436F6D7065746974696F6E202D20616476616E6365546F50686173653A20596F PUSH1 0x44 DUP3 ADD MSTORE PUSH32 0x75206D6179206F6E6C7920616476616E636520746F20746865206E6578742070 PUSH1 0x64 DUP3 ADD MSTORE PUSH5 0x3430B9B297 PUSH1 0xD9 SHL PUSH1 0x84 DUP3 ADD MSTORE PUSH1 0xA4 ADD PUSH2 0xB18 JUMP JUMPDEST PUSH4 0xFFFFFFFF AND PUSH1 0x0 SWAP1 DUP2 MSTORE PUSH1 0xD PUSH1 0x20 MSTORE PUSH1 0x40 SWAP1 KECCAK256 PUSH1 0x4 ADD DUP1 SLOAD PUSH1 0xFF NOT AND PUSH1 0xFF SWAP4 SWAP1 SWAP4 AND SWAP3 SWAP1 SWAP3 OR SWAP1 SWAP2 SSTORE POP PUSH1 0x1 SWAP1 JUMP JUMPDEST PUSH1 0x0 PUSH2 0x28B1 PUSH1 0x0 DUP1 MLOAD PUSH1 0x20 PUSH2 0x45D0 DUP4 CODECOPY DUP2 MLOAD SWAP2 MSTORE CALLER PUSH2 0x1D96 JUMP JUMPDEST PUSH2 0x28CD JUMPI PUSH1 0x40 MLOAD PUSH3 0x461BCD PUSH1 0xE5 SHL DUP2 MSTORE PUSH1 0x4 ADD PUSH2 0xB18 SWAP1 PUSH2 0x4477 JUMP JUMPDEST PUSH4 0xFFFFFFFF DUP9 AND PUSH1 0x0 SWAP1 DUP2 MSTORE PUSH1 0xD PUSH1 0x20 MSTORE PUSH1 0x40 SWAP1 KECCAK256 PUSH1 0x4 ADD SLOAD PUSH1 0x3 PUSH1 0xFF SWAP1 SWAP2 AND LT ISZERO PUSH2 0x297D JUMPI PUSH1 0x40 MLOAD PUSH3 0x461BCD PUSH1 0xE5 SHL DUP2 MSTORE PUSH1 0x20 PUSH1 0x4 DUP3 ADD MSTORE PUSH1 0x53 PUSH1 0x24 DUP3 ADD MSTORE PUSH32 0x436F6D7065746974696F6E202D207570646174654368616C6C656E6765416E64 PUSH1 0x44 DUP3 ADD MSTORE PUSH32 0x546F75726E616D656E7453636F7265733A204368616C6C656E67652069732069 PUSH1 0x64 DUP3 ADD MSTORE PUSH19 0x37103AB732BC3832B1BA32B21039BA30BA3297 PUSH1 0x69 SHL PUSH1 0x84 DUP3 ADD MSTORE PUSH1 0xA4 ADD PUSH2 0xB18 JUMP JUMPDEST DUP6 DUP5 EQ DUP1 ISZERO PUSH2 0x298B JUMPI POP DUP6 DUP3 EQ JUMPDEST PUSH2 0x2A2E JUMPI PUSH1 0x40 MLOAD PUSH3 0x461BCD PUSH1 0xE5 SHL DUP2 MSTORE PUSH1 0x20 PUSH1 0x4 DUP3 ADD MSTORE PUSH1 0x62 PUSH1 0x24 DUP3 ADD MSTORE PUSH32 0x436F6D7065746974696F6E202D207570646174654368616C6C656E6765416E64 PUSH1 0x44 DUP3 ADD MSTORE PUSH32 0x546F75726E616D656E7453636F7265733A204E756D626572206F662070617274 PUSH1 0x64 DUP3 ADD MSTORE PUSH32 0x69636970616E747320616E642073636F7265732061726520646966666572656E PUSH1 0x84 DUP3 ADD MSTORE PUSH2 0x3A17 PUSH1 0xF1 SHL PUSH1 0xA4 DUP3 ADD MSTORE PUSH1 0xC4 ADD PUSH2 0xB18 JUMP JUMPDEST PUSH1 0x0 JUMPDEST DUP7 DUP2 LT ISZERO PUSH2 0x2B85 JUMPI DUP6 DUP6 DUP3 DUP2 DUP2 LT PUSH2 0x2A59 JUMPI PUSH4 0x4E487B71 PUSH1 0xE0 SHL PUSH1 0x0 MSTORE PUSH1 0x32 PUSH1 0x4 MSTORE PUSH1 0x24 PUSH1 0x0 REVERT JUMPDEST SWAP1 POP PUSH1 0x20 MUL ADD CALLDATALOAD PUSH1 0xD PUSH1 0x0 DUP12 PUSH4 0xFFFFFFFF AND PUSH4 0xFFFFFFFF AND DUP2 MSTORE PUSH1 0x20 ADD SWAP1 DUP2 MSTORE PUSH1 0x20 ADD PUSH1 0x0 KECCAK256 PUSH1 0x5 ADD PUSH1 0x0 DUP11 DUP11 DUP6 DUP2 DUP2 LT PUSH2 0x2AA4 JUMPI PUSH4 0x4E487B71 PUSH1 0xE0 SHL PUSH1 0x0 MSTORE PUSH1 0x32 PUSH1 0x4 MSTORE PUSH1 0x24 PUSH1 0x0 REVERT JUMPDEST SWAP1 POP PUSH1 0x20 MUL ADD PUSH1 0x20 DUP2 ADD SWAP1 PUSH2 0x2AB9 SWAP2 SWAP1 PUSH2 0x3F25 JUMP JUMPDEST PUSH1 0x1 PUSH1 0x1 PUSH1 0xA0 SHL SUB AND DUP2 MSTORE PUSH1 0x20 DUP2 ADD SWAP2 SWAP1 SWAP2 MSTORE PUSH1 0x40 ADD PUSH1 0x0 KECCAK256 PUSH1 0x5 ADD SSTORE DUP4 DUP4 DUP3 DUP2 DUP2 LT PUSH2 0x2AF6 JUMPI PUSH4 0x4E487B71 PUSH1 0xE0 SHL PUSH1 0x0 MSTORE PUSH1 0x32 PUSH1 0x4 MSTORE PUSH1 0x24 PUSH1 0x0 REVERT JUMPDEST SWAP1 POP PUSH1 0x20 MUL ADD CALLDATALOAD PUSH1 0xD PUSH1 0x0 DUP12 PUSH4 0xFFFFFFFF AND PUSH4 0xFFFFFFFF AND DUP2 MSTORE PUSH1 0x20 ADD SWAP1 DUP2 MSTORE PUSH1 0x20 ADD PUSH1 0x0 KECCAK256 PUSH1 0x5 ADD PUSH1 0x0 DUP11 DUP11 DUP6 DUP2 DUP2 LT PUSH2 0x2B41 JUMPI PUSH4 0x4E487B71 PUSH1 0xE0 SHL PUSH1 0x0 MSTORE PUSH1 0x32 PUSH1 0x4 MSTORE PUSH1 0x24 PUSH1 0x0 REVERT JUMPDEST SWAP1 POP PUSH1 0x20 MUL ADD PUSH1 0x20 DUP2 ADD SWAP1 PUSH2 0x2B56 SWAP2 SWAP1 PUSH2 0x3F25 JUMP JUMPDEST PUSH1 0x1 PUSH1 0x1 PUSH1 0xA0 SHL SUB AND DUP2 MSTORE PUSH1 0x20 DUP2 ADD SWAP2 SWAP1 SWAP2 MSTORE PUSH1 0x40 ADD PUSH1 0x0 KECCAK256 PUSH1 0x6 ADD SSTORE DUP1 PUSH2 0x2B7D DUP2 PUSH2 0x457A JUMP JUMPDEST SWAP2 POP POP PUSH2 0x2A31 JUMP JUMPDEST POP POP PUSH1 0x40 MLOAD PUSH1 0x1 SWAP1 PUSH4 0xFFFFFFFF DUP10 AND SWAP1 PUSH32 0x6FA7224843E16AB8C76A13B984CFCF54DE67707A118BF52CE93E0E5BE3589871 SWAP1 PUSH1 0x0 SWAP1 LOG2 SWAP8 SWAP7 POP POP POP POP POP POP POP JUMP JUMPDEST PUSH1 0x3 SLOAD PUSH1 0x5 SLOAD PUSH1 0x1 SLOAD PUSH1 0x40 MLOAD PUSH4 0x70A08231 PUSH1 0xE0 SHL DUP2 MSTORE ADDRESS PUSH1 0x4 DUP3 ADD MSTORE PUSH1 0x0 SWAP4 SWAP3 SWAP2 PUSH1 0x1 PUSH1 0x1 PUSH1 0xA0 SHL SUB AND SWAP1 PUSH4 0x70A08231 SWAP1 PUSH1 0x24 ADD PUSH1 0x20 PUSH1 0x40 MLOAD DUP1 DUP4 SUB DUP2 DUP7 DUP1 EXTCODESIZE ISZERO DUP1 ISZERO PUSH2 0x2C12 JUMPI PUSH1 0x0 DUP1 REVERT JUMPDEST POP GAS STATICCALL ISZERO DUP1 ISZERO PUSH2 0x2C26 JUMPI RETURNDATASIZE PUSH1 0x0 DUP1 RETURNDATACOPY RETURNDATASIZE PUSH1 0x0 REVERT JUMPDEST POP POP POP POP PUSH1 0x40 MLOAD RETURNDATASIZE PUSH1 0x1F NOT PUSH1 0x1F DUP3 ADD AND DUP3 ADD DUP1 PUSH1 0x40 MSTORE POP DUP2 ADD SWAP1 PUSH2 0x2C4A SWAP2 SWAP1 PUSH2 0x4171 JUMP JUMPDEST PUSH2 0x2C54 SWAP2 SWAP1 PUSH2 0x4505 JUMP JUMPDEST PUSH2 0x2C5E SWAP2 SWAP1 PUSH2 0x4505 JUMP JUMPDEST SWAP1 POP SWAP1 JUMP JUMPDEST PUSH1 0x0 DUP3 PUSH2 0x2CD1 JUMPI PUSH1 0x40 MLOAD PUSH3 0x461BCD PUSH1 0xE5 SHL DUP2 MSTORE PUSH1 0x20 PUSH1 0x4 DUP3 ADD MSTORE PUSH1 0x42 PUSH1 0x24 DUP3 ADD MSTORE PUSH1 0x0 DUP1 MLOAD PUSH1 0x20 PUSH2 0x4610 DUP4 CODECOPY DUP2 MLOAD SWAP2 MSTORE PUSH1 0x44 DUP3 ADD MSTORE PUSH32 0x4D7573742068617665207072652D6578697374696E67207375626D697373696F PUSH1 0x64 DUP3 ADD MSTORE PUSH2 0x3717 PUSH1 0xF1 SHL PUSH1 0x84 DUP3 ADD MSTORE PUSH1 0xA4 ADD PUSH2 0xB18 JUMP JUMPDEST PUSH2 0x2CDB DUP4 DUP4 PUSH2 0x340E JUMP JUMPDEST SWAP1 POP DUP2 PUSH2 0xADC JUMPI PUSH4 0xFFFFFFFF DUP2 AND PUSH1 0x0 SWAP1 DUP2 MSTORE PUSH1 0xD PUSH1 0x20 MSTORE PUSH1 0x40 SWAP1 KECCAK256 PUSH2 0x2D04 SWAP1 PUSH1 0x7 ADD CALLER PUSH2 0x39EC JUMP JUMPDEST POP PUSH4 0xFFFFFFFF DUP2 AND PUSH1 0x0 SWAP1 DUP2 MSTORE PUSH1 0xD PUSH1 0x20 SWAP1 DUP2 MSTORE PUSH1 0x40 DUP1 DUP4 KECCAK256 CALLER DUP5 MSTORE PUSH1 0x5 ADD SWAP1 SWAP2 MSTORE DUP2 KECCAK256 PUSH1 0x1 ADD SSTORE SWAP3 SWAP2 POP POP JUMP JUMPDEST PUSH1 0x0 PUSH2 0x2D4C PUSH1 0x0 DUP1 MLOAD PUSH1 0x20 PUSH2 0x45D0 DUP4 CODECOPY DUP2 MLOAD SWAP2 MSTORE CALLER PUSH2 0x1D96 JUMP JUMPDEST PUSH2 0x2D68 JUMPI PUSH1 0x40 MLOAD PUSH3 0x461BCD PUSH1 0xE5 SHL DUP2 MSTORE PUSH1 0x4 ADD PUSH2 0xB18 SWAP1 PUSH2 0x4477 JUMP JUMPDEST PUSH1 0x1 DUP1 SLOAD PUSH1 0x1 PUSH1 0xA0 SHL SWAP1 DIV PUSH4 0xFFFFFFFF AND PUSH1 0x0 DUP2 DUP2 MSTORE PUSH1 0xD PUSH1 0x20 MSTORE PUSH1 0x40 SWAP1 KECCAK256 PUSH1 0x4 ADD SLOAD SWAP1 SWAP2 PUSH1 0xFF SWAP1 SWAP2 AND EQ PUSH2 0x2E05 JUMPI PUSH1 0x40 MLOAD PUSH3 0x461BCD PUSH1 0xE5 SHL DUP2 MSTORE PUSH1 0x20 PUSH1 0x4 DUP3 ADD MSTORE PUSH1 0x3D PUSH1 0x24 DUP3 ADD MSTORE PUSH32 0x436F6D7065746974696F6E202D20636C6F73655375626D697373696F6E3A2043 PUSH1 0x44 DUP3 ADD MSTORE PUSH32 0x68616C6C656E676520696E20756E65787065637465642073746174652E000000 PUSH1 0x64 DUP3 ADD MSTORE PUSH1 0x84 ADD PUSH2 0xB18 JUMP JUMPDEST PUSH4 0xFFFFFFFF DUP2 AND PUSH1 0x0 DUP2 DUP2 MSTORE PUSH1 0xD PUSH1 0x20 MSTORE PUSH1 0x40 DUP1 DUP3 KECCAK256 PUSH1 0x4 ADD DUP1 SLOAD PUSH1 0xFF NOT AND PUSH1 0x2 OR SWAP1 SSTORE MLOAD PUSH1 0x1 SWAP5 POP PUSH32 0xAA5EBDC7900B87A79257AABBAB219AF255ADA0BE7148632CE5AFCD622DF7A88B SWAP2 SWAP1 LOG2 POP SWAP1 JUMP JUMPDEST PUSH2 0x2E60 DUP3 DUP3 PUSH2 0x1D96 JUMP JUMPDEST PUSH2 0x1112 JUMPI PUSH1 0x0 DUP3 DUP2 MSTORE PUSH1 0x20 DUP2 DUP2 MSTORE PUSH1 0x40 DUP1 DUP4 KECCAK256 PUSH1 0x1 PUSH1 0x1 PUSH1 0xA0 SHL SUB DUP6 AND DUP5 MSTORE SWAP1 SWAP2 MSTORE SWAP1 KECCAK256 DUP1 SLOAD PUSH1 0xFF NOT AND PUSH1 0x1 OR SWAP1 SSTORE PUSH2 0x2E96 CALLER SWAP1 JUMP JUMPDEST PUSH1 0x1 PUSH1 0x1 PUSH1 0xA0 SHL SUB AND DUP2 PUSH1 0x1 PUSH1 0x1 PUSH1 0xA0 SHL SUB AND DUP4 PUSH32 0x2F8788117E7EFF1D82E926EC794901D17C78024A50270940304540A733656F0D PUSH1 0x40 MLOAD PUSH1 0x40 MLOAD DUP1 SWAP2 SUB SWAP1 LOG4 POP POP JUMP JUMPDEST PUSH1 0x0 DUP2 DUP4 EQ ISZERO PUSH2 0x2F63 JUMPI PUSH1 0x40 MLOAD PUSH3 0x461BCD PUSH1 0xE5 SHL DUP2 MSTORE PUSH1 0x20 PUSH1 0x4 DUP3 ADD MSTORE PUSH1 0x48 PUSH1 0x24 DUP3 ADD MSTORE PUSH32 0x436F6D7065746974696F6E202D20757064617465526573756C74733A2043616E PUSH1 0x44 DUP3 ADD MSTORE PUSH32 0x6E6F74207570646174652077697468207468652073616D652068617368206173 PUSH1 0x64 DUP3 ADD MSTORE PUSH8 0x103132B337B93297 PUSH1 0xC1 SHL PUSH1 0x84 DUP3 ADD MSTORE PUSH1 0xA4 ADD PUSH2 0xB18 JUMP JUMPDEST PUSH1 0x1 SLOAD PUSH1 0x1 PUSH1 0xA0 SHL SWAP1 DIV PUSH4 0xFFFFFFFF AND PUSH1 0x0 DUP2 DUP2 MSTORE PUSH1 0xD PUSH1 0x20 MSTORE PUSH1 0x40 SWAP1 KECCAK256 PUSH1 0x4 ADD SLOAD PUSH1 0x3 PUSH1 0xFF SWAP1 SWAP2 AND LT ISZERO PUSH2 0x3000 JUMPI PUSH1 0x40 MLOAD PUSH3 0x461BCD PUSH1 0xE5 SHL DUP2 MSTORE PUSH1 0x20 PUSH1 0x4 DUP3 ADD MSTORE PUSH1 0x3B PUSH1 0x24 DUP3 ADD MSTORE PUSH32 0x436F6D7065746974696F6E202D20757064617465526573756C74733A20436861 PUSH1 0x44 DUP3 ADD MSTORE PUSH32 0x6C6C656E676520696E20756E65787065637465642073746174652E0000000000 PUSH1 0x64 DUP3 ADD MSTORE PUSH1 0x84 ADD PUSH2 0xB18 JUMP JUMPDEST PUSH4 0xFFFFFFFF DUP2 AND PUSH1 0x0 SWAP1 DUP2 MSTORE PUSH1 0xD PUSH1 0x20 MSTORE PUSH1 0x40 SWAP1 KECCAK256 PUSH1 0x1 ADD SLOAD DUP5 EQ PUSH2 0x308D JUMPI PUSH1 0x40 MLOAD PUSH3 0x461BCD PUSH1 0xE5 SHL DUP2 MSTORE PUSH1 0x20 PUSH1 0x4 DUP3 ADD MSTORE PUSH1 0x3C PUSH1 0x24 DUP3 ADD MSTORE PUSH32 0x436F6D7065746974696F6E202D20757064617465526573756C74733A20436C61 PUSH1 0x44 DUP3 ADD MSTORE PUSH32 0x736820696E206578697374696E6720726573756C747320686173682E00000000 PUSH1 0x64 DUP3 ADD MSTORE PUSH1 0x84 ADD PUSH2 0xB18 JUMP JUMPDEST PUSH4 0xFFFFFFFF DUP2 AND PUSH1 0x0 DUP2 DUP2 MSTORE PUSH1 0xD PUSH1 0x20 MSTORE PUSH1 0x40 DUP1 DUP3 KECCAK256 PUSH1 0x1 SWAP1 DUP2 ADD DUP8 SWAP1 SSTORE SWAP1 MLOAD SWAP1 SWAP5 POP DUP6 SWAP3 DUP8 SWAP3 SWAP1 SWAP2 PUSH32 0xFB7D772905D44C5FDD59D4AB87C7F40281E09F93E2E189D03737C6D82B154EA SWAP2 SWAP1 LOG4 POP SWAP3 SWAP2 POP POP JUMP JUMPDEST PUSH2 0x30EB DUP3 DUP3 PUSH2 0x1D96 JUMP JUMPDEST ISZERO PUSH2 0x1112 JUMPI PUSH1 0x0 DUP3 DUP2 MSTORE PUSH1 0x20 DUP2 DUP2 MSTORE PUSH1 0x40 DUP1 DUP4 KECCAK256 PUSH1 0x1 PUSH1 0x1 PUSH1 0xA0 SHL SUB DUP6 AND DUP1 DUP6 MSTORE SWAP3 MSTORE DUP1 DUP4 KECCAK256 DUP1 SLOAD PUSH1 0xFF NOT AND SWAP1 SSTORE MLOAD CALLER SWAP3 DUP6 SWAP2 PUSH32 0xF6391F5C32D9C69D2A47EA670B442974B53935D1EDC7FD64EB21E047A839171B SWAP2 SWAP1 LOG4 POP POP JUMP JUMPDEST PUSH1 0x0 DUP2 DUP4 EQ ISZERO PUSH2 0x31CF JUMPI PUSH1 0x40 MLOAD PUSH3 0x461BCD PUSH1 0xE5 SHL DUP2 MSTORE PUSH1 0x20 PUSH1 0x4 DUP3 ADD MSTORE PUSH1 0x48 PUSH1 0x24 DUP3 ADD MSTORE PUSH32 0x436F6D7065746974696F6E202D20757064617465446174617365743A2043616E PUSH1 0x44 DUP3 ADD MSTORE PUSH32 0x6E6F74207570646174652077697468207468652073616D652068617368206173 PUSH1 0x64 DUP3 ADD MSTORE PUSH8 0x103132B337B93297 PUSH1 0xC1 SHL PUSH1 0x84 DUP3 ADD MSTORE PUSH1 0xA4 ADD PUSH2 0xB18 JUMP JUMPDEST PUSH4 0xFFFFFFFF DUP5 AND PUSH1 0x0 SWAP1 DUP2 MSTORE PUSH1 0xD PUSH1 0x20 MSTORE PUSH1 0x40 SWAP1 KECCAK256 SLOAD DUP4 EQ PUSH2 0x3259 JUMPI PUSH1 0x40 MLOAD PUSH3 0x461BCD PUSH1 0xE5 SHL DUP2 MSTORE PUSH1 0x20 PUSH1 0x4 DUP3 ADD MSTORE PUSH1 0x3D PUSH1 0x24 DUP3 ADD MSTORE PUSH32 0x436F6D7065746974696F6E202D20757064617465446174617365743A20496E63 PUSH1 0x44 DUP3 ADD MSTORE PUSH32 0x6F7272656374206F6C642064617461736574207265666572656E63652E000000 PUSH1 0x64 DUP3 ADD MSTORE PUSH1 0x84 ADD PUSH2 0xB18 JUMP JUMPDEST POP PUSH4 0xFFFFFFFF DUP4 AND PUSH1 0x0 DUP2 DUP2 MSTORE PUSH1 0xD PUSH1 0x20 MSTORE PUSH1 0x40 DUP1 DUP3 KECCAK256 DUP5 SWAP1 SSTORE MLOAD PUSH1 0x1 SWAP3 DUP5 SWAP3 DUP7 SWAP3 PUSH32 0xB4AD7E2453C3C06A28C5CFE29A3067C6EDDE6EB03BE4DF2A461F9D806CB747E SWAP2 SWAP1 LOG4 SWAP4 SWAP3 POP POP POP JUMP JUMPDEST PUSH1 0x0 PUSH2 0x1E10 DUP4 DUP4 PUSH2 0x3A01 JUMP JUMPDEST PUSH1 0x0 DUP2 DUP4 EQ ISZERO PUSH2 0x3338 JUMPI PUSH1 0x40 MLOAD PUSH3 0x461BCD PUSH1 0xE5 SHL DUP2 MSTORE PUSH1 0x20 PUSH1 0x4 DUP3 ADD MSTORE PUSH1 0x45 PUSH1 0x24 DUP3 ADD MSTORE PUSH32 0x436F6D7065746974696F6E202D205F7570646174654B65793A2043616E6E6F74 PUSH1 0x44 DUP3 ADD MSTORE PUSH32 0x207570646174652077697468207468652073616D652068617368206173206265 PUSH1 0x64 DUP3 ADD MSTORE PUSH5 0x3337B93297 PUSH1 0xD9 SHL PUSH1 0x84 DUP3 ADD MSTORE PUSH1 0xA4 ADD PUSH2 0xB18 JUMP JUMPDEST PUSH4 0xFFFFFFFF DUP5 AND PUSH1 0x0 SWAP1 DUP2 MSTORE PUSH1 0xD PUSH1 0x20 MSTORE PUSH1 0x40 SWAP1 KECCAK256 PUSH1 0x2 ADD SLOAD DUP4 EQ PUSH2 0x33BE JUMPI PUSH1 0x40 MLOAD PUSH3 0x461BCD PUSH1 0xE5 SHL DUP2 MSTORE PUSH1 0x20 PUSH1 0x4 DUP3 ADD MSTORE PUSH1 0x36 PUSH1 0x24 DUP3 ADD MSTORE PUSH32 0x436F6D7065746974696F6E202D205F7570646174654B65793A20496E636F7272 PUSH1 0x44 DUP3 ADD MSTORE PUSH22 0x32B1BA1037B6321035B2BC903932B332B932B731B297 PUSH1 0x51 SHL PUSH1 0x64 DUP3 ADD MSTORE PUSH1 0x84 ADD PUSH2 0xB18 JUMP JUMPDEST POP PUSH4 0xFFFFFFFF DUP4 AND PUSH1 0x0 DUP2 DUP2 MSTORE PUSH1 0xD PUSH1 0x20 MSTORE PUSH1 0x40 DUP1 DUP3 KECCAK256 PUSH1 0x2 ADD DUP5 SWAP1 SSTORE MLOAD PUSH1 0x1 SWAP3 DUP5 SWAP3 DUP7 SWAP3 PUSH32 0x7A2B6B0F48D13449D72D8FD2C1FAE94CD13C970CC0DC738ABD0BAE8D50CE81C6 SWAP2 SWAP1 LOG4 SWAP4 SWAP3 POP POP POP JUMP JUMPDEST PUSH1 0x1 DUP1 SLOAD PUSH1 0x1 PUSH1 0xA0 SHL SWAP1 DIV PUSH4 0xFFFFFFFF AND PUSH1 0x0 DUP2 DUP2 MSTORE PUSH1 0xD PUSH1 0x20 MSTORE PUSH1 0x40 SWAP1 KECCAK256 PUSH1 0x4 ADD SLOAD SWAP1 SWAP2 PUSH1 0xFF SWAP1 SWAP2 AND EQ PUSH2 0x3499 JUMPI PUSH1 0x40 MLOAD PUSH3 0x461BCD PUSH1 0xE5 SHL DUP2 MSTORE PUSH1 0x20 PUSH1 0x4 DUP3 ADD MSTORE PUSH1 0x3E PUSH1 0x24 DUP3 ADD MSTORE PUSH1 0x0 DUP1 MLOAD PUSH1 0x20 PUSH2 0x4610 DUP4 CODECOPY DUP2 MLOAD SWAP2 MSTORE PUSH1 0x44 DUP3 ADD MSTORE PUSH32 0x4E6F7420617661696C61626C6520666F72207375626D697373696F6E732E0000 PUSH1 0x64 DUP3 ADD MSTORE PUSH1 0x84 ADD PUSH2 0xB18 JUMP JUMPDEST DUP2 DUP4 EQ ISZERO PUSH2 0x3511 JUMPI PUSH1 0x40 MLOAD PUSH3 0x461BCD PUSH1 0xE5 SHL DUP2 MSTORE PUSH1 0x20 PUSH1 0x4 DUP3 ADD MSTORE PUSH1 0x4B PUSH1 0x24 DUP3 ADD MSTORE PUSH1 0x0 DUP1 MLOAD PUSH1 0x20 PUSH2 0x4610 DUP4 CODECOPY DUP2 MLOAD SWAP2 MSTORE PUSH1 0x44 DUP3 ADD MSTORE PUSH32 0x43616E6E6F74207570646174652077697468207468652073616D652068617368 PUSH1 0x64 DUP3 ADD MSTORE PUSH11 0x1030B9903132B337B93297 PUSH1 0xA9 SHL PUSH1 0x84 DUP3 ADD MSTORE PUSH1 0xA4 ADD PUSH2 0xB18 JUMP JUMPDEST PUSH4 0xFFFFFFFF DUP2 AND PUSH1 0x0 SWAP1 DUP2 MSTORE PUSH1 0xD PUSH1 0x20 SWAP1 DUP2 MSTORE PUSH1 0x40 DUP1 DUP4 KECCAK256 CALLER DUP5 MSTORE PUSH1 0x5 ADD SWAP1 SWAP2 MSTORE SWAP1 KECCAK256 SLOAD DUP4 EQ PUSH2 0x35A2 JUMPI PUSH1 0x40 MLOAD PUSH3 0x461BCD PUSH1 0xE5 SHL DUP2 MSTORE PUSH1 0x20 PUSH1 0x4 DUP3 ADD MSTORE PUSH1 0x42 PUSH1 0x24 DUP3 ADD MSTORE PUSH1 0x0 DUP1 MLOAD PUSH1 0x20 PUSH2 0x4610 DUP4 CODECOPY DUP2 MLOAD SWAP2 MSTORE PUSH1 0x44 DUP3 ADD MSTORE PUSH32 0x436C61736820696E206578697374696E67207375626D697373696F6E20686173 PUSH1 0x64 DUP3 ADD MSTORE PUSH2 0x3417 PUSH1 0xF1 SHL PUSH1 0x84 DUP3 ADD MSTORE PUSH1 0xA4 ADD PUSH2 0xB18 JUMP JUMPDEST PUSH4 0xFFFFFFFF DUP2 AND PUSH1 0x0 DUP2 DUP2 MSTORE PUSH1 0xD PUSH1 0x20 SWAP1 DUP2 MSTORE PUSH1 0x40 DUP1 DUP4 KECCAK256 CALLER DUP1 DUP6 MSTORE PUSH1 0x5 SWAP1 SWAP2 ADD SWAP1 SWAP3 MSTORE DUP1 DUP4 KECCAK256 DUP7 SWAP1 SSTORE MLOAD DUP6 SWAP4 SWAP2 SWAP3 PUSH32 0x953E3B79BB71898776BB2EF8BB919748C883B8B27C42E334DE1ECDBF79D472BB SWAP2 LOG4 SWAP3 SWAP2 POP POP JUMP JUMPDEST PUSH1 0x0 PUSH2 0x1E10 DUP4 PUSH1 0x1 PUSH1 0x1 PUSH1 0xA0 SHL SUB DUP5 AND PUSH2 0x3A95 JUMP JUMPDEST PUSH2 0x3627 PUSH1 0x0 DUP1 MLOAD PUSH1 0x20 PUSH2 0x45F0 DUP4 CODECOPY DUP2 MLOAD SWAP2 MSTORE CALLER PUSH2 0x1108 JUMP JUMPDEST PUSH2 0x363F PUSH1 0x0 DUP1 MLOAD PUSH1 0x20 PUSH2 0x45F0 DUP4 CODECOPY DUP2 MLOAD SWAP2 MSTORE DUP1 PUSH2 0x3AE4 JUMP JUMPDEST PUSH2 0x3657 PUSH1 0x0 DUP1 MLOAD PUSH1 0x20 PUSH2 0x45D0 DUP4 CODECOPY DUP2 MLOAD SWAP2 MSTORE CALLER PUSH2 0x1108 JUMP JUMPDEST PUSH2 0x367D PUSH1 0x0 DUP1 MLOAD PUSH1 0x20 PUSH2 0x45D0 DUP4 CODECOPY DUP2 MLOAD SWAP2 MSTORE PUSH1 0x0 DUP1 MLOAD PUSH1 0x20 PUSH2 0x45F0 DUP4 CODECOPY DUP2 MLOAD SWAP2 MSTORE PUSH2 0x3AE4 JUMP JUMPDEST JUMP JUMPDEST PUSH1 0x0 PUSH2 0xADC DUP3 SLOAD SWAP1 JUMP JUMPDEST PUSH4 0xFFFFFFFF DUP10 AND PUSH1 0x0 SWAP1 DUP2 MSTORE PUSH1 0xD PUSH1 0x20 MSTORE PUSH1 0x40 DUP2 KECCAK256 PUSH1 0x4 ADD SLOAD PUSH1 0x3 PUSH1 0xFF SWAP1 SWAP2 AND LT ISZERO PUSH2 0x371D JUMPI PUSH1 0x40 MLOAD PUSH3 0x461BCD PUSH1 0xE5 SHL DUP2 MSTORE PUSH1 0x20 PUSH1 0x4 DUP3 ADD MSTORE PUSH1 0x3B PUSH1 0x24 DUP3 ADD MSTORE PUSH32 0x436F6D7065746974696F6E202D20706179526577617264733A204368616C6C65 PUSH1 0x44 DUP3 ADD MSTORE PUSH32 0x6E676520697320696E20756E65787065637465642073746174652E0000000000 PUSH1 0x64 DUP3 ADD MSTORE PUSH1 0x84 ADD PUSH2 0xB18 JUMP JUMPDEST DUP8 DUP7 EQ DUP1 ISZERO PUSH2 0x372B JUMPI POP DUP8 DUP5 EQ JUMPDEST DUP1 ISZERO PUSH2 0x3736 JUMPI POP DUP8 DUP3 EQ JUMPDEST PUSH2 0x37BA JUMPI PUSH1 0x40 MLOAD PUSH3 0x461BCD PUSH1 0xE5 SHL DUP2 MSTORE PUSH1 0x20 PUSH1 0x4 DUP3 ADD MSTORE PUSH1 0x49 PUSH1 0x24 DUP3 ADD MSTORE PUSH32 0x436F6D7065746974696F6E202D20706179526577617264733A204E756D626572 PUSH1 0x44 DUP3 ADD MSTORE PUSH32 0x206F66207375626D69747465727320616E642072657761726473206172652064 PUSH1 0x64 DUP3 ADD MSTORE PUSH9 0x34B33332B932B73A17 PUSH1 0xB9 SHL PUSH1 0x84 DUP3 ADD MSTORE PUSH1 0xA4 ADD PUSH2 0xB18 JUMP JUMPDEST PUSH1 0x0 DUP1 DUP1 DUP1 JUMPDEST DUP12 DUP2 LT ISZERO PUSH2 0x3929 JUMPI DUP11 DUP11 DUP3 DUP2 DUP2 LT PUSH2 0x37E8 JUMPI PUSH4 0x4E487B71 PUSH1 0xE0 SHL PUSH1 0x0 MSTORE PUSH1 0x32 PUSH1 0x4 MSTORE PUSH1 0x24 PUSH1 0x0 REVERT JUMPDEST SWAP1 POP PUSH1 0x20 MUL ADD CALLDATALOAD DUP5 PUSH2 0x37FA SWAP2 SWAP1 PUSH2 0x44AE JUMP JUMPDEST SWAP4 POP DUP9 DUP9 DUP3 DUP2 DUP2 LT PUSH2 0x381C JUMPI PUSH4 0x4E487B71 PUSH1 0xE0 SHL PUSH1 0x0 MSTORE PUSH1 0x32 PUSH1 0x4 MSTORE PUSH1 0x24 PUSH1 0x0 REVERT JUMPDEST SWAP1 POP PUSH1 0x20 MUL ADD CALLDATALOAD DUP4 PUSH2 0x382E SWAP2 SWAP1 PUSH2 0x44AE JUMP JUMPDEST SWAP3 POP DUP7 DUP7 DUP3 DUP2 DUP2 LT PUSH2 0x3850 JUMPI PUSH4 0x4E487B71 PUSH1 0xE0 SHL PUSH1 0x0 MSTORE PUSH1 0x32 PUSH1 0x4 MSTORE PUSH1 0x24 PUSH1 0x0 REVERT JUMPDEST SWAP1 POP PUSH1 0x20 MUL ADD CALLDATALOAD DUP3 PUSH2 0x3862 SWAP2 SWAP1 PUSH2 0x44AE JUMP JUMPDEST SWAP2 POP PUSH2 0x3917 DUP15 DUP15 DUP15 DUP5 DUP2 DUP2 LT PUSH2 0x3888 JUMPI PUSH4 0x4E487B71 PUSH1 0xE0 SHL PUSH1 0x0 MSTORE PUSH1 0x32 PUSH1 0x4 MSTORE PUSH1 0x24 PUSH1 0x0 REVERT JUMPDEST SWAP1 POP PUSH1 0x20 MUL ADD PUSH1 0x20 DUP2 ADD SWAP1 PUSH2 0x389D SWAP2 SWAP1 PUSH2 0x3F25 JUMP JUMPDEST DUP14 DUP14 DUP6 DUP2 DUP2 LT PUSH2 0x38BD JUMPI PUSH4 0x4E487B71 PUSH1 0xE0 SHL PUSH1 0x0 MSTORE PUSH1 0x32 PUSH1 0x4 MSTORE PUSH1 0x24 PUSH1 0x0 REVERT JUMPDEST SWAP1 POP PUSH1 0x20 MUL ADD CALLDATALOAD DUP13 DUP13 DUP7 DUP2 DUP2 LT PUSH2 0x38E4 JUMPI PUSH4 0x4E487B71 PUSH1 0xE0 SHL PUSH1 0x0 MSTORE PUSH1 0x32 PUSH1 0x4 MSTORE PUSH1 0x24 PUSH1 0x0 REVERT JUMPDEST SWAP1 POP PUSH1 0x20 MUL ADD CALLDATALOAD DUP12 DUP12 DUP8 DUP2 DUP2 LT PUSH2 0x390B JUMPI PUSH4 0x4E487B71 PUSH1 0xE0 SHL PUSH1 0x0 MSTORE PUSH1 0x32 PUSH1 0x4 MSTORE PUSH1 0x24 PUSH1 0x0 REVERT JUMPDEST SWAP1 POP PUSH1 0x20 MUL ADD CALLDATALOAD PUSH2 0x3B38 JUMP JUMPDEST DUP1 PUSH2 0x3921 DUP2 PUSH2 0x457A JUMP JUMPDEST SWAP2 POP POP PUSH2 0x37C0 JUMP JUMPDEST POP DUP3 PUSH1 0x6 PUSH1 0x0 DUP3 DUP3 SLOAD PUSH2 0x393C SWAP2 SWAP1 PUSH2 0x4505 JUMP JUMPDEST SWAP3 POP POP DUP2 SWAP1 SSTORE POP DUP2 PUSH1 0x7 PUSH1 0x0 DUP3 DUP3 SLOAD PUSH2 0x3955 SWAP2 SWAP1 PUSH2 0x4505 JUMP JUMPDEST SWAP3 POP POP DUP2 SWAP1 SSTORE POP DUP1 PUSH1 0x8 PUSH1 0x0 DUP3 DUP3 SLOAD PUSH2 0x396E SWAP2 SWAP1 PUSH2 0x4505 JUMP JUMPDEST SWAP1 SWAP2 SSTORE POP DUP2 SWAP1 POP PUSH2 0x397F DUP4 DUP6 PUSH2 0x44AE JUMP JUMPDEST PUSH2 0x3989 SWAP2 SWAP1 PUSH2 0x44AE JUMP JUMPDEST PUSH1 0x3 PUSH1 0x0 DUP3 DUP3 SLOAD PUSH2 0x399A SWAP2 SWAP1 PUSH2 0x4505 JUMP JUMPDEST SWAP1 SWAP2 SSTORE POP DUP2 SWAP1 POP PUSH2 0x39AB DUP4 DUP6 PUSH2 0x44AE JUMP JUMPDEST PUSH2 0x39B5 SWAP2 SWAP1 PUSH2 0x44AE JUMP JUMPDEST PUSH1 0x5 PUSH1 0x0 DUP3 DUP3 SLOAD PUSH2 0x39C6 SWAP2 SWAP1 PUSH2 0x44AE JUMP JUMPDEST SWAP1 SWAP2 SSTORE POP PUSH1 0x1 SWAP5 POP PUSH2 0x39DC SWAP1 POP DUP14 DUP5 DUP5 DUP5 PUSH2 0x3CB0 JUMP JUMPDEST POP POP POP SWAP10 SWAP9 POP POP POP POP POP POP POP POP POP JUMP JUMPDEST PUSH1 0x0 PUSH2 0x1E10 DUP4 PUSH1 0x1 PUSH1 0x1 PUSH1 0xA0 SHL SUB DUP5 AND PUSH2 0x3CF5 JUMP JUMPDEST DUP2 SLOAD PUSH1 0x0 SWAP1 DUP3 LT PUSH2 0x3A5F JUMPI PUSH1 0x40 MLOAD PUSH3 0x461BCD PUSH1 0xE5 SHL DUP2 MSTORE PUSH1 0x20 PUSH1 0x4 DUP3 ADD MSTORE PUSH1 0x22 PUSH1 0x24 DUP3 ADD MSTORE PUSH32 0x456E756D657261626C655365743A20696E646578206F7574206F6620626F756E PUSH1 0x44 DUP3 ADD MSTORE PUSH2 0x6473 PUSH1 0xF0 SHL PUSH1 0x64 DUP3 ADD MSTORE PUSH1 0x84 ADD PUSH2 0xB18 JUMP JUMPDEST DUP3 PUSH1 0x0 ADD DUP3 DUP2 SLOAD DUP2 LT PUSH2 0x3A82 JUMPI PUSH4 0x4E487B71 PUSH1 0xE0 SHL PUSH1 0x0 MSTORE PUSH1 0x32 PUSH1 0x4 MSTORE PUSH1 0x24 PUSH1 0x0 REVERT JUMPDEST SWAP1 PUSH1 0x0 MSTORE PUSH1 0x20 PUSH1 0x0 KECCAK256 ADD SLOAD SWAP1 POP SWAP3 SWAP2 POP POP JUMP JUMPDEST PUSH1 0x0 DUP2 DUP2 MSTORE PUSH1 0x1 DUP4 ADD PUSH1 0x20 MSTORE PUSH1 0x40 DUP2 KECCAK256 SLOAD PUSH2 0x3ADC JUMPI POP DUP2 SLOAD PUSH1 0x1 DUP2 DUP2 ADD DUP5 SSTORE PUSH1 0x0 DUP5 DUP2 MSTORE PUSH1 0x20 DUP1 DUP3 KECCAK256 SWAP1 SWAP4 ADD DUP5 SWAP1 SSTORE DUP5 SLOAD DUP5 DUP3 MSTORE DUP3 DUP7 ADD SWAP1 SWAP4 MSTORE PUSH1 0x40 SWAP1 KECCAK256 SWAP2 SWAP1 SWAP2 SSTORE PUSH2 0xADC JUMP JUMPDEST POP PUSH1 0x0 PUSH2 0xADC JUMP JUMPDEST PUSH1 0x0 DUP3 DUP2 MSTORE PUSH1 0x20 DUP2 SWAP1 MSTORE PUSH1 0x40 SWAP1 KECCAK256 PUSH1 0x1 ADD SLOAD DUP2 SWAP1 PUSH1 0x40 MLOAD DUP5 SWAP1 PUSH32 0xBD79B86FFE0AB8E8776151514217CD7CACD52C909F66475C3AF44E129F0B00FF SWAP1 PUSH1 0x0 SWAP1 LOG4 PUSH1 0x0 SWAP2 DUP3 MSTORE PUSH1 0x20 DUP3 SWAP1 MSTORE PUSH1 0x40 SWAP1 SWAP2 KECCAK256 PUSH1 0x1 ADD SSTORE JUMP JUMPDEST DUP1 PUSH2 0x3B43 DUP4 DUP6 PUSH2 0x44AE JUMP JUMPDEST PUSH2 0x3B4D SWAP2 SWAP1 PUSH2 0x44AE JUMP JUMPDEST PUSH1 0x1 PUSH1 0x1 PUSH1 0xA0 SHL SUB DUP6 AND PUSH1 0x0 SWAP1 DUP2 MSTORE PUSH1 0xC PUSH1 0x20 MSTORE PUSH1 0x40 DUP2 KECCAK256 DUP1 SLOAD SWAP1 SWAP2 SWAP1 PUSH2 0x3B75 SWAP1 DUP5 SWAP1 PUSH2 0x44AE JUMP JUMPDEST SWAP1 SWAP2 SSTORE POP POP DUP3 ISZERO PUSH2 0x3BC5 JUMPI PUSH4 0xFFFFFFFF DUP6 AND PUSH1 0x0 SWAP1 DUP2 MSTORE PUSH1 0xD PUSH1 0x20 SWAP1 DUP2 MSTORE PUSH1 0x40 DUP1 DUP4 KECCAK256 PUSH1 0x1 PUSH1 0x1 PUSH1 0xA0 SHL SUB DUP9 AND DUP5 MSTORE PUSH1 0x5 ADD SWAP1 SWAP2 MSTORE DUP2 KECCAK256 PUSH1 0x2 ADD DUP1 SLOAD DUP6 SWAP3 SWAP1 PUSH2 0x3BBF SWAP1 DUP5 SWAP1 PUSH2 0x44AE JUMP JUMPDEST SWAP1 SWAP2 SSTORE POP POP JUMPDEST DUP2 ISZERO PUSH2 0x3C10 JUMPI PUSH4 0xFFFFFFFF DUP6 AND PUSH1 0x0 SWAP1 DUP2 MSTORE PUSH1 0xD PUSH1 0x20 SWAP1 DUP2 MSTORE PUSH1 0x40 DUP1 DUP4 KECCAK256 PUSH1 0x1 PUSH1 0x1 PUSH1 0xA0 SHL SUB DUP9 AND DUP5 MSTORE PUSH1 0x5 ADD SWAP1 SWAP2 MSTORE DUP2 KECCAK256 PUSH1 0x3 ADD DUP1 SLOAD DUP5 SWAP3 SWAP1 PUSH2 0x3C0A SWAP1 DUP5 SWAP1 PUSH2 0x44AE JUMP JUMPDEST SWAP1 SWAP2 SSTORE POP POP JUMPDEST DUP1 ISZERO PUSH2 0x3C5B JUMPI PUSH4 0xFFFFFFFF DUP6 AND PUSH1 0x0 SWAP1 DUP2 MSTORE PUSH1 0xD PUSH1 0x20 SWAP1 DUP2 MSTORE PUSH1 0x40 DUP1 DUP4 KECCAK256 PUSH1 0x1 PUSH1 0x1 PUSH1 0xA0 SHL SUB DUP9 AND DUP5 MSTORE PUSH1 0x5 ADD SWAP1 SWAP2 MSTORE DUP2 KECCAK256 PUSH1 0x4 ADD DUP1 SLOAD DUP4 SWAP3 SWAP1 PUSH2 0x3C55 SWAP1 DUP5 SWAP1 PUSH2 0x44AE JUMP JUMPDEST SWAP1 SWAP2 SSTORE POP POP JUMPDEST PUSH1 0x40 DUP1 MLOAD PUSH4 0xFFFFFFFF DUP8 AND DUP2 MSTORE PUSH1 0x20 DUP2 ADD DUP6 SWAP1 MSTORE DUP3 SWAP2 DUP5 SWAP2 PUSH1 0x1 PUSH1 0x1 PUSH1 0xA0 SHL SUB DUP9 AND SWAP2 PUSH32 0x6BF9F9AB57EFEDD3554E5388390B4EC0CC61506E0DFC7AD37DB38D940A23B743 SWAP2 ADD PUSH1 0x40 MLOAD DUP1 SWAP2 SUB SWAP1 LOG4 POP POP POP POP POP JUMP JUMPDEST PUSH1 0x40 MLOAD PUSH4 0xFFFFFFFF DUP6 AND DUP2 MSTORE DUP2 SWAP1 DUP4 SWAP1 DUP6 SWAP1 PUSH32 0x8B77F1E219A52706FCF536BEDEC95F5DF41E062D16118AE8F4BEDFFD30AFC939 SWAP1 PUSH1 0x20 ADD PUSH1 0x40 MLOAD DUP1 SWAP2 SUB SWAP1 LOG4 POP POP POP POP JUMP JUMPDEST PUSH1 0x0 DUP2 DUP2 MSTORE PUSH1 0x1 DUP4 ADD PUSH1 0x20 MSTORE PUSH1 0x40 DUP2 KECCAK256 SLOAD DUP1 ISZERO PUSH2 0x3E08 JUMPI PUSH1 0x0 PUSH2 0x3D19 PUSH1 0x1 DUP4 PUSH2 0x4505 JUMP JUMPDEST DUP6 SLOAD SWAP1 SWAP2 POP PUSH1 0x0 SWAP1 PUSH2 0x3D2D SWAP1 PUSH1 0x1 SWAP1 PUSH2 0x4505 JUMP JUMPDEST SWAP1 POP PUSH1 0x0 DUP7 PUSH1 0x0 ADD DUP3 DUP2 SLOAD DUP2 LT PUSH2 0x3D54 JUMPI PUSH4 0x4E487B71 PUSH1 0xE0 SHL PUSH1 0x0 MSTORE PUSH1 0x32 PUSH1 0x4 MSTORE PUSH1 0x24 PUSH1 0x0 REVERT JUMPDEST SWAP1 PUSH1 0x0 MSTORE PUSH1 0x20 PUSH1 0x0 KECCAK256 ADD SLOAD SWAP1 POP DUP1 DUP8 PUSH1 0x0 ADD DUP5 DUP2 SLOAD DUP2 LT PUSH2 0x3D85 JUMPI PUSH4 0x4E487B71 PUSH1 0xE0 SHL PUSH1 0x0 MSTORE PUSH1 0x32 PUSH1 0x4 MSTORE PUSH1 0x24 PUSH1 0x0 REVERT JUMPDEST PUSH1 0x0 SWAP2 DUP3 MSTORE PUSH1 0x20 SWAP1 SWAP2 KECCAK256 ADD SSTORE PUSH2 0x3D9C DUP4 PUSH1 0x1 PUSH2 0x44AE JUMP JUMPDEST PUSH1 0x0 DUP3 DUP2 MSTORE PUSH1 0x1 DUP10 ADD PUSH1 0x20 MSTORE PUSH1 0x40 SWAP1 KECCAK256 SSTORE DUP7 SLOAD DUP8 SWAP1 DUP1 PUSH2 0x3DCC JUMPI PUSH4 0x4E487B71 PUSH1 0xE0 SHL PUSH1 0x0 MSTORE PUSH1 0x31 PUSH1 0x4 MSTORE PUSH1 0x24 PUSH1 0x0 REVERT JUMPDEST PUSH1 0x1 SWAP1 SUB DUP2 DUP2 SWAP1 PUSH1 0x0 MSTORE PUSH1 0x20 PUSH1 0x0 KECCAK256 ADD PUSH1 0x0 SWAP1 SSTORE SWAP1 SSTORE DUP7 PUSH1 0x1 ADD PUSH1 0x0 DUP8 DUP2 MSTORE PUSH1 0x20 ADD SWAP1 DUP2 MSTORE PUSH1 0x20 ADD PUSH1 0x0 KECCAK256 PUSH1 0x0 SWAP1 SSTORE PUSH1 0x1 SWAP5 POP POP POP POP POP PUSH2 0xADC JUMP JUMPDEST PUSH1 0x0 SWAP2 POP POP PUSH2 0xADC JUMP JUMPDEST DUP3 DUP1 SLOAD PUSH2 0x3E1E SWAP1 PUSH2 0x453F JUMP JUMPDEST SWAP1 PUSH1 0x0 MSTORE PUSH1 0x20 PUSH1 0x0 KECCAK256 SWAP1 PUSH1 0x1F ADD PUSH1 0x20 SWAP1 DIV DUP2 ADD SWAP3 DUP3 PUSH2 0x3E40 JUMPI PUSH1 0x0 DUP6 SSTORE PUSH2 0x3E86 JUMP JUMPDEST DUP3 PUSH1 0x1F LT PUSH2 0x3E59 JUMPI DUP3 DUP1 ADD PUSH1 0xFF NOT DUP3 CALLDATALOAD AND OR DUP6 SSTORE PUSH2 0x3E86 JUMP JUMPDEST DUP3 DUP1 ADD PUSH1 0x1 ADD DUP6 SSTORE DUP3 ISZERO PUSH2 0x3E86 JUMPI SWAP2 DUP3 ADD JUMPDEST DUP3 DUP2 GT ISZERO PUSH2 0x3E86 JUMPI DUP3 CALLDATALOAD DUP3 SSTORE SWAP2 PUSH1 0x20 ADD SWAP2 SWAP1 PUSH1 0x1 ADD SWAP1 PUSH2 0x3E6B JUMP JUMPDEST POP PUSH2 0x3E92 SWAP3 SWAP2 POP PUSH2 0x3E96 JUMP JUMPDEST POP SWAP1 JUMP JUMPDEST JUMPDEST DUP1 DUP3 GT ISZERO PUSH2 0x3E92 JUMPI PUSH1 0x0 DUP2 SSTORE PUSH1 0x1 ADD PUSH2 0x3E97 JUMP JUMPDEST DUP1 CALLDATALOAD PUSH1 0x1 PUSH1 0x1 PUSH1 0xA0 SHL SUB DUP2 AND DUP2 EQ PUSH2 0x3EC2 JUMPI PUSH1 0x0 DUP1 REVERT JUMPDEST SWAP2 SWAP1 POP JUMP JUMPDEST PUSH1 0x0 DUP1 DUP4 PUSH1 0x1F DUP5 ADD SLT PUSH2 0x3ED8 JUMPI DUP2 DUP3 REVERT JUMPDEST POP DUP2 CALLDATALOAD PUSH8 0xFFFFFFFFFFFFFFFF DUP2 GT ISZERO PUSH2 0x3EEF JUMPI DUP2 DUP3 REVERT JUMPDEST PUSH1 0x20 DUP4 ADD SWAP2 POP DUP4 PUSH1 0x20 DUP3 PUSH1 0x5 SHL DUP6 ADD ADD GT ISZERO PUSH2 0x3F0A JUMPI PUSH1 0x0 DUP1 REVERT JUMPDEST SWAP3 POP SWAP3 SWAP1 POP JUMP JUMPDEST DUP1 CALLDATALOAD PUSH4 0xFFFFFFFF DUP2 AND DUP2 EQ PUSH2 0x3EC2 JUMPI PUSH1 0x0 DUP1 REVERT JUMPDEST PUSH1 0x0 PUSH1 0x20 DUP3 DUP5 SUB SLT ISZERO PUSH2 0x3F36 JUMPI DUP1 DUP2 REVERT JUMPDEST PUSH2 0x1E10 DUP3 PUSH2 0x3EAB JUMP JUMPDEST PUSH1 0x0 DUP1 PUSH1 0x40 DUP4 DUP6 SUB SLT ISZERO PUSH2 0x3F51 JUMPI DUP1 DUP2 REVERT JUMPDEST PUSH2 0x3F5A DUP4 PUSH2 0x3EAB JUMP JUMPDEST SWAP5 PUSH1 0x20 SWAP4 SWAP1 SWAP4 ADD CALLDATALOAD SWAP4 POP POP POP JUMP JUMPDEST PUSH1 0x0 DUP1 PUSH1 0x0 DUP1 PUSH1 0x0 DUP1 PUSH1 0x0 DUP1 PUSH1 0x80 DUP10 DUP12 SUB SLT ISZERO PUSH2 0x3F83 JUMPI DUP4 DUP5 REVERT JUMPDEST DUP9 CALLDATALOAD PUSH8 0xFFFFFFFFFFFFFFFF DUP1 DUP3 GT ISZERO PUSH2 0x3F9A JUMPI DUP6 DUP7 REVERT JUMPDEST PUSH2 0x3FA6 DUP13 DUP4 DUP14 ADD PUSH2 0x3EC7 JUMP JUMPDEST SWAP1 SWAP11 POP SWAP9 POP PUSH1 0x20 DUP12 ADD CALLDATALOAD SWAP2 POP DUP1 DUP3 GT ISZERO PUSH2 0x3FBE JUMPI DUP6 DUP7 REVERT JUMPDEST PUSH2 0x3FCA DUP13 DUP4 DUP14 ADD PUSH2 0x3EC7 JUMP JUMPDEST SWAP1 SWAP9 POP SWAP7 POP PUSH1 0x40 DUP12 ADD CALLDATALOAD SWAP2 POP DUP1 DUP3 GT ISZERO PUSH2 0x3FE2 JUMPI DUP6 DUP7 REVERT JUMPDEST PUSH2 0x3FEE DUP13 DUP4 DUP14 ADD PUSH2 0x3EC7 JUMP JUMPDEST SWAP1 SWAP7 POP SWAP5 POP PUSH1 0x60 DUP12 ADD CALLDATALOAD SWAP2 POP DUP1 DUP3 GT ISZERO PUSH2 0x4006 JUMPI DUP4 DUP5 REVERT JUMPDEST POP PUSH2 0x4013 DUP12 DUP3 DUP13 ADD PUSH2 0x3EC7 JUMP JUMPDEST SWAP10 SWAP13 SWAP9 SWAP12 POP SWAP7 SWAP10 POP SWAP5 SWAP8 SWAP4 SWAP7 SWAP3 SWAP6 SWAP5 POP POP POP JUMP JUMPDEST PUSH1 0x0 PUSH1 0x20 DUP3 DUP5 SUB SLT ISZERO PUSH2 0x4038 JUMPI DUP1 DUP2 REVERT JUMPDEST DUP2 MLOAD DUP1 ISZERO ISZERO DUP2 EQ PUSH2 0x1E10 JUMPI DUP2 DUP3 REVERT JUMPDEST PUSH1 0x0 PUSH1 0x20 DUP3 DUP5 SUB SLT ISZERO PUSH2 0x4058 JUMPI DUP1 DUP2 REVERT JUMPDEST POP CALLDATALOAD SWAP2 SWAP1 POP JUMP JUMPDEST PUSH1 0x0 DUP1 PUSH1 0x40 DUP4 DUP6 SUB SLT ISZERO PUSH2 0x4071 JUMPI DUP2 DUP3 REVERT JUMPDEST DUP3 CALLDATALOAD SWAP2 POP PUSH2 0x4081 PUSH1 0x20 DUP5 ADD PUSH2 0x3EAB JUMP JUMPDEST SWAP1 POP SWAP3 POP SWAP3 SWAP1 POP JUMP JUMPDEST PUSH1 0x0 DUP1 PUSH1 0x40 DUP4 DUP6 SUB SLT ISZERO PUSH2 0x409C JUMPI DUP2 DUP3 REVERT JUMPDEST POP POP DUP1 CALLDATALOAD SWAP3 PUSH1 0x20 SWAP1 SWAP2 ADD CALLDATALOAD SWAP2 POP JUMP JUMPDEST PUSH1 0x0 DUP1 PUSH1 0x0 DUP1 PUSH1 0x80 DUP6 DUP8 SUB SLT ISZERO PUSH2 0x40C0 JUMPI DUP4 DUP5 REVERT JUMPDEST POP POP DUP3 CALLDATALOAD SWAP5 PUSH1 0x20 DUP5 ADD CALLDATALOAD SWAP5 POP PUSH1 0x40 DUP5 ADD CALLDATALOAD SWAP4 PUSH1 0x60 ADD CALLDATALOAD SWAP3 POP SWAP1 POP JUMP JUMPDEST PUSH1 0x0 PUSH1 0x20 DUP3 DUP5 SUB SLT ISZERO PUSH2 0x40ED JUMPI DUP1 DUP2 REVERT JUMPDEST DUP2 CALLDATALOAD PUSH1 0x1 PUSH1 0x1 PUSH1 0xE0 SHL SUB NOT DUP2 AND DUP2 EQ PUSH2 0x1E10 JUMPI DUP2 DUP3 REVERT JUMPDEST PUSH1 0x0 DUP1 PUSH1 0x20 DUP4 DUP6 SUB SLT ISZERO PUSH2 0x4116 JUMPI DUP2 DUP3 REVERT JUMPDEST DUP3 CALLDATALOAD PUSH8 0xFFFFFFFFFFFFFFFF DUP1 DUP3 GT ISZERO PUSH2 0x412D JUMPI DUP4 DUP5 REVERT JUMPDEST DUP2 DUP6 ADD SWAP2 POP DUP6 PUSH1 0x1F DUP4 ADD SLT PUSH2 0x4140 JUMPI DUP4 DUP5 REVERT JUMPDEST DUP2 CALLDATALOAD DUP2 DUP2 GT ISZERO PUSH2 0x414E JUMPI DUP5 DUP6 REVERT JUMPDEST DUP7 PUSH1 0x20 DUP3 DUP6 ADD ADD GT ISZERO PUSH2 0x415F JUMPI DUP5 DUP6 REVERT JUMPDEST PUSH1 0x20 SWAP3 SWAP1 SWAP3 ADD SWAP7 SWAP2 SWAP6 POP SWAP1 SWAP4 POP POP POP POP JUMP JUMPDEST PUSH1 0x0 PUSH1 0x20 DUP3 DUP5 SUB SLT ISZERO PUSH2 0x4182 JUMPI DUP1 DUP2 REVERT JUMPDEST POP MLOAD SWAP2 SWAP1 POP JUMP JUMPDEST PUSH1 0x0 DUP1 PUSH1 0x0 PUSH1 0x60 DUP5 DUP7 SUB SLT ISZERO PUSH2 0x419D JUMPI DUP3 DUP4 REVERT JUMPDEST DUP4 CALLDATALOAD SWAP3 POP PUSH1 0x20 DUP5 ADD CALLDATALOAD SWAP2 POP PUSH2 0x41B4 PUSH1 0x40 DUP6 ADD PUSH2 0x3EAB JUMP JUMPDEST SWAP1 POP SWAP3 POP SWAP3 POP SWAP3 JUMP JUMPDEST PUSH1 0x0 PUSH1 0x20 DUP3 DUP5 SUB SLT ISZERO PUSH2 0x41CE JUMPI DUP1 DUP2 REVERT JUMPDEST PUSH2 0x1E10 DUP3 PUSH2 0x3F11 JUMP JUMPDEST PUSH1 0x0 DUP1 PUSH1 0x40 DUP4 DUP6 SUB SLT ISZERO PUSH2 0x41E9 JUMPI DUP2 DUP3 REVERT JUMPDEST PUSH2 0x41F2 DUP4 PUSH2 0x3F11 JUMP JUMPDEST SWAP2 POP PUSH2 0x4081 PUSH1 0x20 DUP5 ADD PUSH2 0x3EAB JUMP JUMPDEST PUSH1 0x0 DUP1 PUSH1 0x0 PUSH1 0x60 DUP5 DUP7 SUB SLT ISZERO PUSH2 0x4214 JUMPI DUP1 DUP2 REVERT JUMPDEST PUSH2 0x421D DUP5 PUSH2 0x3F11 JUMP JUMPDEST SWAP3 POP PUSH2 0x422B PUSH1 0x20 DUP6 ADD PUSH2 0x3EAB JUMP JUMPDEST SWAP2 POP PUSH1 0x40 DUP5 ADD CALLDATALOAD SWAP1 POP SWAP3 POP SWAP3 POP SWAP3 JUMP JUMPDEST PUSH1 0x0 DUP1 PUSH1 0x0 DUP1 PUSH1 0x0 DUP1 PUSH1 0x0 PUSH1 0x80 DUP9 DUP11 SUB SLT ISZERO PUSH2 0x4255 JUMPI DUP1 DUP2 REVERT JUMPDEST PUSH2 0x425E DUP9 PUSH2 0x3F11 JUMP JUMPDEST SWAP7 POP PUSH1 0x20 DUP9 ADD CALLDATALOAD PUSH8 0xFFFFFFFFFFFFFFFF DUP1 DUP3 GT ISZERO PUSH2 0x427A JUMPI DUP3 DUP4 REVERT JUMPDEST PUSH2 0x4286 DUP12 DUP4 DUP13 ADD PUSH2 0x3EC7 JUMP JUMPDEST SWAP1 SWAP9 POP SWAP7 POP PUSH1 0x40 DUP11 ADD CALLDATALOAD SWAP2 POP DUP1 DUP3 GT ISZERO PUSH2 0x429E JUMPI DUP3 DUP4 REVERT JUMPDEST PUSH2 0x42AA DUP12 DUP4 DUP13 ADD PUSH2 0x3EC7 JUMP JUMPDEST SWAP1 SWAP7 POP SWAP5 POP PUSH1 0x60 DUP11 ADD CALLDATALOAD SWAP2 POP DUP1 DUP3 GT ISZERO PUSH2 0x42C2 JUMPI DUP3 DUP4 REVERT JUMPDEST POP PUSH2 0x42CF DUP11 DUP3 DUP12 ADD PUSH2 0x3EC7 JUMP JUMPDEST SWAP9 SWAP12 SWAP8 SWAP11 POP SWAP6 SWAP9 POP SWAP4 SWAP7 SWAP3 SWAP6 SWAP3 SWAP4 POP POP POP JUMP JUMPDEST PUSH1 0x0 DUP1 PUSH1 0x0 DUP1 PUSH1 0x0 DUP1 PUSH1 0x80 DUP8 DUP10 SUB SLT ISZERO PUSH2 0x42FA JUMPI DUP4 DUP5 REVERT JUMPDEST PUSH2 0x4303 DUP8 PUSH2 0x3F11 JUMP JUMPDEST SWAP6 POP PUSH1 0x20 DUP8 ADD CALLDATALOAD PUSH8 0xFFFFFFFFFFFFFFFF DUP1 DUP3 GT ISZERO PUSH2 0x431F JUMPI DUP6 DUP7 REVERT JUMPDEST PUSH2 0x432B DUP11 DUP4 DUP12 ADD PUSH2 0x3EC7 JUMP JUMPDEST SWAP1 SWAP8 POP SWAP6 POP PUSH1 0x40 DUP10 ADD CALLDATALOAD SWAP5 POP PUSH1 0x60 DUP10 ADD CALLDATALOAD SWAP2 POP DUP1 DUP3 GT ISZERO PUSH2 0x434A JUMPI DUP4 DUP5 REVERT JUMPDEST POP PUSH2 0x4357 DUP10 DUP3 DUP11 ADD PUSH2 0x3EC7 JUMP JUMPDEST SWAP8 SWAP11 SWAP7 SWAP10 POP SWAP5 SWAP8 POP SWAP3 SWAP6 SWAP4 SWAP5 SWAP3 POP POP POP JUMP JUMPDEST PUSH1 0x0 DUP1 PUSH1 0x40 DUP4 DUP6 SUB SLT ISZERO PUSH2 0x437B JUMPI DUP2 DUP3 REVERT JUMPDEST PUSH2 0x3F5A DUP4 PUSH2 0x3F11 JUMP JUMPDEST PUSH1 0x0 DUP1 PUSH1 0x0 PUSH1 0x60 DUP5 DUP7 SUB SLT ISZERO PUSH2 0x4398 JUMPI DUP1 DUP2 REVERT JUMPDEST PUSH2 0x43A1 DUP5 PUSH2 0x3F11 JUMP JUMPDEST SWAP6 PUSH1 0x20 DUP6 ADD CALLDATALOAD SWAP6 POP PUSH1 0x40 SWAP1 SWAP5 ADD CALLDATALOAD SWAP4 SWAP3 POP POP POP JUMP JUMPDEST PUSH1 0x0 PUSH1 0x20 DUP3 DUP5 SUB SLT ISZERO PUSH2 0x43C7 JUMPI DUP1 DUP2 REVERT JUMPDEST DUP2 CALLDATALOAD PUSH1 0xFF DUP2 AND DUP2 EQ PUSH2 0x1E10 JUMPI DUP2 DUP3 REVERT JUMPDEST PUSH1 0x20 DUP1 DUP3 MSTORE DUP3 MLOAD DUP3 DUP3 ADD DUP2 SWAP1 MSTORE PUSH1 0x0 SWAP2 SWAP1 DUP5 DUP3 ADD SWAP1 PUSH1 0x40 DUP6 ADD SWAP1 DUP5 JUMPDEST DUP2 DUP2 LT ISZERO PUSH2 0x4418 JUMPI DUP4 MLOAD PUSH1 0x1 PUSH1 0x1 PUSH1 0xA0 SHL SUB AND DUP4 MSTORE SWAP3 DUP5 ADD SWAP3 SWAP2 DUP5 ADD SWAP2 PUSH1 0x1 ADD PUSH2 0x43F3 JUMP JUMPDEST POP SWAP1 SWAP7 SWAP6 POP POP POP POP POP POP JUMP JUMPDEST PUSH1 0x0 PUSH1 0x20 DUP1 DUP4 MSTORE DUP4 MLOAD DUP1 DUP3 DUP6 ADD MSTORE DUP3 JUMPDEST DUP2 DUP2 LT ISZERO PUSH2 0x4450 JUMPI DUP6 DUP2 ADD DUP4 ADD MLOAD DUP6 DUP3 ADD PUSH1 0x40 ADD MSTORE DUP3 ADD PUSH2 0x4434 JUMP JUMPDEST DUP2 DUP2 GT ISZERO PUSH2 0x4461 JUMPI DUP4 PUSH1 0x40 DUP4 DUP8 ADD ADD MSTORE JUMPDEST POP PUSH1 0x1F ADD PUSH1 0x1F NOT AND SWAP3 SWAP1 SWAP3 ADD PUSH1 0x40 ADD SWAP4 SWAP3 POP POP POP JUMP JUMPDEST PUSH1 0x20 DUP1 DUP3 MSTORE PUSH1 0x17 SWAP1 DUP3 ADD MSTORE PUSH32 0x43616C6C657220697320756E617574686F72697A65642E000000000000000000 PUSH1 0x40 DUP3 ADD MSTORE PUSH1 0x60 ADD SWAP1 JUMP JUMPDEST PUSH1 0x0 DUP3 NOT DUP3 GT ISZERO PUSH2 0x44C1 JUMPI PUSH2 0x44C1 PUSH2 0x45B9 JUMP JUMPDEST POP ADD SWAP1 JUMP JUMPDEST PUSH1 0x0 DUP3 PUSH2 0x44E1 JUMPI PUSH4 0x4E487B71 PUSH1 0xE0 SHL DUP2 MSTORE PUSH1 0x12 PUSH1 0x4 MSTORE PUSH1 0x24 DUP2 REVERT JUMPDEST POP DIV SWAP1 JUMP JUMPDEST PUSH1 0x0 DUP2 PUSH1 0x0 NOT DIV DUP4 GT DUP3 ISZERO ISZERO AND ISZERO PUSH2 0x4500 JUMPI PUSH2 0x4500 PUSH2 0x45B9 JUMP JUMPDEST POP MUL SWAP1 JUMP JUMPDEST PUSH1 0x0 DUP3 DUP3 LT ISZERO PUSH2 0x4517 JUMPI PUSH2 0x4517 PUSH2 0x45B9 JUMP JUMPDEST POP SUB SWAP1 JUMP JUMPDEST PUSH1 0x0 PUSH1 0xFF DUP3 AND PUSH1 0xFF DUP5 AND DUP1 DUP3 LT ISZERO PUSH2 0x4536 JUMPI PUSH2 0x4536 PUSH2 0x45B9 JUMP JUMPDEST SWAP1 SUB SWAP4 SWAP3 POP POP POP JUMP JUMPDEST PUSH1 0x1 DUP2 DUP2 SHR SWAP1 DUP3 AND DUP1 PUSH2 0x4553 JUMPI PUSH1 0x7F DUP3 AND SWAP2 POP JUMPDEST PUSH1 0x20 DUP3 LT DUP2 EQ ISZERO PUSH2 0x4574 JUMPI PUSH4 0x4E487B71 PUSH1 0xE0 SHL PUSH1 0x0 MSTORE PUSH1 0x22 PUSH1 0x4 MSTORE PUSH1 0x24 PUSH1 0x0 REVERT JUMPDEST POP SWAP2 SWAP1 POP JUMP JUMPDEST PUSH1 0x0 PUSH1 0x0 NOT DUP3 EQ ISZERO PUSH2 0x458E JUMPI PUSH2 0x458E PUSH2 0x45B9 JUMP JUMPDEST POP PUSH1 0x1 ADD SWAP1 JUMP JUMPDEST PUSH1 0x0 PUSH4 0xFFFFFFFF DUP1 DUP4 AND DUP2 DUP2 EQ ISZERO PUSH2 0x45AF JUMPI PUSH2 0x45AF PUSH2 0x45B9 JUMP JUMPDEST PUSH1 0x1 ADD SWAP4 SWAP3 POP POP POP JUMP JUMPDEST PUSH4 0x4E487B71 PUSH1 0xE0 SHL PUSH1 0x0 MSTORE PUSH1 0x11 PUSH1 0x4 MSTORE PUSH1 0x24 PUSH1 0x0 REVERT INVALID 0xA7 0xC3 PUSH27 0x885C101433A066F48B62753BEB2A7567FE326B80D58772C6EF61E2 DUP3 0xE7 0xC6 0x49 PUSH28 0xD1AF5627A7B5DC7995C3C9C668C87BD99DDC7E1609BA9724FE0E860 0xB5 NUMBER PUSH16 0x6D7065746974696F6E202D2075706461 PUSH21 0x655375626D697373696F6E3A20A264697066735822 SLT KECCAK256 RETURNDATASIZE 0x2C ISZERO 0xC4 MSTORE8 0xC9 0xF6 0xEB 0xF7 PUSH28 0x10C30E38F4A1F1F0B753D92AC42FD5B146992F6691C964736F6C6343 STOP ADDMOD DIV STOP CALLER ",
  "sha1": "d4eb45533785a5339eec243883fbda03e047dc59",
  "source": "pragma solidity 0.8.4;\n\n// SPDX-License-Identifier: MIT\n\nimport './../interfaces/ICompetition.sol';\nimport './../interfaces/IToken.sol';\nimport './CompetitionStorage.sol';\nimport './AccessControlRci.sol';\nimport './standard/proxy/utils/Initializable.sol';\n\n/**\n * @title RCI Tournament(Competition) Contract\n * @author Rocket Capital Investment Pte Ltd\n * @dev This contract manages registration and reward payouts for the RCI Tournament.\n * @dev IPFS hash format: Hash Identifier (2 bytes), Actual Hash (May eventually take on other formats but currently 32 bytes)\n *\n */\ncontract Competition is AccessControlRci, ICompetition, CompetitionStorage, Initializable {\n\n    constructor(){}\n\n    function initialize(uint256 stakeThreshold_, uint256 rewardsThreshold_, address tokenAddress_)\n    external\n    initializer\n    {\n        require(tokenAddress_ != address(0), \"No token address found.\");\n        _initializeRciAdmin();\n        _stakeThreshold = stakeThreshold_;\n        _rewardsThreshold = rewardsThreshold_;\n        _token = IToken(tokenAddress_);\n        _challengeCounter = 0;\n        _challenges[_challengeCounter].phase = 4;\n        _challengeRewardsPercentageInWei = 20e16;\n        _tournamentRewardsPercentageInWei = 60e16;\n    }\n\n    /**\n    PARTICIPANT WRITE METHODS\n    **/\n\n    function increaseStake(address staker, uint256 amountToken)\n    external override\n    returns (bool success)\n    {\n        uint32 challengeNumber = _challengeCounter;\n        require(msg.sender == address(_token), \"Competition - increaseStake: Please call this function via the token contract.\");\n        require(_challenges[challengeNumber].phase != 2, \"Competition - increaseStake: Please wait for the staking period to unlock before modifying your stake.\");\n\n        uint256 currentBal = _stakes[staker];\n        if (_challenges[challengeNumber].submitterInfo[staker].submission != bytes32(0)){\n            _challenges[challengeNumber].submitterInfo[staker].staked = currentBal + amountToken;\n        }\n\n        _stakes[staker] = currentBal + amountToken;\n        _currentTotalStaked += amountToken;\n\n        success = true;\n\n        emit StakeIncreased(staker, amountToken);\n    }\n\n    function decreaseStake(address staker, uint256 amountToken)\n    external override\n    returns (bool success)\n    {\n        uint32 challengeNumber = _challengeCounter;\n        require(msg.sender == address(_token), \"Competition - decreaseStake: Please call this function via the token contract.\");\n        require(_challenges[_challengeCounter].phase != 2, \"Competition - decreaseStake: Please wait for the staking period to unlock before modifying your stake.\");\n\n        uint256 currentBal = _stakes[staker];\n        require(amountToken <= currentBal, \"Competition - decreaseStake: Insufficient funds for withdrawal.\");\n\n        if (_challenges[challengeNumber].submitterInfo[staker].submission != bytes32(0)){\n            require((currentBal - amountToken) >= _stakeThreshold, \"Competition - decreaseStake: You may not lower your stake below the threshold while you have an existing submission.\");\n            _challenges[challengeNumber].submitterInfo[staker].staked = currentBal - amountToken;\n        }\n\n        _stakes[staker] = currentBal - amountToken;\n        _currentTotalStaked -= amountToken;\n        success = _token.transfer(staker, amountToken);\n\n        emit StakeDecreased(staker, amountToken);\n    }\n\n    function submitNewPredictions(bytes32 submissionHash)\n    external override\n    returns (uint32 challengeNumber)\n    {\n        uint256 currentBal = _stakes[msg.sender];\n        require(currentBal >= _stakeThreshold, \"Competition - submitNewPredictions: Stake is below threshold.\");\n        challengeNumber = _updateSubmission(bytes32(0), submissionHash);\n        EnumerableSet.add(_challenges[challengeNumber].submitters, msg.sender);\n        _challenges[challengeNumber].submitterInfo[msg.sender].staked = currentBal;\n    }\n\n    function updateSubmission(bytes32 oldSubmissionHash, bytes32 newSubmissionHash)\n    external override\n    returns (uint32 challengeNumber)\n    {\n        require(oldSubmissionHash != bytes32(0), \"Competition - updateSubmission: Must have pre-existing submission.\");\n        challengeNumber = _updateSubmission(oldSubmissionHash, newSubmissionHash);\n\n        if (newSubmissionHash == bytes32(0)){\n            EnumerableSet.remove(_challenges[challengeNumber].submitters, msg.sender);\n            _challenges[challengeNumber].submitterInfo[msg.sender].staked = 0;\n        }\n    }\n\n    function _updateSubmission(bytes32 oldSubmissionHash, bytes32 newSubmissionHash)\n    private\n    returns (uint32 challengeNumber)\n    {\n        challengeNumber = _challengeCounter;\n        require(_challenges[challengeNumber].phase == 1, \"Competition - updateSubmission: Not available for submissions.\");\n        require(oldSubmissionHash != newSubmissionHash, \"Competition - updateSubmission: Cannot update with the same hash as before.\");\n        require(_challenges[challengeNumber].submitterInfo[msg.sender].submission == oldSubmissionHash,\n                \"Competition - updateSubmission: Clash in existing submission hash.\");\n        _challenges[challengeNumber].submitterInfo[msg.sender].submission = newSubmissionHash;\n\n        emit SubmissionUpdated(challengeNumber, msg.sender, newSubmissionHash);\n    }\n\n    /**\n    ORGANIZER WRITE METHODS\n    **/\n    function updateMessage(string calldata newMessage)\n    external override onlyAdmin\n    returns (bool success)\n    {\n        _message = newMessage;\n        success = true;\n\n        emit MessageUpdated();\n    }\n\n    function updateDeadlines(uint32 challengeNumber, uint256 index, uint256 timestamp)\n    external override onlyAdmin\n    returns (bool success)\n    {\n        success = _updateDeadlines(challengeNumber, index, timestamp);\n    }\n\n    function _updateDeadlines(uint32 challengeNumber, uint256 index, uint256 timestamp)\n    private\n    returns (bool success)\n    {\n        _challenges[challengeNumber].deadlines[index] = timestamp;\n        success = true;\n    }\n\n    function updateRewardsThreshold(uint256 newThreshold)\n    external override onlyAdmin\n    returns (bool success)\n    {\n        _rewardsThreshold = newThreshold;\n        success = true;\n\n        emit RewardsThresholdUpdated(newThreshold);\n    }\n\n    function updateStakeThreshold(uint256 newStakeThreshold)\n    external override onlyAdmin\n    returns (bool success)\n    {\n        _stakeThreshold = newStakeThreshold;\n        success = true;\n\n        emit StakeThresholdUpdated(newStakeThreshold);\n    }\n\n    function updateChallengeRewardsPercentageInWei(uint256 newPercentage)\n    external override onlyAdmin\n    returns (bool success)\n    {\n        _challengeRewardsPercentageInWei = newPercentage;\n        success = true;\n\n        emit ChallengeRewardsPercentageInWeiUpdated(newPercentage);\n    }\n\n    function updateTournamentRewardsPercentageInWei(uint256 newPercentage)\n    external override onlyAdmin\n    returns (bool success)\n    {\n        _tournamentRewardsPercentageInWei = newPercentage;\n        success = true;\n\n        emit TournamentRewardsPercentageInWeiUpdated(newPercentage);\n    }\n\n\n    function updatePrivateKey(uint32 challengeNumber, bytes32 newKeyHash)\n    external override onlyAdmin\n    returns (bool success)\n    {\n        _challenges[challengeNumber].privateKey = newKeyHash;\n        success = true;\n\n        emit PrivateKeyUpdated(newKeyHash);\n    }\n\n    function openChallenge(bytes32 datasetHash, bytes32 keyHash, uint256 submissionCloseDeadline, uint256 nextChallengeDeadline)\n    external override onlyAdmin\n    returns (bool success)\n    {\n        uint32 challengeNumber = _challengeCounter;\n        require(_challenges[challengeNumber].phase == 4, \"Competition - openChallenge: Previous phase is incomplete.\");\n        require(_competitionPool >= _rewardsThreshold, \"Competiton - openChallenge: Not enough rewards.\");\n\n        challengeNumber++;\n\n        _challenges[challengeNumber].phase = 1;\n        _challengeCounter = challengeNumber;\n\n        _updateDataset(challengeNumber, bytes32(0), datasetHash);\n        _updateKey(challengeNumber, bytes32(0), keyHash);\n\n        _currentChallengeRewardsBudget = _competitionPool * _challengeRewardsPercentageInWei/(1e18);\n        _currentTournamentRewardsBudget = _competitionPool * _tournamentRewardsPercentageInWei/(1e18);\n        _currentStakingRewardsBudget = _competitionPool - _currentChallengeRewardsBudget - _currentTournamentRewardsBudget;\n\n        _updateDeadlines(challengeNumber, 0, submissionCloseDeadline);\n        _updateDeadlines(challengeNumber, 1, nextChallengeDeadline);\n\n        success = true;\n\n        emit ChallengeOpened(challengeNumber);\n    }\n\n    function updateDataset(bytes32 oldDatasetHash, bytes32 newDatasetHash)\n    external override onlyAdmin\n    returns (bool success)\n    {\n        uint32 challengeNumber = _challengeCounter;\n        require(_challenges[challengeNumber].phase == 1, \"Competition - updateDataset: Challenge is closed.\");\n        require(oldDatasetHash != bytes32(0), \"Competition - updateDataset: Must have pre-existing dataset.\");\n        success = _updateDataset(challengeNumber, oldDatasetHash, newDatasetHash);\n    }\n\n    function updateKey(bytes32 oldKeyHash, bytes32 newKeyHash)\n    external override onlyAdmin\n    returns (bool success)\n    {\n        uint32 challengeNumber = _challengeCounter;\n        require(_challenges[challengeNumber].phase == 1, \"Competition - updateKey: Challenge is closed.\");\n        require(oldKeyHash != bytes32(0), \"Competition - updateKey: Must have pre-existing key.\");\n        success = _updateKey(challengeNumber, oldKeyHash, newKeyHash);\n    }\n\n    function _updateDataset(uint32 challengeNumber, bytes32 oldDatasetHash, bytes32 newDatasetHash)\n    private\n    returns (bool success)\n    {\n        require(oldDatasetHash != newDatasetHash, \"Competition - updateDataset: Cannot update with the same hash as before.\");\n        require(_challenges[challengeNumber].dataset == oldDatasetHash, \"Competition - updateDataset: Incorrect old dataset reference.\");\n        _challenges[challengeNumber].dataset = newDatasetHash;\n        success = true;\n\n        emit DatasetUpdated(challengeNumber, oldDatasetHash, newDatasetHash);\n    }\n\n    function _updateKey(uint32 challengeNumber, bytes32 oldKeyHash, bytes32 newKeyHash)\n    private\n    returns (bool success)\n    {\n        require(oldKeyHash != newKeyHash, \"Competition - _updateKey: Cannot update with the same hash as before.\");\n        require(_challenges[challengeNumber].key == oldKeyHash, \"Competition - _updateKey: Incorrect old key reference.\");\n        _challenges[challengeNumber].key = newKeyHash;\n        success = true;\n\n        emit KeyUpdated(challengeNumber, oldKeyHash, newKeyHash);\n    }\n\n    function closeSubmission()\n    external override onlyAdmin\n    returns (bool success)\n    {\n        uint32 challengeNumber = _challengeCounter;\n        require(_challenges[challengeNumber].phase == 1, \"Competition - closeSubmission: Challenge in unexpected state.\");\n        _challenges[challengeNumber].phase = 2;\n        success = true;\n\n        emit SubmissionClosed(challengeNumber);\n    }\n\n    function submitResults(bytes32 resultsHash)\n    external override onlyAdmin\n    returns (bool success)\n    {\n        success = _updateResults(bytes32(0), resultsHash);\n    }\n\n    function updateResults(bytes32 oldResultsHash, bytes32 newResultsHash)\n    external override onlyAdmin\n    returns (bool success)\n    {\n        require(oldResultsHash != bytes32(0), \"Competition - updateResults: Must have pre-existing results.\");\n        success = _updateResults(oldResultsHash, newResultsHash);\n    }\n\n    function _updateResults(bytes32 oldResultsHash, bytes32 newResultsHash)\n    private\n    returns (bool success)\n    {\n        require(oldResultsHash != newResultsHash, \"Competition - updateResults: Cannot update with the same hash as before.\");\n        uint32 challengeNumber = _challengeCounter;\n        require(_challenges[challengeNumber].phase >= 3, \"Competition - updateResults: Challenge in unexpected state.\");\n        require(_challenges[challengeNumber].results == oldResultsHash, \"Competition - updateResults: Clash in existing results hash.\");\n        _challenges[challengeNumber].results = newResultsHash;\n        success = true;\n\n        emit ResultsUpdated(challengeNumber, oldResultsHash, newResultsHash);\n    }\n\n    function payRewards(address[] calldata submitters, uint256[] calldata stakingRewards, uint256[] calldata challengeRewards, uint256[] calldata tournamentRewards)\n    external override onlyAdmin\n    returns (bool success)\n    {\n        success = _payRewards(_challengeCounter, submitters, stakingRewards, challengeRewards, tournamentRewards);\n    }\n\n    function _payRewards(uint32 challengeNumber, address[] calldata submitters, uint256[] calldata stakingRewards, uint256[] calldata challengeRewards, uint256[] calldata tournamentRewards)\n    private\n    returns (bool success)\n    {\n        require(_challenges[challengeNumber].phase >= 3, \"Competition - payRewards: Challenge is in unexpected state.\");\n        require((submitters.length == stakingRewards.length) &&\n            (submitters.length == challengeRewards.length) &&\n            (submitters.length == tournamentRewards.length),\n            \"Competition - payRewards: Number of submitters and rewards are different.\");\n\n        uint256 totalStakingAmount;\n        uint256 totalChallengeAmount;\n        uint256 totalTournamentAmount;\n\n        for (uint i = 0; i < submitters.length; i++)\n        {\n            // read directly from the list since the list is already in memory(calldata), and to avoid stack too deep errors.\n            totalStakingAmount += stakingRewards[i];\n            totalChallengeAmount += challengeRewards[i];\n            totalTournamentAmount += tournamentRewards[i];\n\n            _paySingleAddress(challengeNumber, submitters[i], stakingRewards[i], challengeRewards[i], tournamentRewards[i]);\n        }\n\n        // allow for reverting on underflow\n        _currentStakingRewardsBudget -= totalStakingAmount;\n        _currentChallengeRewardsBudget -= totalChallengeAmount;\n        _currentTournamentRewardsBudget -= totalTournamentAmount;\n\n        _competitionPool -= totalStakingAmount + totalChallengeAmount + totalTournamentAmount;\n        _currentTotalStaked += totalStakingAmount + totalChallengeAmount + totalTournamentAmount;\n        success = true;\n\n        _logRewardsPaid(challengeNumber, totalStakingAmount, totalChallengeAmount, totalTournamentAmount);\n    }\n\n    function _paySingleAddress(uint32 challengeNumber, address submitter, uint256 stakingReward, uint256 challengeReward, uint256 tournamentReward)\n    private\n    {\n        _stakes[submitter] += stakingReward + challengeReward + tournamentReward;\n\n        if (stakingReward > 0){\n            _challenges[challengeNumber].submitterInfo[submitter].stakingRewards += stakingReward;\n        }\n\n        if (challengeReward > 0){\n            _challenges[challengeNumber].submitterInfo[submitter].challengeRewards += challengeReward;\n        }\n\n        if (tournamentReward > 0){\n            _challenges[challengeNumber].submitterInfo[submitter].tournamentRewards += tournamentReward;\n        }\n\n        emit RewardsPayment(challengeNumber, submitter, stakingReward, challengeReward, tournamentReward);\n    }\n\n    function _logRewardsPaid(uint32 challengeNumber, uint256 totalStakingAmount, uint256 totalChallengeAmount, uint256 totalTournamentAmount)\n    private\n    {\n        emit TotalRewardsPaid(challengeNumber, totalStakingAmount, totalChallengeAmount, totalTournamentAmount);\n    }\n\n    function updateChallengeAndTournamentScores(uint32 challengeNumber, address[] calldata participants, uint256[] calldata challengeScores, uint256[] calldata tournamentScores)\n    external override onlyAdmin\n    returns (bool success)\n    {\n        require(_challenges[challengeNumber].phase >= 3, \"Competition - updateChallengeAndTournamentScores: Challenge is in unexpected state.\");\n        require((participants.length == challengeScores.length) && (participants.length == tournamentScores.length), \"Competition - updateChallengeAndTournamentScores: Number of participants and scores are different.\");\n\n        for (uint i = 0; i < participants.length; i++)\n        {\n        // read directly from the list since the list is already in memory(calldata), and to avoid stack too deep errors.\n\n            _challenges[challengeNumber].submitterInfo[participants[i]].challengeScores = challengeScores[i];\n            _challenges[challengeNumber].submitterInfo[participants[i]].tournamentScores = tournamentScores[i];\n        }\n\n        success = true;\n\n        emit ChallengeAndTournamentScoresUpdated(challengeNumber);\n    }\n\n    function updateInformationBatch(uint32 challengeNumber, address[] calldata participants, uint256 itemNumber, uint[] calldata values)\n    external override onlyAdmin\n    returns (bool success)\n    {\n        require(_challenges[challengeNumber].phase >= 3, \"Competition - updateInformationBatch: Challenge is in unexpected state.\");\n        require(participants.length == values.length, \"Competition - updateInformationBatch: Number of participants and values are different.\");\n\n        for (uint i = 0; i < participants.length; i++)\n        {\n            _challenges[challengeNumber].submitterInfo[participants[i]].info[itemNumber] = values[i];\n        }\n        success = true;\n\n        emit BatchInformationUpdated(challengeNumber, itemNumber);\n    }\n\n    function advanceToPhase(uint8 phase)\n    external override onlyAdmin\n    returns (bool success)\n    {\n        uint32 challengeNumber = _challengeCounter;\n        require((2 < phase) && (phase < 5), \"Competition - advanceToPhase: You may only use this method for advancing to phases 3 or 4.\" );\n        require((phase-1) == _challenges[challengeNumber].phase, \"Competition - advanceToPhase: You may only advance to the next phase.\");\n        _challenges[challengeNumber].phase = phase;\n\n        success = true;\n    }\n\n    function moveRemainderToPool()\n    external override onlyAdmin\n    returns (bool success)\n    {\n        require(_challenges[_challengeCounter].phase == 4, \"Competition - moveRemainderToPool: PLease wait for the challenge to complete before sponsoring.\");\n        uint256 remainder = getRemainder();\n        require(remainder > 0, \"Competition - moveRemainderToPool: No remainder to move.\");\n        _competitionPool += remainder;\n        success = true;\n\n        emit RemainderMovedToPool(remainder);\n    }\n\n    /**\n    READ METHODS\n    **/\n\n    function getCompetitionPool()\n    view external override\n    returns (uint256 competitionPool)\n    {\n        competitionPool = _competitionPool;\n    }\n\n    function getRewardsThreshold()\n    view external override\n    returns (uint256 rewardsThreshold)\n    {\n        rewardsThreshold = _rewardsThreshold;\n    }\n\n    function getCurrentTotalStaked()\n    view external override\n    returns (uint256 currentTotalStaked)\n    {\n        currentTotalStaked = _currentTotalStaked;\n    }\n\n    function getCurrentStakingRewardsBudget()\n    view external override\n    returns (uint256 currentStakingRewardsBudget)\n    {\n        currentStakingRewardsBudget = _currentStakingRewardsBudget;\n    }\n\n    function getCurrentChallengeRewardsBudget()\n    view external override\n    returns (uint256 currentChallengeRewardsBudget)\n    {\n        currentChallengeRewardsBudget = _currentChallengeRewardsBudget;\n    }\n\n    function getCurrentTournamentRewardsBudget()\n    view external override\n    returns (uint256 currentTournamentRewardsBudget)\n    {\n        currentTournamentRewardsBudget = _currentTournamentRewardsBudget;\n    }\n\n    function getChallengeRewardsPercentageInWei()\n    view external override\n    returns (uint256 challengeRewardsPercentageInWei)\n    {\n        challengeRewardsPercentageInWei = _challengeRewardsPercentageInWei;\n    }\n\n    function getTournamentRewardsPercentageInWei()\n    view external override\n    returns (uint256 tournamentRewardsPercentageInWei)\n    {\n        tournamentRewardsPercentageInWei = _tournamentRewardsPercentageInWei;\n    }\n\n    function getLatestChallengeNumber()\n    view external override\n    returns (uint32 latestChallengeNumber)\n    {\n        latestChallengeNumber = _challengeCounter;\n    }\n\n    function getDatasetHash(uint32 challengeNumber)\n    view external override\n    returns (bytes32 dataset)\n    {\n        dataset = _challenges[challengeNumber].dataset;\n    }\n\n    function getResultsHash(uint32 challengeNumber)\n    view external override\n    returns (bytes32 results)\n    {\n        results = _challenges[challengeNumber].results;\n    }\n\n    function getKeyHash(uint32 challengeNumber)\n    view external override\n    returns (bytes32 key)\n    {\n        key = _challenges[challengeNumber].key;\n    }\n\n    function getPrivateKeyHash(uint32 challengeNumber)\n    view external override\n    returns (bytes32 privateKey)\n    {\n        privateKey = _challenges[challengeNumber].privateKey;\n    }\n\n    function getSubmissionCounter(uint32 challengeNumber)\n    view external override\n    returns (uint256 submissionCounter)\n    {\n        submissionCounter = EnumerableSet.length(_challenges[challengeNumber].submitters);\n    }\n\n    function getSubmitters(uint32 challengeNumber, uint256 startIndex, uint256 endIndex)\n    view external override\n    returns (address[] memory)\n    {\n        address[] memory submitters = new address[](endIndex - startIndex);\n        EnumerableSet.AddressSet storage submittersSet = _challenges[challengeNumber].submitters;\n        for (uint i = startIndex; i < endIndex; i++) {\n            submitters[i - startIndex] = (EnumerableSet.at(submittersSet, i));\n        }\n\n        return submitters;\n    }\n\n    function getPhase(uint32 challengeNumber)\n    view external override\n    returns (uint8 phase)\n    {\n        phase = _challenges[challengeNumber].phase;\n    }\n\n    function getStakeThreshold()\n    view external override\n    returns (uint256 stakeThreshold)\n    {\n        stakeThreshold = _stakeThreshold;\n    }\n\n    function getStake(address participant)\n    view external override\n    returns (uint256 stake)\n    {\n        stake = _stakes[participant];\n    }\n\n    function getTokenAddress()\n    view external override\n    returns (address tokenAddress)\n    {\n        tokenAddress = address(_token);\n    }\n\n    function getSubmission(uint32 challengeNumber, address participant)\n    view external override\n    returns (bytes32 submissionHash)\n    {\n        submissionHash = _challenges[challengeNumber].submitterInfo[participant].submission;\n    }\n\n    function getStakedAmountForChallenge(uint32 challengeNumber, address participant)\n    view external override\n    returns (uint256 staked)\n    {\n        staked = _challenges[challengeNumber].submitterInfo[participant].staked;\n    }\n\n    function getStakingRewards(uint32 challengeNumber, address participant)\n    view external override\n    returns (uint256 stakingRewards)\n    {\n        stakingRewards = _challenges[challengeNumber].submitterInfo[participant].stakingRewards;\n    }\n\n    function getChallengeRewards(uint32 challengeNumber, address participant)\n    view external override\n    returns (uint256 challengeRewards)\n    {\n        challengeRewards = _challenges[challengeNumber].submitterInfo[participant].challengeRewards;\n    }\n\n    function getTournamentRewards(uint32 challengeNumber, address participant)\n    view external override\n    returns (uint256 tournamentRewards)\n    {\n        tournamentRewards = _challenges[challengeNumber].submitterInfo[participant].tournamentRewards;\n    }\n\n    function getOverallRewards(uint32 challengeNumber, address participant)\n    view external override\n    returns (uint256 overallRewards)\n    {\n        overallRewards =\n        _challenges[challengeNumber].submitterInfo[participant].stakingRewards\n        + _challenges[challengeNumber].submitterInfo[participant].challengeRewards\n        + _challenges[challengeNumber].submitterInfo[participant].tournamentRewards;\n    }\n\n    function getChallengeScores(uint32 challengeNumber, address participant)\n    view external override\n    returns (uint256 challengeScores)\n    {\n        challengeScores = _challenges[challengeNumber].submitterInfo[participant].challengeScores;\n    }\n\n    function getTournamentScores(uint32 challengeNumber, address participant)\n    view external override\n    returns (uint256 tournamentScores)\n    {\n        tournamentScores = _challenges[challengeNumber].submitterInfo[participant].tournamentScores;\n    }\n\n    function getInformation(uint32 challengeNumber, address participant, uint256 itemNumber)\n    view external override\n    returns (uint value)\n    {\n        value = _challenges[challengeNumber].submitterInfo[participant].info[itemNumber];\n    }\n\n    function getDeadlines(uint32 challengeNumber, uint256 index)\n    external view override\n    returns (uint256 deadline)\n    {\n        deadline = _challenges[challengeNumber].deadlines[index];\n    }\n\n    function getRemainder()\n    public view override\n    returns (uint256 remainder)\n    {\n        remainder = _token.balanceOf(address(this)) - _currentTotalStaked - _competitionPool;\n    }\n\n    function getMessage()\n    external view override\n    returns (string memory message)\n    {\n        message = _message;\n    }\n\n    /**\n    METHODS CALLABLE BY BOTH ADMIN AND PARTICIPANTS.\n    **/\n\n    function sponsor(uint256 amountToken)\n    external override\n    returns (bool success)\n    {\n        require(_challenges[_challengeCounter].phase == 4, \"Competition - sponsor: PLease wait for the challenge to complete before sponsoring.\");\n        uint256 currentCompPoolAmt = _competitionPool;\n        _competitionPool = currentCompPoolAmt + amountToken;\n        success = _token.transferFrom(msg.sender, address(this), amountToken);\n\n        emit Sponsor(msg.sender, amountToken, currentCompPoolAmt + amountToken);\n    }\n}",
  "sourcePath": "contracts/Competition.sol",
  "type": "contract"
}