{
  "abi": [
    {
      "inputs": [],
      "stateMutability": "nonpayable",
      "type": "constructor"
    },
    {
      "anonymous": false,
      "inputs": [
        {
          "indexed": true,
          "internalType": "string",
          "name": "competitionName",
          "type": "string"
        }
      ],
      "name": "CompetitionActiveToggled",
      "type": "event"
    },
    {
      "anonymous": false,
      "inputs": [
        {
          "indexed": true,
          "internalType": "string",
          "name": "competitionName",
          "type": "string"
        },
        {
          "indexed": true,
          "internalType": "bytes32",
          "name": "newLocation",
          "type": "bytes32"
        }
      ],
      "name": "CompetitionRulesLocationChanged",
      "type": "event"
    },
    {
      "anonymous": false,
      "inputs": [
        {
          "indexed": true,
          "internalType": "string",
          "name": "extensionName",
          "type": "string"
        }
      ],
      "name": "ExtensionActiveToggled",
      "type": "event"
    },
    {
      "anonymous": false,
      "inputs": [
        {
          "indexed": true,
          "internalType": "string",
          "name": "extensionName",
          "type": "string"
        },
        {
          "indexed": true,
          "internalType": "bytes32",
          "name": "newLocation",
          "type": "bytes32"
        }
      ],
      "name": "ExtensionInfoLocationChanged",
      "type": "event"
    },
    {
      "anonymous": false,
      "inputs": [
        {
          "indexed": true,
          "internalType": "string",
          "name": "competitionName",
          "type": "string"
        },
        {
          "indexed": true,
          "internalType": "address",
          "name": "competitionAddress",
          "type": "address"
        },
        {
          "indexed": false,
          "internalType": "bytes32",
          "name": "rulesLocation",
          "type": "bytes32"
        }
      ],
      "name": "NewCompetitionRegistered",
      "type": "event"
    },
    {
      "anonymous": false,
      "inputs": [
        {
          "indexed": true,
          "internalType": "string",
          "name": "extensionName",
          "type": "string"
        },
        {
          "indexed": true,
          "internalType": "address",
          "name": "extensionAddress",
          "type": "address"
        },
        {
          "indexed": true,
          "internalType": "bytes32",
          "name": "informationLocation",
          "type": "bytes32"
        }
      ],
      "name": "NewExtensionRegistered",
      "type": "event"
    },
    {
      "anonymous": false,
      "inputs": [
        {
          "indexed": true,
          "internalType": "bytes32",
          "name": "role",
          "type": "bytes32"
        },
        {
          "indexed": true,
          "internalType": "bytes32",
          "name": "previousAdminRole",
          "type": "bytes32"
        },
        {
          "indexed": true,
          "internalType": "bytes32",
          "name": "newAdminRole",
          "type": "bytes32"
        }
      ],
      "name": "RoleAdminChanged",
      "type": "event"
    },
    {
      "anonymous": false,
      "inputs": [
        {
          "indexed": true,
          "internalType": "bytes32",
          "name": "role",
          "type": "bytes32"
        },
        {
          "indexed": true,
          "internalType": "address",
          "name": "account",
          "type": "address"
        },
        {
          "indexed": true,
          "internalType": "address",
          "name": "sender",
          "type": "address"
        }
      ],
      "name": "RoleGranted",
      "type": "event"
    },
    {
      "anonymous": false,
      "inputs": [
        {
          "indexed": true,
          "internalType": "bytes32",
          "name": "role",
          "type": "bytes32"
        },
        {
          "indexed": true,
          "internalType": "address",
          "name": "account",
          "type": "address"
        },
        {
          "indexed": true,
          "internalType": "address",
          "name": "sender",
          "type": "address"
        }
      ],
      "name": "RoleRevoked",
      "type": "event"
    },
    {
      "anonymous": false,
      "inputs": [
        {
          "indexed": true,
          "internalType": "address",
          "name": "newAddress",
          "type": "address"
        }
      ],
      "name": "TokenAddressChanged",
      "type": "event"
    },
    {
      "inputs": [],
      "name": "DEFAULT_ADMIN_ROLE",
      "outputs": [
        {
          "internalType": "bytes32",
          "name": "",
          "type": "bytes32"
        }
      ],
      "stateMutability": "view",
      "type": "function"
    },
    {
      "inputs": [],
      "name": "RCI_CHILD_ADMIN",
      "outputs": [
        {
          "internalType": "bytes32",
          "name": "",
          "type": "bytes32"
        }
      ],
      "stateMutability": "view",
      "type": "function"
    },
    {
      "inputs": [],
      "name": "RCI_MAIN_ADMIN",
      "outputs": [
        {
          "internalType": "bytes32",
          "name": "",
          "type": "bytes32"
        }
      ],
      "stateMutability": "view",
      "type": "function"
    },
    {
      "inputs": [
        {
          "internalType": "address[]",
          "name": "addresses",
          "type": "address[]"
        },
        {
          "internalType": "bytes[]",
          "name": "data",
          "type": "bytes[]"
        }
      ],
      "name": "batchCall",
      "outputs": [
        {
          "internalType": "bytes[]",
          "name": "",
          "type": "bytes[]"
        }
      ],
      "stateMutability": "view",
      "type": "function"
    },
    {
      "inputs": [
        {
          "internalType": "string",
          "name": "competitionName",
          "type": "string"
        },
        {
          "internalType": "bytes32",
          "name": "newLocation",
          "type": "bytes32"
        }
      ],
      "name": "changeCompetitionRulesLocation",
      "outputs": [],
      "stateMutability": "nonpayable",
      "type": "function"
    },
    {
      "inputs": [
        {
          "internalType": "string",
          "name": "extensionName",
          "type": "string"
        },
        {
          "internalType": "bytes32",
          "name": "newLocation",
          "type": "bytes32"
        }
      ],
      "name": "changeExtensionInfoLocation",
      "outputs": [],
      "stateMutability": "nonpayable",
      "type": "function"
    },
    {
      "inputs": [
        {
          "internalType": "address",
          "name": "newAddress",
          "type": "address"
        }
      ],
      "name": "changeTokenAddress",
      "outputs": [],
      "stateMutability": "nonpayable",
      "type": "function"
    },
    {
      "inputs": [
        {
          "internalType": "string",
          "name": "competitionName",
          "type": "string"
        }
      ],
      "name": "getCompetitionActive",
      "outputs": [
        {
          "internalType": "bool",
          "name": "active",
          "type": "bool"
        }
      ],
      "stateMutability": "view",
      "type": "function"
    },
    {
      "inputs": [
        {
          "internalType": "string",
          "name": "competitionName",
          "type": "string"
        }
      ],
      "name": "getCompetitionAddress",
      "outputs": [
        {
          "internalType": "address",
          "name": "competitionAddress",
          "type": "address"
        }
      ],
      "stateMutability": "view",
      "type": "function"
    },
    {
      "inputs": [],
      "name": "getCompetitionList",
      "outputs": [
        {
          "internalType": "string[]",
          "name": "competitionNames",
          "type": "string[]"
        }
      ],
      "stateMutability": "view",
      "type": "function"
    },
    {
      "inputs": [
        {
          "internalType": "string",
          "name": "competitionName",
          "type": "string"
        }
      ],
      "name": "getCompetitionRulesLocation",
      "outputs": [
        {
          "internalType": "bytes32",
          "name": "rulesLocation",
          "type": "bytes32"
        }
      ],
      "stateMutability": "view",
      "type": "function"
    },
    {
      "inputs": [
        {
          "internalType": "string",
          "name": "extensionName",
          "type": "string"
        }
      ],
      "name": "getExtensionActive",
      "outputs": [
        {
          "internalType": "bool",
          "name": "active",
          "type": "bool"
        }
      ],
      "stateMutability": "view",
      "type": "function"
    },
    {
      "inputs": [
        {
          "internalType": "string",
          "name": "extensionName",
          "type": "string"
        }
      ],
      "name": "getExtensionAddress",
      "outputs": [
        {
          "internalType": "address",
          "name": "extensionAddress",
          "type": "address"
        }
      ],
      "stateMutability": "view",
      "type": "function"
    },
    {
      "inputs": [
        {
          "internalType": "string",
          "name": "extensionName",
          "type": "string"
        }
      ],
      "name": "getExtensionInfoLocation",
      "outputs": [
        {
          "internalType": "bytes32",
          "name": "informationLocation",
          "type": "bytes32"
        }
      ],
      "stateMutability": "view",
      "type": "function"
    },
    {
      "inputs": [],
      "name": "getExtensionList",
      "outputs": [
        {
          "internalType": "string[]",
          "name": "extensionNames",
          "type": "string[]"
        }
      ],
      "stateMutability": "view",
      "type": "function"
    },
    {
      "inputs": [
        {
          "internalType": "bytes32",
          "name": "role",
          "type": "bytes32"
        }
      ],
      "name": "getRoleAdmin",
      "outputs": [
        {
          "internalType": "bytes32",
          "name": "",
          "type": "bytes32"
        }
      ],
      "stateMutability": "view",
      "type": "function"
    },
    {
      "inputs": [],
      "name": "getTokenAddress",
      "outputs": [
        {
          "internalType": "address",
          "name": "token",
          "type": "address"
        }
      ],
      "stateMutability": "view",
      "type": "function"
    },
    {
      "inputs": [
        {
          "internalType": "bytes32",
          "name": "role",
          "type": "bytes32"
        },
        {
          "internalType": "address",
          "name": "account",
          "type": "address"
        }
      ],
      "name": "grantRole",
      "outputs": [],
      "stateMutability": "nonpayable",
      "type": "function"
    },
    {
      "inputs": [
        {
          "internalType": "bytes32",
          "name": "role",
          "type": "bytes32"
        },
        {
          "internalType": "address",
          "name": "account",
          "type": "address"
        }
      ],
      "name": "hasRole",
      "outputs": [
        {
          "internalType": "bool",
          "name": "",
          "type": "bool"
        }
      ],
      "stateMutability": "view",
      "type": "function"
    },
    {
      "inputs": [
        {
          "internalType": "string",
          "name": "competitionName",
          "type": "string"
        },
        {
          "internalType": "address",
          "name": "competitionAddress",
          "type": "address"
        },
        {
          "internalType": "bytes32",
          "name": "rulesLocation",
          "type": "bytes32"
        }
      ],
      "name": "registerNewCompetition",
      "outputs": [],
      "stateMutability": "nonpayable",
      "type": "function"
    },
    {
      "inputs": [
        {
          "internalType": "string",
          "name": "extensionName",
          "type": "string"
        },
        {
          "internalType": "address",
          "name": "extensionAddress",
          "type": "address"
        },
        {
          "internalType": "bytes32",
          "name": "informationLocation",
          "type": "bytes32"
        }
      ],
      "name": "registerNewExtension",
      "outputs": [],
      "stateMutability": "nonpayable",
      "type": "function"
    },
    {
      "inputs": [
        {
          "internalType": "bytes32",
          "name": "role",
          "type": "bytes32"
        },
        {
          "internalType": "address",
          "name": "account",
          "type": "address"
        }
      ],
      "name": "renounceRole",
      "outputs": [],
      "stateMutability": "nonpayable",
      "type": "function"
    },
    {
      "inputs": [
        {
          "internalType": "bytes32",
          "name": "role",
          "type": "bytes32"
        },
        {
          "internalType": "address",
          "name": "account",
          "type": "address"
        }
      ],
      "name": "revokeRole",
      "outputs": [],
      "stateMutability": "nonpayable",
      "type": "function"
    },
    {
      "inputs": [
        {
          "internalType": "bytes4",
          "name": "interfaceId",
          "type": "bytes4"
        }
      ],
      "name": "supportsInterface",
      "outputs": [
        {
          "internalType": "bool",
          "name": "",
          "type": "bool"
        }
      ],
      "stateMutability": "view",
      "type": "function"
    },
    {
      "inputs": [
        {
          "internalType": "string",
          "name": "competitionName",
          "type": "string"
        }
      ],
      "name": "toggleCompetitionActive",
      "outputs": [],
      "stateMutability": "nonpayable",
      "type": "function"
    },
    {
      "inputs": [
        {
          "internalType": "string",
          "name": "extensionName",
          "type": "string"
        }
      ],
      "name": "toggleExtensionActive",
      "outputs": [],
      "stateMutability": "nonpayable",
      "type": "function"
    }
  ],
  "bytecode": "60806040523480156200001157600080fd5b506200001c62000022565b620001a3565b6200003d60008051602062002048833981519152336200009f565b620000586000805160206200204883398151915280620000af565b6200007360008051602062002028833981519152336200009f565b6200009d6000805160206200202883398151915260008051602062002048833981519152620000af565b565b620000ab828262000103565b5050565b600082815260208190526040902060010154819060405184907fbd79b86ffe0ab8e8776151514217cd7cacd52c909f66475c3af44e129f0b00ff90600090a460009182526020829052604090912060010155565b6000828152602081815260408083206001600160a01b038516845290915290205460ff16620000ab576000828152602081815260408083206001600160a01b03851684529091529020805460ff191660011790556200015f3390565b6001600160a01b0316816001600160a01b0316837f2f8788117e7eff1d82e926ec794901d17c78024a50270940304540a733656f0d60405160405180910390a45050565b611e7580620001b36000396000f3fe608060405234801561001057600080fd5b506004361061018e5760003560e01c80635d58ebc1116100de578063c9cda91f11610097578063e4bf72cc11610071578063e4bf72cc1461037e578063f77d657114610391578063ff08e07b146103a4578063ff280a16146103c457600080fd5b8063c9cda91f14610345578063cf4eb01314610358578063d547741f1461036b57600080fd5b80635d58ebc1146102e95780636ccc2bd6146102fc578063821449891461030f5780638b9c0e361461032257806391d148541461032a578063a217fddf1461033d57600080fd5b8063248a9ca31161014b57806335f2d3c61161012557806335f2d3c61461029d57806336568abe146102b05780633d783740146102c357806341d7238e146102d657600080fd5b8063248a9ca3146102525780632ac7b757146102755780632f2ff15d1461028a57600080fd5b806301ffc9a71461019357806306bbb7f6146101bb57806310fe9ae8146101d05780631442b868146101f557806318b125d114610218578063202a1c651461023f575b600080fd5b6101a66101a1366004611b25565b6103d7565b60405190151581526020015b60405180910390f35b6101ce6101c9366004611b4d565b61040e565b005b6001546001600160a01b03165b6040516001600160a01b0390911681526020016101b2565b61020a600080516020611e2083398151915281565b6040519081526020016101b2565b61020a7fc6497b0d1af5627a7b5dc7995c3c9c668c87bd99ddc7e1609ba9724fe0e860b581565b6101dd61024d366004611b4d565b6105d1565b61020a610260366004611ae2565b60009081526020819052604090206001015490565b61027d61060b565b6040516101b29190611ced565b6101ce610298366004611afa565b6106e4565b6101ce6102ab366004611b8d565b610773565b6101ce6102be366004611afa565b610a6b565b61020a6102d1366004611b4d565b610ae5565b6101ce6102e4366004611b4d565b610b13565b6101dd6102f7366004611b4d565b610cc7565b61020a61030a366004611b4d565b610cdb565b6101a661031d366004611b4d565b610cef565b61027d610d1d565b6101a6610338366004611afa565b610ded565b61020a600081565b6101ce610353366004611a58565b610e16565b6101ce610366366004611b8d565b610f10565b6101ce610379366004611afa565b611202565b6101ce61038c366004611be7565b611282565b6101a661039f366004611b4d565b61148a565b6103b76103b2366004611a79565b61149e565b6040516101b29190611c8c565b6101ce6103d2366004611be7565b61161b565b60006001600160e01b03198216637965db0b60e01b148061040857506301ffc9a760e01b6001600160e01b03198316145b92915050565b610426600080516020611e2083398151915233610ded565b61044b5760405162461bcd60e51b815260040161044290611d41565b60405180910390fd5b60006001600160a01b031660028383604051610468929190611c7c565b908152604051908190036020019020546001600160a01b036101009091041614156105385760405162461bcd60e51b815260206004820152606e60248201527f5265676973747279202d20746f67676c65436f6d7065746974696f6e4163746960448201527f76653a20436f6d7065746974696f6e20646f6573206e6f742065786973742e2060648201527f5573652066756e6374696f6e202772656769737465724e6577436f6d7065746960848201526d3a34b7b7139034b739ba32b0b21760911b60a482015260c401610442565b6002828260405161054a929190611c7c565b9081526040519081900360200181205460ff16159060029061056f9085908590611c7c565b908152604051908190036020018120805492151560ff199093169290921790915561059d9083908390611c7c565b604051908190038120907fb1bdac09178448906c9b70df8b0345ac474bbb794b64a551cfffa0a83a0dfdd990600090a25050565b6000600383836040516105e5929190611c7c565b908152604051908190036020019020546001600160a01b03610100909104169392505050565b60606005805480602002602001604051908101604052809291908181526020016000905b828210156106db57838290600052602060002001805461064e90611dbd565b80601f016020809104026020016040519081016040528092919081815260200182805461067a90611dbd565b80156106c75780601f1061069c576101008083540402835291602001916106c7565b820191906000526020600020905b8154815290600101906020018083116106aa57829003601f168201915b50505050508152602001906001019061062f565b50505050905090565b600082815260208190526040902060010154610701905b33610ded565b6107655760405162461bcd60e51b815260206004820152602f60248201527f416363657373436f6e74726f6c3a2073656e646572206d75737420626520616e60448201526e0818591b5a5b881d1bc819dc985b9d608a1b6064820152608401610442565b61076f8282611830565b5050565b61078b600080516020611e2083398151915233610ded565b6107a75760405162461bcd60e51b815260040161044290611d41565b6001600160a01b0382166108235760405162461bcd60e51b815260206004820152603b60248201527f5265676973747279202d2072656769737465724e6577457874656e73696f6e3a60448201527f2043616e6e6f74207265676973746572203020616464726573732e00000000006064820152608401610442565b806108a55760405162461bcd60e51b815260206004820152604660248201527f5265676973747279202d2072656769737465724e6577457874656e73696f6e3a60448201527f2043616e6e6f742073657420696e666f726d6174696f6e206c6f636174696f6e606482015265103a3790181760d11b608482015260a401610442565b60006001600160a01b0316600385856040516108c2929190611c7c565b908152604051908190036020019020546001600160a01b0361010090910416146109545760405162461bcd60e51b815260206004820152603a60248201527f5265676973747279202d2072656769737465724e6577457874656e73696f6e3a60448201527f20457874656e73696f6e20616c7265616479206578697374732e0000000000006064820152608401610442565b60408051606081018252600181526001600160a01b038416602082015280820183905290516003906109899087908790611c7c565b908152604080516020928190038301902083518154938501516001600160a81b0319909416901515610100600160a81b031916176101006001600160a01b03909416939093029290921782559190910151600191820155600580549182018155600052610a19907f036b6384b5eca791c62761152d0c79bb0604c104a5fb6f4eb0703f3154bb3db0018585611919565b5080826001600160a01b03168585604051610a35929190611c7c565b604051908190038120907fc9ecde0ab371f72e2d34131665b30ce9144ea01e7de4a8d5a14d4720617de99190600090a450505050565b6001600160a01b0381163314610adb5760405162461bcd60e51b815260206004820152602f60248201527f416363657373436f6e74726f6c3a2063616e206f6e6c792072656e6f756e636560448201526e103937b632b9903337b91039b2b63360891b6064820152608401610442565b61076f82826118b4565b600060028383604051610af9929190611c7c565b908152602001604051809103902060010154905092915050565b610b2b600080516020611e2083398151915233610ded565b610b475760405162461bcd60e51b815260040161044290611d41565b60006001600160a01b031660038383604051610b64929190611c7c565b908152604051908190036020019020546001600160a01b03610100909104161415610c2e5760405162461bcd60e51b815260206004820152606860248201527f5265676973747279202d20746f67676c65457874656e73696f6e41637469766560448201527f3a20457874656e73696f6e20646f6573206e6f742065786973742e205573652060648201527f66756e6374696f6e202772656769737465724e6577457874656e73696f6e272060848201526734b739ba32b0b21760c11b60a482015260c401610442565b60038282604051610c40929190611c7c565b9081526040519081900360200181205460ff161590600390610c659085908590611c7c565b908152604051908190036020018120805492151560ff1990931692909217909155610c939083908390611c7c565b604051908190038120907f83ae5d198de73bba6f0f383b1b155dae2ca94d1d7ecbd63542d0d07635209fdd90600090a25050565b6000600283836040516105e5929190611c7c565b600060038383604051610af9929190611c7c565b600060028383604051610d03929190611c7c565b9081526040519081900360200190205460ff169392505050565b60606004805480602002602001604051908101604052809291908181526020016000905b828210156106db578382906000526020600020018054610d6090611dbd565b80601f0160208091040260200160405190810160405280929190818152602001828054610d8c90611dbd565b8015610dd95780601f10610dae57610100808354040283529160200191610dd9565b820191906000526020600020905b815481529060010190602001808311610dbc57829003601f168201915b505050505081526020019060010190610d41565b6000918252602082815260408084206001600160a01b0393909316845291905290205460ff1690565b610e2e600080516020611e2083398151915233610ded565b610e4a5760405162461bcd60e51b815260040161044290611d41565b6001600160a01b038116610ec65760405162461bcd60e51b815260206004820152603760248201527f5265676973747279202d206368616e6765546f6b656e416464726573733a204360448201527f616e6e6f742073657420746f203020616464726573732e0000000000000000006064820152608401610442565b600180546001600160a01b0319166001600160a01b0383169081179091556040517f1297217f6da0341ba2cab10677a2e4471c20ebc84acc96ef2339a734a3a233b290600090a250565b610f28600080516020611e2083398151915233610ded565b610f445760405162461bcd60e51b815260040161044290611d41565b6001600160a01b038216610fc05760405162461bcd60e51b815260206004820152603d60248201527f5265676973747279202d2072656769737465724e6577436f6d7065746974696f60448201527f6e3a2043616e6e6f74207265676973746572203020616464726573732e0000006064820152608401610442565b806110335760405162461bcd60e51b815260206004820152603960248201527f5265676973747279202d2072756c65734c6f636174696f6e3a2043616e6e6f7460448201527f207365742072756c6573206c6f636174696f6e20746f20302e000000000000006064820152608401610442565b60006001600160a01b031660028585604051611050929190611c7c565b908152604051908190036020019020546001600160a01b0361010090910416146110e25760405162461bcd60e51b815260206004820152603e60248201527f5265676973747279202d2072656769737465724e6577436f6d7065746974696f60448201527f6e3a20436f6d7065746974696f6e20616c7265616479206578697374732e00006064820152608401610442565b60408051606081018252600181526001600160a01b038416602082015280820183905290516002906111179087908790611c7c565b908152604080516020928190038301902083518154938501516001600160a81b0319909416901515610100600160a81b031916176101006001600160a01b039094169390930292909217825591909101516001918201556004805491820181556000526111a7907f8a35acfbc15ff81a39ae7d344fd709f28e8600b4aa8c65c6b64bfe7fe36bd19b018585611919565b50816001600160a01b031684846040516111c2929190611c7c565b604051908190038120838252907fe8cdf60632eed712180856cc0945bc61a38a954c7a0c2697944488b63a8861509060200160405180910390a350505050565b60008281526020819052604090206001015461121d906106fb565b610adb5760405162461bcd60e51b815260206004820152603060248201527f416363657373436f6e74726f6c3a2073656e646572206d75737420626520616e60448201526f2061646d696e20746f207265766f6b6560801b6064820152608401610442565b61129a600080516020611e2083398151915233610ded565b6112b65760405162461bcd60e51b815260040161044290611d41565b60006001600160a01b0316600384846040516112d3929190611c7c565b908152604051908190036020019020546001600160a01b036101009091041614156113a75760405162461bcd60e51b815260206004820152607260248201527f5265676973747279202d206368616e6765457874656e73696f6e496e666f4c6f60448201527f636174696f6e3a20436f6d7065746974696f6e20646f6573206e6f742065786960648201527f73742e205573652066756e6374696f6e202772656769737465724e6577436f6d6084820152713832ba34ba34b7b7139034b739ba32b0b21760711b60a482015260c401610442565b8061141c576040805162461bcd60e51b81526020600482015260248101919091527f5265676973747279202d206368616e6765457874656e73696f6e496e666f4c6f60448201527f636174696f6e3a2043616e6e6f742073657420746f203020616464726573732e6064820152608401610442565b806003848460405161142f929190611c7c565b908152602001604051809103902060010181905550808383604051611455929190611c7c565b604051908190038120907f88bfdf54ce240d8032ad74fde55d2fc88647a35643bd1a8a4bb7bfc6efc6058c90600090a3505050565b600060038383604051610d03929190611c7c565b606060008267ffffffffffffffff8111156114c957634e487b7160e01b600052604160045260246000fd5b6040519080825280602002602001820160405280156114fc57816020015b60608152602001906001900390816114e75790505b50905060005b838110156116115760008088888481811061152d57634e487b7160e01b600052603260045260246000fd5b90506020020160208101906115429190611a58565b6001600160a01b031687878581811061156b57634e487b7160e01b600052603260045260246000fd5b905060200281019061157d9190611d78565b60405161158b929190611c7c565b600060405180830381855afa9150503d80600081146115c6576040519150601f19603f3d011682016040523d82523d6000602084013e6115cb565b606091505b5091509150808484815181106115f157634e487b7160e01b600052603260045260246000fd5b60200260200101819052505050808061160990611df8565b915050611502565b5095945050505050565b611633600080516020611e2083398151915233610ded565b61164f5760405162461bcd60e51b815260040161044290611d41565b60006001600160a01b03166002848460405161166c929190611c7c565b908152604051908190036020019020546001600160a01b036101009091041614156117435760405162461bcd60e51b815260206004820152607560248201527f5265676973747279202d206368616e6765436f6d7065746974696f6e52756c6560448201527f734c6f636174696f6e3a20436f6d7065746974696f6e20646f6573206e6f742060648201527f65786973742e205573652066756e6374696f6e202772656769737465724e657760848201527421b7b6b832ba34ba34b7b7139034b739ba32b0b21760591b60a482015260c401610442565b806117c25760405162461bcd60e51b815260206004820152604360248201527f5265676973747279202d206368616e6765436f6d7065746974696f6e52756c6560448201527f734c6f636174696f6e3a2043616e6e6f742073657420746f203020616464726560648201526239b99760e91b608482015260a401610442565b80600284846040516117d5929190611c7c565b9081526020016040518091039020600101819055508083836040516117fb929190611c7c565b604051908190038120907f090e4275b4012fedfa9b631d72bff03048df6aff9864bc8cdee29aa02360d7fd90600090a3505050565b61183a8282610ded565b61076f576000828152602081815260408083206001600160a01b03851684529091529020805460ff191660011790556118703390565b6001600160a01b0316816001600160a01b0316837f2f8788117e7eff1d82e926ec794901d17c78024a50270940304540a733656f0d60405160405180910390a45050565b6118be8282610ded565b1561076f576000828152602081815260408083206001600160a01b0385168085529252808320805460ff1916905551339285917ff6391f5c32d9c69d2a47ea670b442974b53935d1edc7fd64eb21e047a839171b9190a45050565b82805461192590611dbd565b90600052602060002090601f016020900481019282611947576000855561198d565b82601f106119605782800160ff1982351617855561198d565b8280016001018555821561198d579182015b8281111561198d578235825591602001919060010190611972565b5061199992915061199d565b5090565b5b80821115611999576000815560010161199e565b80356001600160a01b03811681146119c957600080fd5b919050565b60008083601f8401126119df578182fd5b50813567ffffffffffffffff8111156119f6578182fd5b6020830191508360208260051b8501011115611a1157600080fd5b9250929050565b60008083601f840112611a29578182fd5b50813567ffffffffffffffff811115611a40578182fd5b602083019150836020828501011115611a1157600080fd5b600060208284031215611a69578081fd5b611a72826119b2565b9392505050565b60008060008060408587031215611a8e578283fd5b843567ffffffffffffffff80821115611aa5578485fd5b611ab1888389016119ce565b90965094506020870135915080821115611ac9578384fd5b50611ad6878288016119ce565b95989497509550505050565b600060208284031215611af3578081fd5b5035919050565b60008060408385031215611b0c578182fd5b82359150611b1c602084016119b2565b90509250929050565b600060208284031215611b36578081fd5b81356001600160e01b031981168114611a72578182fd5b60008060208385031215611b5f578182fd5b823567ffffffffffffffff811115611b75578283fd5b611b8185828601611a18565b90969095509350505050565b60008060008060608587031215611ba2578384fd5b843567ffffffffffffffff811115611bb8578485fd5b611bc487828801611a18565b9095509350611bd79050602086016119b2565b9396929550929360400135925050565b600080600060408486031215611bfb578283fd5b833567ffffffffffffffff811115611c11578384fd5b611c1d86828701611a18565b909790965060209590950135949350505050565b60008151808452815b81811015611c5657602081850181015186830182015201611c3a565b81811115611c675782602083870101525b50601f01601f19169290920160200192915050565b8183823760009101908152919050565b6000602080830181845280855180835260408601915060408160051b8701019250838701855b82811015611ce057603f19888603018452611cce858351611c31565b94509285019290850190600101611cb2565b5092979650505050505050565b6000602080830181845280855180835260408601915060408160051b8701019250838701855b82811015611ce057603f19888603018452611d2f858351611c31565b94509285019290850190600101611d13565b60208082526017908201527f43616c6c657220697320756e617574686f72697a65642e000000000000000000604082015260600190565b6000808335601e19843603018112611d8e578283fd5b83018035915067ffffffffffffffff821115611da8578283fd5b602001915036819003821315611a1157600080fd5b600181811c90821680611dd157607f821691505b60208210811415611df257634e487b7160e01b600052602260045260246000fd5b50919050565b6000600019821415611e1857634e487b7160e01b81526011600452602481fd5b506001019056fea7c37a885c101433a066f48b62753beb2a7567fe326b80d58772c6ef61e282e7a26469706673582212208a6b1f3e66be749fef757d64d7f59be44eefd44755636e205756109f9512073964736f6c63430008040033a7c37a885c101433a066f48b62753beb2a7567fe326b80d58772c6ef61e282e7c6497b0d1af5627a7b5dc7995c3c9c668c87bd99ddc7e1609ba9724fe0e860b5",
  "bytecodeSha1": "da39a3ee5e6b4b0d3255bfef95601890afd80709",
  "compiler": {
    "evm_version": "istanbul",
    "optimizer": {
      "enabled": true,
      "runs": 200
    },
    "version": "0.8.4+commit.c7e474f2"
  },
  "contractName": "Registry",
  "language": "Solidity",
  "natspec": {
    "kind": "dev",
    "methods": {
      "getRoleAdmin(bytes32)": {
        "details": "Returns the admin role that controls `role`. See {grantRole} and {revokeRole}. To change a role's admin, use {_setRoleAdmin}."
      },
      "grantRole(bytes32,address)": {
        "details": "Grants `role` to `account`. If `account` had not been already granted `role`, emits a {RoleGranted} event. Requirements: - the caller must have ``role``'s admin role."
      },
      "hasRole(bytes32,address)": {
        "details": "Returns `true` if `account` has been granted `role`."
      },
      "renounceRole(bytes32,address)": {
        "details": "Revokes `role` from the calling account. Roles are often managed via {grantRole} and {revokeRole}: this function's purpose is to provide a mechanism for accounts to lose their privileges if they are compromised (such as when a trusted device is misplaced). If the calling account had been granted `role`, emits a {RoleRevoked} event. Requirements: - the caller must be `account`."
      },
      "revokeRole(bytes32,address)": {
        "details": "Revokes `role` from `account`. If `account` had been granted `role`, emits a {RoleRevoked} event. Requirements: - the caller must have ``role``'s admin role."
      },
      "supportsInterface(bytes4)": {
        "details": "See {IERC165-supportsInterface}."
      }
    },
    "version": 1
  },
  "opcodes": "PUSH1 0x80 PUSH1 0x40 MSTORE CALLVALUE DUP1 ISZERO PUSH2 0x10 JUMPI PUSH1 0x0 DUP1 REVERT JUMPDEST POP PUSH1 0x4 CALLDATASIZE LT PUSH2 0x18E JUMPI PUSH1 0x0 CALLDATALOAD PUSH1 0xE0 SHR DUP1 PUSH4 0x5D58EBC1 GT PUSH2 0xDE JUMPI DUP1 PUSH4 0xC9CDA91F GT PUSH2 0x97 JUMPI DUP1 PUSH4 0xE4BF72CC GT PUSH2 0x71 JUMPI DUP1 PUSH4 0xE4BF72CC EQ PUSH2 0x37E JUMPI DUP1 PUSH4 0xF77D6571 EQ PUSH2 0x391 JUMPI DUP1 PUSH4 0xFF08E07B EQ PUSH2 0x3A4 JUMPI DUP1 PUSH4 0xFF280A16 EQ PUSH2 0x3C4 JUMPI PUSH1 0x0 DUP1 REVERT JUMPDEST DUP1 PUSH4 0xC9CDA91F EQ PUSH2 0x345 JUMPI DUP1 PUSH4 0xCF4EB013 EQ PUSH2 0x358 JUMPI DUP1 PUSH4 0xD547741F EQ PUSH2 0x36B JUMPI PUSH1 0x0 DUP1 REVERT JUMPDEST DUP1 PUSH4 0x5D58EBC1 EQ PUSH2 0x2E9 JUMPI DUP1 PUSH4 0x6CCC2BD6 EQ PUSH2 0x2FC JUMPI DUP1 PUSH4 0x82144989 EQ PUSH2 0x30F JUMPI DUP1 PUSH4 0x8B9C0E36 EQ PUSH2 0x322 JUMPI DUP1 PUSH4 0x91D14854 EQ PUSH2 0x32A JUMPI DUP1 PUSH4 0xA217FDDF EQ PUSH2 0x33D JUMPI PUSH1 0x0 DUP1 REVERT JUMPDEST DUP1 PUSH4 0x248A9CA3 GT PUSH2 0x14B JUMPI DUP1 PUSH4 0x35F2D3C6 GT PUSH2 0x125 JUMPI DUP1 PUSH4 0x35F2D3C6 EQ PUSH2 0x29D JUMPI DUP1 PUSH4 0x36568ABE EQ PUSH2 0x2B0 JUMPI DUP1 PUSH4 0x3D783740 EQ PUSH2 0x2C3 JUMPI DUP1 PUSH4 0x41D7238E EQ PUSH2 0x2D6 JUMPI PUSH1 0x0 DUP1 REVERT JUMPDEST DUP1 PUSH4 0x248A9CA3 EQ PUSH2 0x252 JUMPI DUP1 PUSH4 0x2AC7B757 EQ PUSH2 0x275 JUMPI DUP1 PUSH4 0x2F2FF15D EQ PUSH2 0x28A JUMPI PUSH1 0x0 DUP1 REVERT JUMPDEST DUP1 PUSH4 0x1FFC9A7 EQ PUSH2 0x193 JUMPI DUP1 PUSH4 0x6BBB7F6 EQ PUSH2 0x1BB JUMPI DUP1 PUSH4 0x10FE9AE8 EQ PUSH2 0x1D0 JUMPI DUP1 PUSH4 0x1442B868 EQ PUSH2 0x1F5 JUMPI DUP1 PUSH4 0x18B125D1 EQ PUSH2 0x218 JUMPI DUP1 PUSH4 0x202A1C65 EQ PUSH2 0x23F JUMPI JUMPDEST PUSH1 0x0 DUP1 REVERT JUMPDEST PUSH2 0x1A6 PUSH2 0x1A1 CALLDATASIZE PUSH1 0x4 PUSH2 0x1B25 JUMP JUMPDEST PUSH2 0x3D7 JUMP JUMPDEST PUSH1 0x40 MLOAD SWAP1 ISZERO ISZERO DUP2 MSTORE PUSH1 0x20 ADD JUMPDEST PUSH1 0x40 MLOAD DUP1 SWAP2 SUB SWAP1 RETURN JUMPDEST PUSH2 0x1CE PUSH2 0x1C9 CALLDATASIZE PUSH1 0x4 PUSH2 0x1B4D JUMP JUMPDEST PUSH2 0x40E JUMP JUMPDEST STOP JUMPDEST PUSH1 0x1 SLOAD PUSH1 0x1 PUSH1 0x1 PUSH1 0xA0 SHL SUB AND JUMPDEST PUSH1 0x40 MLOAD PUSH1 0x1 PUSH1 0x1 PUSH1 0xA0 SHL SUB SWAP1 SWAP2 AND DUP2 MSTORE PUSH1 0x20 ADD PUSH2 0x1B2 JUMP JUMPDEST PUSH2 0x20A PUSH1 0x0 DUP1 MLOAD PUSH1 0x20 PUSH2 0x1E20 DUP4 CODECOPY DUP2 MLOAD SWAP2 MSTORE DUP2 JUMP JUMPDEST PUSH1 0x40 MLOAD SWAP1 DUP2 MSTORE PUSH1 0x20 ADD PUSH2 0x1B2 JUMP JUMPDEST PUSH2 0x20A PUSH32 0xC6497B0D1AF5627A7B5DC7995C3C9C668C87BD99DDC7E1609BA9724FE0E860B5 DUP2 JUMP JUMPDEST PUSH2 0x1DD PUSH2 0x24D CALLDATASIZE PUSH1 0x4 PUSH2 0x1B4D JUMP JUMPDEST PUSH2 0x5D1 JUMP JUMPDEST PUSH2 0x20A PUSH2 0x260 CALLDATASIZE PUSH1 0x4 PUSH2 0x1AE2 JUMP JUMPDEST PUSH1 0x0 SWAP1 DUP2 MSTORE PUSH1 0x20 DUP2 SWAP1 MSTORE PUSH1 0x40 SWAP1 KECCAK256 PUSH1 0x1 ADD SLOAD SWAP1 JUMP JUMPDEST PUSH2 0x27D PUSH2 0x60B JUMP JUMPDEST PUSH1 0x40 MLOAD PUSH2 0x1B2 SWAP2 SWAP1 PUSH2 0x1CED JUMP JUMPDEST PUSH2 0x1CE PUSH2 0x298 CALLDATASIZE PUSH1 0x4 PUSH2 0x1AFA JUMP JUMPDEST PUSH2 0x6E4 JUMP JUMPDEST PUSH2 0x1CE PUSH2 0x2AB CALLDATASIZE PUSH1 0x4 PUSH2 0x1B8D JUMP JUMPDEST PUSH2 0x773 JUMP JUMPDEST PUSH2 0x1CE PUSH2 0x2BE CALLDATASIZE PUSH1 0x4 PUSH2 0x1AFA JUMP JUMPDEST PUSH2 0xA6B JUMP JUMPDEST PUSH2 0x20A PUSH2 0x2D1 CALLDATASIZE PUSH1 0x4 PUSH2 0x1B4D JUMP JUMPDEST PUSH2 0xAE5 JUMP JUMPDEST PUSH2 0x1CE PUSH2 0x2E4 CALLDATASIZE PUSH1 0x4 PUSH2 0x1B4D JUMP JUMPDEST PUSH2 0xB13 JUMP JUMPDEST PUSH2 0x1DD PUSH2 0x2F7 CALLDATASIZE PUSH1 0x4 PUSH2 0x1B4D JUMP JUMPDEST PUSH2 0xCC7 JUMP JUMPDEST PUSH2 0x20A PUSH2 0x30A CALLDATASIZE PUSH1 0x4 PUSH2 0x1B4D JUMP JUMPDEST PUSH2 0xCDB JUMP JUMPDEST PUSH2 0x1A6 PUSH2 0x31D CALLDATASIZE PUSH1 0x4 PUSH2 0x1B4D JUMP JUMPDEST PUSH2 0xCEF JUMP JUMPDEST PUSH2 0x27D PUSH2 0xD1D JUMP JUMPDEST PUSH2 0x1A6 PUSH2 0x338 CALLDATASIZE PUSH1 0x4 PUSH2 0x1AFA JUMP JUMPDEST PUSH2 0xDED JUMP JUMPDEST PUSH2 0x20A PUSH1 0x0 DUP2 JUMP JUMPDEST PUSH2 0x1CE PUSH2 0x353 CALLDATASIZE PUSH1 0x4 PUSH2 0x1A58 JUMP JUMPDEST PUSH2 0xE16 JUMP JUMPDEST PUSH2 0x1CE PUSH2 0x366 CALLDATASIZE PUSH1 0x4 PUSH2 0x1B8D JUMP JUMPDEST PUSH2 0xF10 JUMP JUMPDEST PUSH2 0x1CE PUSH2 0x379 CALLDATASIZE PUSH1 0x4 PUSH2 0x1AFA JUMP JUMPDEST PUSH2 0x1202 JUMP JUMPDEST PUSH2 0x1CE PUSH2 0x38C CALLDATASIZE PUSH1 0x4 PUSH2 0x1BE7 JUMP JUMPDEST PUSH2 0x1282 JUMP JUMPDEST PUSH2 0x1A6 PUSH2 0x39F CALLDATASIZE PUSH1 0x4 PUSH2 0x1B4D JUMP JUMPDEST PUSH2 0x148A JUMP JUMPDEST PUSH2 0x3B7 PUSH2 0x3B2 CALLDATASIZE PUSH1 0x4 PUSH2 0x1A79 JUMP JUMPDEST PUSH2 0x149E JUMP JUMPDEST PUSH1 0x40 MLOAD PUSH2 0x1B2 SWAP2 SWAP1 PUSH2 0x1C8C JUMP JUMPDEST PUSH2 0x1CE PUSH2 0x3D2 CALLDATASIZE PUSH1 0x4 PUSH2 0x1BE7 JUMP JUMPDEST PUSH2 0x161B JUMP JUMPDEST PUSH1 0x0 PUSH1 0x1 PUSH1 0x1 PUSH1 0xE0 SHL SUB NOT DUP3 AND PUSH4 0x7965DB0B PUSH1 0xE0 SHL EQ DUP1 PUSH2 0x408 JUMPI POP PUSH4 0x1FFC9A7 PUSH1 0xE0 SHL PUSH1 0x1 PUSH1 0x1 PUSH1 0xE0 SHL SUB NOT DUP4 AND EQ JUMPDEST SWAP3 SWAP2 POP POP JUMP JUMPDEST PUSH2 0x426 PUSH1 0x0 DUP1 MLOAD PUSH1 0x20 PUSH2 0x1E20 DUP4 CODECOPY DUP2 MLOAD SWAP2 MSTORE CALLER PUSH2 0xDED JUMP JUMPDEST PUSH2 0x44B JUMPI PUSH1 0x40 MLOAD PUSH3 0x461BCD PUSH1 0xE5 SHL DUP2 MSTORE PUSH1 0x4 ADD PUSH2 0x442 SWAP1 PUSH2 0x1D41 JUMP JUMPDEST PUSH1 0x40 MLOAD DUP1 SWAP2 SUB SWAP1 REVERT JUMPDEST PUSH1 0x0 PUSH1 0x1 PUSH1 0x1 PUSH1 0xA0 SHL SUB AND PUSH1 0x2 DUP4 DUP4 PUSH1 0x40 MLOAD PUSH2 0x468 SWAP3 SWAP2 SWAP1 PUSH2 0x1C7C JUMP JUMPDEST SWAP1 DUP2 MSTORE PUSH1 0x40 MLOAD SWAP1 DUP2 SWAP1 SUB PUSH1 0x20 ADD SWAP1 KECCAK256 SLOAD PUSH1 0x1 PUSH1 0x1 PUSH1 0xA0 SHL SUB PUSH2 0x100 SWAP1 SWAP2 DIV AND EQ ISZERO PUSH2 0x538 JUMPI PUSH1 0x40 MLOAD PUSH3 0x461BCD PUSH1 0xE5 SHL DUP2 MSTORE PUSH1 0x20 PUSH1 0x4 DUP3 ADD MSTORE PUSH1 0x6E PUSH1 0x24 DUP3 ADD MSTORE PUSH32 0x5265676973747279202D20746F67676C65436F6D7065746974696F6E41637469 PUSH1 0x44 DUP3 ADD MSTORE PUSH32 0x76653A20436F6D7065746974696F6E20646F6573206E6F742065786973742E20 PUSH1 0x64 DUP3 ADD MSTORE PUSH32 0x5573652066756E6374696F6E202772656769737465724E6577436F6D70657469 PUSH1 0x84 DUP3 ADD MSTORE PUSH14 0x3A34B7B7139034B739BA32B0B217 PUSH1 0x91 SHL PUSH1 0xA4 DUP3 ADD MSTORE PUSH1 0xC4 ADD PUSH2 0x442 JUMP JUMPDEST PUSH1 0x2 DUP3 DUP3 PUSH1 0x40 MLOAD PUSH2 0x54A SWAP3 SWAP2 SWAP1 PUSH2 0x1C7C JUMP JUMPDEST SWAP1 DUP2 MSTORE PUSH1 0x40 MLOAD SWAP1 DUP2 SWAP1 SUB PUSH1 0x20 ADD DUP2 KECCAK256 SLOAD PUSH1 0xFF AND ISZERO SWAP1 PUSH1 0x2 SWAP1 PUSH2 0x56F SWAP1 DUP6 SWAP1 DUP6 SWAP1 PUSH2 0x1C7C JUMP JUMPDEST SWAP1 DUP2 MSTORE PUSH1 0x40 MLOAD SWAP1 DUP2 SWAP1 SUB PUSH1 0x20 ADD DUP2 KECCAK256 DUP1 SLOAD SWAP3 ISZERO ISZERO PUSH1 0xFF NOT SWAP1 SWAP4 AND SWAP3 SWAP1 SWAP3 OR SWAP1 SWAP2 SSTORE PUSH2 0x59D SWAP1 DUP4 SWAP1 DUP4 SWAP1 PUSH2 0x1C7C JUMP JUMPDEST PUSH1 0x40 MLOAD SWAP1 DUP2 SWAP1 SUB DUP2 KECCAK256 SWAP1 PUSH32 0xB1BDAC09178448906C9B70DF8B0345AC474BBB794B64A551CFFFA0A83A0DFDD9 SWAP1 PUSH1 0x0 SWAP1 LOG2 POP POP JUMP JUMPDEST PUSH1 0x0 PUSH1 0x3 DUP4 DUP4 PUSH1 0x40 MLOAD PUSH2 0x5E5 SWAP3 SWAP2 SWAP1 PUSH2 0x1C7C JUMP JUMPDEST SWAP1 DUP2 MSTORE PUSH1 0x40 MLOAD SWAP1 DUP2 SWAP1 SUB PUSH1 0x20 ADD SWAP1 KECCAK256 SLOAD PUSH1 0x1 PUSH1 0x1 PUSH1 0xA0 SHL SUB PUSH2 0x100 SWAP1 SWAP2 DIV AND SWAP4 SWAP3 POP POP POP JUMP JUMPDEST PUSH1 0x60 PUSH1 0x5 DUP1 SLOAD DUP1 PUSH1 0x20 MUL PUSH1 0x20 ADD PUSH1 0x40 MLOAD SWAP1 DUP2 ADD PUSH1 0x40 MSTORE DUP1 SWAP3 SWAP2 SWAP1 DUP2 DUP2 MSTORE PUSH1 0x20 ADD PUSH1 0x0 SWAP1 JUMPDEST DUP3 DUP3 LT ISZERO PUSH2 0x6DB JUMPI DUP4 DUP3 SWAP1 PUSH1 0x0 MSTORE PUSH1 0x20 PUSH1 0x0 KECCAK256 ADD DUP1 SLOAD PUSH2 0x64E SWAP1 PUSH2 0x1DBD JUMP JUMPDEST DUP1 PUSH1 0x1F ADD PUSH1 0x20 DUP1 SWAP2 DIV MUL PUSH1 0x20 ADD PUSH1 0x40 MLOAD SWAP1 DUP2 ADD PUSH1 0x40 MSTORE DUP1 SWAP3 SWAP2 SWAP1 DUP2 DUP2 MSTORE PUSH1 0x20 ADD DUP3 DUP1 SLOAD PUSH2 0x67A SWAP1 PUSH2 0x1DBD JUMP JUMPDEST DUP1 ISZERO PUSH2 0x6C7 JUMPI DUP1 PUSH1 0x1F LT PUSH2 0x69C JUMPI PUSH2 0x100 DUP1 DUP4 SLOAD DIV MUL DUP4 MSTORE SWAP2 PUSH1 0x20 ADD SWAP2 PUSH2 0x6C7 JUMP JUMPDEST DUP3 ADD SWAP2 SWAP1 PUSH1 0x0 MSTORE PUSH1 0x20 PUSH1 0x0 KECCAK256 SWAP1 JUMPDEST DUP2 SLOAD DUP2 MSTORE SWAP1 PUSH1 0x1 ADD SWAP1 PUSH1 0x20 ADD DUP1 DUP4 GT PUSH2 0x6AA JUMPI DUP3 SWAP1 SUB PUSH1 0x1F AND DUP3 ADD SWAP2 JUMPDEST POP POP POP POP POP DUP2 MSTORE PUSH1 0x20 ADD SWAP1 PUSH1 0x1 ADD SWAP1 PUSH2 0x62F JUMP JUMPDEST POP POP POP POP SWAP1 POP SWAP1 JUMP JUMPDEST PUSH1 0x0 DUP3 DUP2 MSTORE PUSH1 0x20 DUP2 SWAP1 MSTORE PUSH1 0x40 SWAP1 KECCAK256 PUSH1 0x1 ADD SLOAD PUSH2 0x701 SWAP1 JUMPDEST CALLER PUSH2 0xDED JUMP JUMPDEST PUSH2 0x765 JUMPI PUSH1 0x40 MLOAD PUSH3 0x461BCD PUSH1 0xE5 SHL DUP2 MSTORE PUSH1 0x20 PUSH1 0x4 DUP3 ADD MSTORE PUSH1 0x2F PUSH1 0x24 DUP3 ADD MSTORE PUSH32 0x416363657373436F6E74726F6C3A2073656E646572206D75737420626520616E PUSH1 0x44 DUP3 ADD MSTORE PUSH15 0x818591B5A5B881D1BC819DC985B9D PUSH1 0x8A SHL PUSH1 0x64 DUP3 ADD MSTORE PUSH1 0x84 ADD PUSH2 0x442 JUMP JUMPDEST PUSH2 0x76F DUP3 DUP3 PUSH2 0x1830 JUMP JUMPDEST POP POP JUMP JUMPDEST PUSH2 0x78B PUSH1 0x0 DUP1 MLOAD PUSH1 0x20 PUSH2 0x1E20 DUP4 CODECOPY DUP2 MLOAD SWAP2 MSTORE CALLER PUSH2 0xDED JUMP JUMPDEST PUSH2 0x7A7 JUMPI PUSH1 0x40 MLOAD PUSH3 0x461BCD PUSH1 0xE5 SHL DUP2 MSTORE PUSH1 0x4 ADD PUSH2 0x442 SWAP1 PUSH2 0x1D41 JUMP JUMPDEST PUSH1 0x1 PUSH1 0x1 PUSH1 0xA0 SHL SUB DUP3 AND PUSH2 0x823 JUMPI PUSH1 0x40 MLOAD PUSH3 0x461BCD PUSH1 0xE5 SHL DUP2 MSTORE PUSH1 0x20 PUSH1 0x4 DUP3 ADD MSTORE PUSH1 0x3B PUSH1 0x24 DUP3 ADD MSTORE PUSH32 0x5265676973747279202D2072656769737465724E6577457874656E73696F6E3A PUSH1 0x44 DUP3 ADD MSTORE PUSH32 0x2043616E6E6F74207265676973746572203020616464726573732E0000000000 PUSH1 0x64 DUP3 ADD MSTORE PUSH1 0x84 ADD PUSH2 0x442 JUMP JUMPDEST DUP1 PUSH2 0x8A5 JUMPI PUSH1 0x40 MLOAD PUSH3 0x461BCD PUSH1 0xE5 SHL DUP2 MSTORE PUSH1 0x20 PUSH1 0x4 DUP3 ADD MSTORE PUSH1 0x46 PUSH1 0x24 DUP3 ADD MSTORE PUSH32 0x5265676973747279202D2072656769737465724E6577457874656E73696F6E3A PUSH1 0x44 DUP3 ADD MSTORE PUSH32 0x2043616E6E6F742073657420696E666F726D6174696F6E206C6F636174696F6E PUSH1 0x64 DUP3 ADD MSTORE PUSH6 0x103A37901817 PUSH1 0xD1 SHL PUSH1 0x84 DUP3 ADD MSTORE PUSH1 0xA4 ADD PUSH2 0x442 JUMP JUMPDEST PUSH1 0x0 PUSH1 0x1 PUSH1 0x1 PUSH1 0xA0 SHL SUB AND PUSH1 0x3 DUP6 DUP6 PUSH1 0x40 MLOAD PUSH2 0x8C2 SWAP3 SWAP2 SWAP1 PUSH2 0x1C7C JUMP JUMPDEST SWAP1 DUP2 MSTORE PUSH1 0x40 MLOAD SWAP1 DUP2 SWAP1 SUB PUSH1 0x20 ADD SWAP1 KECCAK256 SLOAD PUSH1 0x1 PUSH1 0x1 PUSH1 0xA0 SHL SUB PUSH2 0x100 SWAP1 SWAP2 DIV AND EQ PUSH2 0x954 JUMPI PUSH1 0x40 MLOAD PUSH3 0x461BCD PUSH1 0xE5 SHL DUP2 MSTORE PUSH1 0x20 PUSH1 0x4 DUP3 ADD MSTORE PUSH1 0x3A PUSH1 0x24 DUP3 ADD MSTORE PUSH32 0x5265676973747279202D2072656769737465724E6577457874656E73696F6E3A PUSH1 0x44 DUP3 ADD MSTORE PUSH32 0x20457874656E73696F6E20616C7265616479206578697374732E000000000000 PUSH1 0x64 DUP3 ADD MSTORE PUSH1 0x84 ADD PUSH2 0x442 JUMP JUMPDEST PUSH1 0x40 DUP1 MLOAD PUSH1 0x60 DUP2 ADD DUP3 MSTORE PUSH1 0x1 DUP2 MSTORE PUSH1 0x1 PUSH1 0x1 PUSH1 0xA0 SHL SUB DUP5 AND PUSH1 0x20 DUP3 ADD MSTORE DUP1 DUP3 ADD DUP4 SWAP1 MSTORE SWAP1 MLOAD PUSH1 0x3 SWAP1 PUSH2 0x989 SWAP1 DUP8 SWAP1 DUP8 SWAP1 PUSH2 0x1C7C JUMP JUMPDEST SWAP1 DUP2 MSTORE PUSH1 0x40 DUP1 MLOAD PUSH1 0x20 SWAP3 DUP2 SWAP1 SUB DUP4 ADD SWAP1 KECCAK256 DUP4 MLOAD DUP2 SLOAD SWAP4 DUP6 ADD MLOAD PUSH1 0x1 PUSH1 0x1 PUSH1 0xA8 SHL SUB NOT SWAP1 SWAP5 AND SWAP1 ISZERO ISZERO PUSH2 0x100 PUSH1 0x1 PUSH1 0xA8 SHL SUB NOT AND OR PUSH2 0x100 PUSH1 0x1 PUSH1 0x1 PUSH1 0xA0 SHL SUB SWAP1 SWAP5 AND SWAP4 SWAP1 SWAP4 MUL SWAP3 SWAP1 SWAP3 OR DUP3 SSTORE SWAP2 SWAP1 SWAP2 ADD MLOAD PUSH1 0x1 SWAP2 DUP3 ADD SSTORE PUSH1 0x5 DUP1 SLOAD SWAP2 DUP3 ADD DUP2 SSTORE PUSH1 0x0 MSTORE PUSH2 0xA19 SWAP1 PUSH32 0x36B6384B5ECA791C62761152D0C79BB0604C104A5FB6F4EB0703F3154BB3DB0 ADD DUP6 DUP6 PUSH2 0x1919 JUMP JUMPDEST POP DUP1 DUP3 PUSH1 0x1 PUSH1 0x1 PUSH1 0xA0 SHL SUB AND DUP6 DUP6 PUSH1 0x40 MLOAD PUSH2 0xA35 SWAP3 SWAP2 SWAP1 PUSH2 0x1C7C JUMP JUMPDEST PUSH1 0x40 MLOAD SWAP1 DUP2 SWAP1 SUB DUP2 KECCAK256 SWAP1 PUSH32 0xC9ECDE0AB371F72E2D34131665B30CE9144EA01E7DE4A8D5A14D4720617DE991 SWAP1 PUSH1 0x0 SWAP1 LOG4 POP POP POP POP JUMP JUMPDEST PUSH1 0x1 PUSH1 0x1 PUSH1 0xA0 SHL SUB DUP2 AND CALLER EQ PUSH2 0xADB JUMPI PUSH1 0x40 MLOAD PUSH3 0x461BCD PUSH1 0xE5 SHL DUP2 MSTORE PUSH1 0x20 PUSH1 0x4 DUP3 ADD MSTORE PUSH1 0x2F PUSH1 0x24 DUP3 ADD MSTORE PUSH32 0x416363657373436F6E74726F6C3A2063616E206F6E6C792072656E6F756E6365 PUSH1 0x44 DUP3 ADD MSTORE PUSH15 0x103937B632B9903337B91039B2B633 PUSH1 0x89 SHL PUSH1 0x64 DUP3 ADD MSTORE PUSH1 0x84 ADD PUSH2 0x442 JUMP JUMPDEST PUSH2 0x76F DUP3 DUP3 PUSH2 0x18B4 JUMP JUMPDEST PUSH1 0x0 PUSH1 0x2 DUP4 DUP4 PUSH1 0x40 MLOAD PUSH2 0xAF9 SWAP3 SWAP2 SWAP1 PUSH2 0x1C7C JUMP JUMPDEST SWAP1 DUP2 MSTORE PUSH1 0x20 ADD PUSH1 0x40 MLOAD DUP1 SWAP2 SUB SWAP1 KECCAK256 PUSH1 0x1 ADD SLOAD SWAP1 POP SWAP3 SWAP2 POP POP JUMP JUMPDEST PUSH2 0xB2B PUSH1 0x0 DUP1 MLOAD PUSH1 0x20 PUSH2 0x1E20 DUP4 CODECOPY DUP2 MLOAD SWAP2 MSTORE CALLER PUSH2 0xDED JUMP JUMPDEST PUSH2 0xB47 JUMPI PUSH1 0x40 MLOAD PUSH3 0x461BCD PUSH1 0xE5 SHL DUP2 MSTORE PUSH1 0x4 ADD PUSH2 0x442 SWAP1 PUSH2 0x1D41 JUMP JUMPDEST PUSH1 0x0 PUSH1 0x1 PUSH1 0x1 PUSH1 0xA0 SHL SUB AND PUSH1 0x3 DUP4 DUP4 PUSH1 0x40 MLOAD PUSH2 0xB64 SWAP3 SWAP2 SWAP1 PUSH2 0x1C7C JUMP JUMPDEST SWAP1 DUP2 MSTORE PUSH1 0x40 MLOAD SWAP1 DUP2 SWAP1 SUB PUSH1 0x20 ADD SWAP1 KECCAK256 SLOAD PUSH1 0x1 PUSH1 0x1 PUSH1 0xA0 SHL SUB PUSH2 0x100 SWAP1 SWAP2 DIV AND EQ ISZERO PUSH2 0xC2E JUMPI PUSH1 0x40 MLOAD PUSH3 0x461BCD PUSH1 0xE5 SHL DUP2 MSTORE PUSH1 0x20 PUSH1 0x4 DUP3 ADD MSTORE PUSH1 0x68 PUSH1 0x24 DUP3 ADD MSTORE PUSH32 0x5265676973747279202D20746F67676C65457874656E73696F6E416374697665 PUSH1 0x44 DUP3 ADD MSTORE PUSH32 0x3A20457874656E73696F6E20646F6573206E6F742065786973742E2055736520 PUSH1 0x64 DUP3 ADD MSTORE PUSH32 0x66756E6374696F6E202772656769737465724E6577457874656E73696F6E2720 PUSH1 0x84 DUP3 ADD MSTORE PUSH8 0x34B739BA32B0B217 PUSH1 0xC1 SHL PUSH1 0xA4 DUP3 ADD MSTORE PUSH1 0xC4 ADD PUSH2 0x442 JUMP JUMPDEST PUSH1 0x3 DUP3 DUP3 PUSH1 0x40 MLOAD PUSH2 0xC40 SWAP3 SWAP2 SWAP1 PUSH2 0x1C7C JUMP JUMPDEST SWAP1 DUP2 MSTORE PUSH1 0x40 MLOAD SWAP1 DUP2 SWAP1 SUB PUSH1 0x20 ADD DUP2 KECCAK256 SLOAD PUSH1 0xFF AND ISZERO SWAP1 PUSH1 0x3 SWAP1 PUSH2 0xC65 SWAP1 DUP6 SWAP1 DUP6 SWAP1 PUSH2 0x1C7C JUMP JUMPDEST SWAP1 DUP2 MSTORE PUSH1 0x40 MLOAD SWAP1 DUP2 SWAP1 SUB PUSH1 0x20 ADD DUP2 KECCAK256 DUP1 SLOAD SWAP3 ISZERO ISZERO PUSH1 0xFF NOT SWAP1 SWAP4 AND SWAP3 SWAP1 SWAP3 OR SWAP1 SWAP2 SSTORE PUSH2 0xC93 SWAP1 DUP4 SWAP1 DUP4 SWAP1 PUSH2 0x1C7C JUMP JUMPDEST PUSH1 0x40 MLOAD SWAP1 DUP2 SWAP1 SUB DUP2 KECCAK256 SWAP1 PUSH32 0x83AE5D198DE73BBA6F0F383B1B155DAE2CA94D1D7ECBD63542D0D07635209FDD SWAP1 PUSH1 0x0 SWAP1 LOG2 POP POP JUMP JUMPDEST PUSH1 0x0 PUSH1 0x2 DUP4 DUP4 PUSH1 0x40 MLOAD PUSH2 0x5E5 SWAP3 SWAP2 SWAP1 PUSH2 0x1C7C JUMP JUMPDEST PUSH1 0x0 PUSH1 0x3 DUP4 DUP4 PUSH1 0x40 MLOAD PUSH2 0xAF9 SWAP3 SWAP2 SWAP1 PUSH2 0x1C7C JUMP JUMPDEST PUSH1 0x0 PUSH1 0x2 DUP4 DUP4 PUSH1 0x40 MLOAD PUSH2 0xD03 SWAP3 SWAP2 SWAP1 PUSH2 0x1C7C JUMP JUMPDEST SWAP1 DUP2 MSTORE PUSH1 0x40 MLOAD SWAP1 DUP2 SWAP1 SUB PUSH1 0x20 ADD SWAP1 KECCAK256 SLOAD PUSH1 0xFF AND SWAP4 SWAP3 POP POP POP JUMP JUMPDEST PUSH1 0x60 PUSH1 0x4 DUP1 SLOAD DUP1 PUSH1 0x20 MUL PUSH1 0x20 ADD PUSH1 0x40 MLOAD SWAP1 DUP2 ADD PUSH1 0x40 MSTORE DUP1 SWAP3 SWAP2 SWAP1 DUP2 DUP2 MSTORE PUSH1 0x20 ADD PUSH1 0x0 SWAP1 JUMPDEST DUP3 DUP3 LT ISZERO PUSH2 0x6DB JUMPI DUP4 DUP3 SWAP1 PUSH1 0x0 MSTORE PUSH1 0x20 PUSH1 0x0 KECCAK256 ADD DUP1 SLOAD PUSH2 0xD60 SWAP1 PUSH2 0x1DBD JUMP JUMPDEST DUP1 PUSH1 0x1F ADD PUSH1 0x20 DUP1 SWAP2 DIV MUL PUSH1 0x20 ADD PUSH1 0x40 MLOAD SWAP1 DUP2 ADD PUSH1 0x40 MSTORE DUP1 SWAP3 SWAP2 SWAP1 DUP2 DUP2 MSTORE PUSH1 0x20 ADD DUP3 DUP1 SLOAD PUSH2 0xD8C SWAP1 PUSH2 0x1DBD JUMP JUMPDEST DUP1 ISZERO PUSH2 0xDD9 JUMPI DUP1 PUSH1 0x1F LT PUSH2 0xDAE JUMPI PUSH2 0x100 DUP1 DUP4 SLOAD DIV MUL DUP4 MSTORE SWAP2 PUSH1 0x20 ADD SWAP2 PUSH2 0xDD9 JUMP JUMPDEST DUP3 ADD SWAP2 SWAP1 PUSH1 0x0 MSTORE PUSH1 0x20 PUSH1 0x0 KECCAK256 SWAP1 JUMPDEST DUP2 SLOAD DUP2 MSTORE SWAP1 PUSH1 0x1 ADD SWAP1 PUSH1 0x20 ADD DUP1 DUP4 GT PUSH2 0xDBC JUMPI DUP3 SWAP1 SUB PUSH1 0x1F AND DUP3 ADD SWAP2 JUMPDEST POP POP POP POP POP DUP2 MSTORE PUSH1 0x20 ADD SWAP1 PUSH1 0x1 ADD SWAP1 PUSH2 0xD41 JUMP JUMPDEST PUSH1 0x0 SWAP2 DUP3 MSTORE PUSH1 0x20 DUP3 DUP2 MSTORE PUSH1 0x40 DUP1 DUP5 KECCAK256 PUSH1 0x1 PUSH1 0x1 PUSH1 0xA0 SHL SUB SWAP4 SWAP1 SWAP4 AND DUP5 MSTORE SWAP2 SWAP1 MSTORE SWAP1 KECCAK256 SLOAD PUSH1 0xFF AND SWAP1 JUMP JUMPDEST PUSH2 0xE2E PUSH1 0x0 DUP1 MLOAD PUSH1 0x20 PUSH2 0x1E20 DUP4 CODECOPY DUP2 MLOAD SWAP2 MSTORE CALLER PUSH2 0xDED JUMP JUMPDEST PUSH2 0xE4A JUMPI PUSH1 0x40 MLOAD PUSH3 0x461BCD PUSH1 0xE5 SHL DUP2 MSTORE PUSH1 0x4 ADD PUSH2 0x442 SWAP1 PUSH2 0x1D41 JUMP JUMPDEST PUSH1 0x1 PUSH1 0x1 PUSH1 0xA0 SHL SUB DUP2 AND PUSH2 0xEC6 JUMPI PUSH1 0x40 MLOAD PUSH3 0x461BCD PUSH1 0xE5 SHL DUP2 MSTORE PUSH1 0x20 PUSH1 0x4 DUP3 ADD MSTORE PUSH1 0x37 PUSH1 0x24 DUP3 ADD MSTORE PUSH32 0x5265676973747279202D206368616E6765546F6B656E416464726573733A2043 PUSH1 0x44 DUP3 ADD MSTORE PUSH32 0x616E6E6F742073657420746F203020616464726573732E000000000000000000 PUSH1 0x64 DUP3 ADD MSTORE PUSH1 0x84 ADD PUSH2 0x442 JUMP JUMPDEST PUSH1 0x1 DUP1 SLOAD PUSH1 0x1 PUSH1 0x1 PUSH1 0xA0 SHL SUB NOT AND PUSH1 0x1 PUSH1 0x1 PUSH1 0xA0 SHL SUB DUP4 AND SWAP1 DUP2 OR SWAP1 SWAP2 SSTORE PUSH1 0x40 MLOAD PUSH32 0x1297217F6DA0341BA2CAB10677A2E4471C20EBC84ACC96EF2339A734A3A233B2 SWAP1 PUSH1 0x0 SWAP1 LOG2 POP JUMP JUMPDEST PUSH2 0xF28 PUSH1 0x0 DUP1 MLOAD PUSH1 0x20 PUSH2 0x1E20 DUP4 CODECOPY DUP2 MLOAD SWAP2 MSTORE CALLER PUSH2 0xDED JUMP JUMPDEST PUSH2 0xF44 JUMPI PUSH1 0x40 MLOAD PUSH3 0x461BCD PUSH1 0xE5 SHL DUP2 MSTORE PUSH1 0x4 ADD PUSH2 0x442 SWAP1 PUSH2 0x1D41 JUMP JUMPDEST PUSH1 0x1 PUSH1 0x1 PUSH1 0xA0 SHL SUB DUP3 AND PUSH2 0xFC0 JUMPI PUSH1 0x40 MLOAD PUSH3 0x461BCD PUSH1 0xE5 SHL DUP2 MSTORE PUSH1 0x20 PUSH1 0x4 DUP3 ADD MSTORE PUSH1 0x3D PUSH1 0x24 DUP3 ADD MSTORE PUSH32 0x5265676973747279202D2072656769737465724E6577436F6D7065746974696F PUSH1 0x44 DUP3 ADD MSTORE PUSH32 0x6E3A2043616E6E6F74207265676973746572203020616464726573732E000000 PUSH1 0x64 DUP3 ADD MSTORE PUSH1 0x84 ADD PUSH2 0x442 JUMP JUMPDEST DUP1 PUSH2 0x1033 JUMPI PUSH1 0x40 MLOAD PUSH3 0x461BCD PUSH1 0xE5 SHL DUP2 MSTORE PUSH1 0x20 PUSH1 0x4 DUP3 ADD MSTORE PUSH1 0x39 PUSH1 0x24 DUP3 ADD MSTORE PUSH32 0x5265676973747279202D2072756C65734C6F636174696F6E3A2043616E6E6F74 PUSH1 0x44 DUP3 ADD MSTORE PUSH32 0x207365742072756C6573206C6F636174696F6E20746F20302E00000000000000 PUSH1 0x64 DUP3 ADD MSTORE PUSH1 0x84 ADD PUSH2 0x442 JUMP JUMPDEST PUSH1 0x0 PUSH1 0x1 PUSH1 0x1 PUSH1 0xA0 SHL SUB AND PUSH1 0x2 DUP6 DUP6 PUSH1 0x40 MLOAD PUSH2 0x1050 SWAP3 SWAP2 SWAP1 PUSH2 0x1C7C JUMP JUMPDEST SWAP1 DUP2 MSTORE PUSH1 0x40 MLOAD SWAP1 DUP2 SWAP1 SUB PUSH1 0x20 ADD SWAP1 KECCAK256 SLOAD PUSH1 0x1 PUSH1 0x1 PUSH1 0xA0 SHL SUB PUSH2 0x100 SWAP1 SWAP2 DIV AND EQ PUSH2 0x10E2 JUMPI PUSH1 0x40 MLOAD PUSH3 0x461BCD PUSH1 0xE5 SHL DUP2 MSTORE PUSH1 0x20 PUSH1 0x4 DUP3 ADD MSTORE PUSH1 0x3E PUSH1 0x24 DUP3 ADD MSTORE PUSH32 0x5265676973747279202D2072656769737465724E6577436F6D7065746974696F PUSH1 0x44 DUP3 ADD MSTORE PUSH32 0x6E3A20436F6D7065746974696F6E20616C7265616479206578697374732E0000 PUSH1 0x64 DUP3 ADD MSTORE PUSH1 0x84 ADD PUSH2 0x442 JUMP JUMPDEST PUSH1 0x40 DUP1 MLOAD PUSH1 0x60 DUP2 ADD DUP3 MSTORE PUSH1 0x1 DUP2 MSTORE PUSH1 0x1 PUSH1 0x1 PUSH1 0xA0 SHL SUB DUP5 AND PUSH1 0x20 DUP3 ADD MSTORE DUP1 DUP3 ADD DUP4 SWAP1 MSTORE SWAP1 MLOAD PUSH1 0x2 SWAP1 PUSH2 0x1117 SWAP1 DUP8 SWAP1 DUP8 SWAP1 PUSH2 0x1C7C JUMP JUMPDEST SWAP1 DUP2 MSTORE PUSH1 0x40 DUP1 MLOAD PUSH1 0x20 SWAP3 DUP2 SWAP1 SUB DUP4 ADD SWAP1 KECCAK256 DUP4 MLOAD DUP2 SLOAD SWAP4 DUP6 ADD MLOAD PUSH1 0x1 PUSH1 0x1 PUSH1 0xA8 SHL SUB NOT SWAP1 SWAP5 AND SWAP1 ISZERO ISZERO PUSH2 0x100 PUSH1 0x1 PUSH1 0xA8 SHL SUB NOT AND OR PUSH2 0x100 PUSH1 0x1 PUSH1 0x1 PUSH1 0xA0 SHL SUB SWAP1 SWAP5 AND SWAP4 SWAP1 SWAP4 MUL SWAP3 SWAP1 SWAP3 OR DUP3 SSTORE SWAP2 SWAP1 SWAP2 ADD MLOAD PUSH1 0x1 SWAP2 DUP3 ADD SSTORE PUSH1 0x4 DUP1 SLOAD SWAP2 DUP3 ADD DUP2 SSTORE PUSH1 0x0 MSTORE PUSH2 0x11A7 SWAP1 PUSH32 0x8A35ACFBC15FF81A39AE7D344FD709F28E8600B4AA8C65C6B64BFE7FE36BD19B ADD DUP6 DUP6 PUSH2 0x1919 JUMP JUMPDEST POP DUP2 PUSH1 0x1 PUSH1 0x1 PUSH1 0xA0 SHL SUB AND DUP5 DUP5 PUSH1 0x40 MLOAD PUSH2 0x11C2 SWAP3 SWAP2 SWAP1 PUSH2 0x1C7C JUMP JUMPDEST PUSH1 0x40 MLOAD SWAP1 DUP2 SWAP1 SUB DUP2 KECCAK256 DUP4 DUP3 MSTORE SWAP1 PUSH32 0xE8CDF60632EED712180856CC0945BC61A38A954C7A0C2697944488B63A886150 SWAP1 PUSH1 0x20 ADD PUSH1 0x40 MLOAD DUP1 SWAP2 SUB SWAP1 LOG3 POP POP POP POP JUMP JUMPDEST PUSH1 0x0 DUP3 DUP2 MSTORE PUSH1 0x20 DUP2 SWAP1 MSTORE PUSH1 0x40 SWAP1 KECCAK256 PUSH1 0x1 ADD SLOAD PUSH2 0x121D SWAP1 PUSH2 0x6FB JUMP JUMPDEST PUSH2 0xADB JUMPI PUSH1 0x40 MLOAD PUSH3 0x461BCD PUSH1 0xE5 SHL DUP2 MSTORE PUSH1 0x20 PUSH1 0x4 DUP3 ADD MSTORE PUSH1 0x30 PUSH1 0x24 DUP3 ADD MSTORE PUSH32 0x416363657373436F6E74726F6C3A2073656E646572206D75737420626520616E PUSH1 0x44 DUP3 ADD MSTORE PUSH16 0x2061646D696E20746F207265766F6B65 PUSH1 0x80 SHL PUSH1 0x64 DUP3 ADD MSTORE PUSH1 0x84 ADD PUSH2 0x442 JUMP JUMPDEST PUSH2 0x129A PUSH1 0x0 DUP1 MLOAD PUSH1 0x20 PUSH2 0x1E20 DUP4 CODECOPY DUP2 MLOAD SWAP2 MSTORE CALLER PUSH2 0xDED JUMP JUMPDEST PUSH2 0x12B6 JUMPI PUSH1 0x40 MLOAD PUSH3 0x461BCD PUSH1 0xE5 SHL DUP2 MSTORE PUSH1 0x4 ADD PUSH2 0x442 SWAP1 PUSH2 0x1D41 JUMP JUMPDEST PUSH1 0x0 PUSH1 0x1 PUSH1 0x1 PUSH1 0xA0 SHL SUB AND PUSH1 0x3 DUP5 DUP5 PUSH1 0x40 MLOAD PUSH2 0x12D3 SWAP3 SWAP2 SWAP1 PUSH2 0x1C7C JUMP JUMPDEST SWAP1 DUP2 MSTORE PUSH1 0x40 MLOAD SWAP1 DUP2 SWAP1 SUB PUSH1 0x20 ADD SWAP1 KECCAK256 SLOAD PUSH1 0x1 PUSH1 0x1 PUSH1 0xA0 SHL SUB PUSH2 0x100 SWAP1 SWAP2 DIV AND EQ ISZERO PUSH2 0x13A7 JUMPI PUSH1 0x40 MLOAD PUSH3 0x461BCD PUSH1 0xE5 SHL DUP2 MSTORE PUSH1 0x20 PUSH1 0x4 DUP3 ADD MSTORE PUSH1 0x72 PUSH1 0x24 DUP3 ADD MSTORE PUSH32 0x5265676973747279202D206368616E6765457874656E73696F6E496E666F4C6F PUSH1 0x44 DUP3 ADD MSTORE PUSH32 0x636174696F6E3A20436F6D7065746974696F6E20646F6573206E6F7420657869 PUSH1 0x64 DUP3 ADD MSTORE PUSH32 0x73742E205573652066756E6374696F6E202772656769737465724E6577436F6D PUSH1 0x84 DUP3 ADD MSTORE PUSH18 0x3832BA34BA34B7B7139034B739BA32B0B217 PUSH1 0x71 SHL PUSH1 0xA4 DUP3 ADD MSTORE PUSH1 0xC4 ADD PUSH2 0x442 JUMP JUMPDEST DUP1 PUSH2 0x141C JUMPI PUSH1 0x40 DUP1 MLOAD PUSH3 0x461BCD PUSH1 0xE5 SHL DUP2 MSTORE PUSH1 0x20 PUSH1 0x4 DUP3 ADD MSTORE PUSH1 0x24 DUP2 ADD SWAP2 SWAP1 SWAP2 MSTORE PUSH32 0x5265676973747279202D206368616E6765457874656E73696F6E496E666F4C6F PUSH1 0x44 DUP3 ADD MSTORE PUSH32 0x636174696F6E3A2043616E6E6F742073657420746F203020616464726573732E PUSH1 0x64 DUP3 ADD MSTORE PUSH1 0x84 ADD PUSH2 0x442 JUMP JUMPDEST DUP1 PUSH1 0x3 DUP5 DUP5 PUSH1 0x40 MLOAD PUSH2 0x142F SWAP3 SWAP2 SWAP1 PUSH2 0x1C7C JUMP JUMPDEST SWAP1 DUP2 MSTORE PUSH1 0x20 ADD PUSH1 0x40 MLOAD DUP1 SWAP2 SUB SWAP1 KECCAK256 PUSH1 0x1 ADD DUP2 SWAP1 SSTORE POP DUP1 DUP4 DUP4 PUSH1 0x40 MLOAD PUSH2 0x1455 SWAP3 SWAP2 SWAP1 PUSH2 0x1C7C JUMP JUMPDEST PUSH1 0x40 MLOAD SWAP1 DUP2 SWAP1 SUB DUP2 KECCAK256 SWAP1 PUSH32 0x88BFDF54CE240D8032AD74FDE55D2FC88647A35643BD1A8A4BB7BFC6EFC6058C SWAP1 PUSH1 0x0 SWAP1 LOG3 POP POP POP JUMP JUMPDEST PUSH1 0x0 PUSH1 0x3 DUP4 DUP4 PUSH1 0x40 MLOAD PUSH2 0xD03 SWAP3 SWAP2 SWAP1 PUSH2 0x1C7C JUMP JUMPDEST PUSH1 0x60 PUSH1 0x0 DUP3 PUSH8 0xFFFFFFFFFFFFFFFF DUP2 GT ISZERO PUSH2 0x14C9 JUMPI PUSH4 0x4E487B71 PUSH1 0xE0 SHL PUSH1 0x0 MSTORE PUSH1 0x41 PUSH1 0x4 MSTORE PUSH1 0x24 PUSH1 0x0 REVERT JUMPDEST PUSH1 0x40 MLOAD SWAP1 DUP1 DUP3 MSTORE DUP1 PUSH1 0x20 MUL PUSH1 0x20 ADD DUP3 ADD PUSH1 0x40 MSTORE DUP1 ISZERO PUSH2 0x14FC JUMPI DUP2 PUSH1 0x20 ADD JUMPDEST PUSH1 0x60 DUP2 MSTORE PUSH1 0x20 ADD SWAP1 PUSH1 0x1 SWAP1 SUB SWAP1 DUP2 PUSH2 0x14E7 JUMPI SWAP1 POP JUMPDEST POP SWAP1 POP PUSH1 0x0 JUMPDEST DUP4 DUP2 LT ISZERO PUSH2 0x1611 JUMPI PUSH1 0x0 DUP1 DUP9 DUP9 DUP5 DUP2 DUP2 LT PUSH2 0x152D JUMPI PUSH4 0x4E487B71 PUSH1 0xE0 SHL PUSH1 0x0 MSTORE PUSH1 0x32 PUSH1 0x4 MSTORE PUSH1 0x24 PUSH1 0x0 REVERT JUMPDEST SWAP1 POP PUSH1 0x20 MUL ADD PUSH1 0x20 DUP2 ADD SWAP1 PUSH2 0x1542 SWAP2 SWAP1 PUSH2 0x1A58 JUMP JUMPDEST PUSH1 0x1 PUSH1 0x1 PUSH1 0xA0 SHL SUB AND DUP8 DUP8 DUP6 DUP2 DUP2 LT PUSH2 0x156B JUMPI PUSH4 0x4E487B71 PUSH1 0xE0 SHL PUSH1 0x0 MSTORE PUSH1 0x32 PUSH1 0x4 MSTORE PUSH1 0x24 PUSH1 0x0 REVERT JUMPDEST SWAP1 POP PUSH1 0x20 MUL DUP2 ADD SWAP1 PUSH2 0x157D SWAP2 SWAP1 PUSH2 0x1D78 JUMP JUMPDEST PUSH1 0x40 MLOAD PUSH2 0x158B SWAP3 SWAP2 SWAP1 PUSH2 0x1C7C JUMP JUMPDEST PUSH1 0x0 PUSH1 0x40 MLOAD DUP1 DUP4 SUB DUP2 DUP6 GAS STATICCALL SWAP2 POP POP RETURNDATASIZE DUP1 PUSH1 0x0 DUP2 EQ PUSH2 0x15C6 JUMPI PUSH1 0x40 MLOAD SWAP2 POP PUSH1 0x1F NOT PUSH1 0x3F RETURNDATASIZE ADD AND DUP3 ADD PUSH1 0x40 MSTORE RETURNDATASIZE DUP3 MSTORE RETURNDATASIZE PUSH1 0x0 PUSH1 0x20 DUP5 ADD RETURNDATACOPY PUSH2 0x15CB JUMP JUMPDEST PUSH1 0x60 SWAP2 POP JUMPDEST POP SWAP2 POP SWAP2 POP DUP1 DUP5 DUP5 DUP2 MLOAD DUP2 LT PUSH2 0x15F1 JUMPI PUSH4 0x4E487B71 PUSH1 0xE0 SHL PUSH1 0x0 MSTORE PUSH1 0x32 PUSH1 0x4 MSTORE PUSH1 0x24 PUSH1 0x0 REVERT JUMPDEST PUSH1 0x20 MUL PUSH1 0x20 ADD ADD DUP2 SWAP1 MSTORE POP POP POP DUP1 DUP1 PUSH2 0x1609 SWAP1 PUSH2 0x1DF8 JUMP JUMPDEST SWAP2 POP POP PUSH2 0x1502 JUMP JUMPDEST POP SWAP6 SWAP5 POP POP POP POP POP JUMP JUMPDEST PUSH2 0x1633 PUSH1 0x0 DUP1 MLOAD PUSH1 0x20 PUSH2 0x1E20 DUP4 CODECOPY DUP2 MLOAD SWAP2 MSTORE CALLER PUSH2 0xDED JUMP JUMPDEST PUSH2 0x164F JUMPI PUSH1 0x40 MLOAD PUSH3 0x461BCD PUSH1 0xE5 SHL DUP2 MSTORE PUSH1 0x4 ADD PUSH2 0x442 SWAP1 PUSH2 0x1D41 JUMP JUMPDEST PUSH1 0x0 PUSH1 0x1 PUSH1 0x1 PUSH1 0xA0 SHL SUB AND PUSH1 0x2 DUP5 DUP5 PUSH1 0x40 MLOAD PUSH2 0x166C SWAP3 SWAP2 SWAP1 PUSH2 0x1C7C JUMP JUMPDEST SWAP1 DUP2 MSTORE PUSH1 0x40 MLOAD SWAP1 DUP2 SWAP1 SUB PUSH1 0x20 ADD SWAP1 KECCAK256 SLOAD PUSH1 0x1 PUSH1 0x1 PUSH1 0xA0 SHL SUB PUSH2 0x100 SWAP1 SWAP2 DIV AND EQ ISZERO PUSH2 0x1743 JUMPI PUSH1 0x40 MLOAD PUSH3 0x461BCD PUSH1 0xE5 SHL DUP2 MSTORE PUSH1 0x20 PUSH1 0x4 DUP3 ADD MSTORE PUSH1 0x75 PUSH1 0x24 DUP3 ADD MSTORE PUSH32 0x5265676973747279202D206368616E6765436F6D7065746974696F6E52756C65 PUSH1 0x44 DUP3 ADD MSTORE PUSH32 0x734C6F636174696F6E3A20436F6D7065746974696F6E20646F6573206E6F7420 PUSH1 0x64 DUP3 ADD MSTORE PUSH32 0x65786973742E205573652066756E6374696F6E202772656769737465724E6577 PUSH1 0x84 DUP3 ADD MSTORE PUSH21 0x21B7B6B832BA34BA34B7B7139034B739BA32B0B217 PUSH1 0x59 SHL PUSH1 0xA4 DUP3 ADD MSTORE PUSH1 0xC4 ADD PUSH2 0x442 JUMP JUMPDEST DUP1 PUSH2 0x17C2 JUMPI PUSH1 0x40 MLOAD PUSH3 0x461BCD PUSH1 0xE5 SHL DUP2 MSTORE PUSH1 0x20 PUSH1 0x4 DUP3 ADD MSTORE PUSH1 0x43 PUSH1 0x24 DUP3 ADD MSTORE PUSH32 0x5265676973747279202D206368616E6765436F6D7065746974696F6E52756C65 PUSH1 0x44 DUP3 ADD MSTORE PUSH32 0x734C6F636174696F6E3A2043616E6E6F742073657420746F2030206164647265 PUSH1 0x64 DUP3 ADD MSTORE PUSH3 0x39B997 PUSH1 0xE9 SHL PUSH1 0x84 DUP3 ADD MSTORE PUSH1 0xA4 ADD PUSH2 0x442 JUMP JUMPDEST DUP1 PUSH1 0x2 DUP5 DUP5 PUSH1 0x40 MLOAD PUSH2 0x17D5 SWAP3 SWAP2 SWAP1 PUSH2 0x1C7C JUMP JUMPDEST SWAP1 DUP2 MSTORE PUSH1 0x20 ADD PUSH1 0x40 MLOAD DUP1 SWAP2 SUB SWAP1 KECCAK256 PUSH1 0x1 ADD DUP2 SWAP1 SSTORE POP DUP1 DUP4 DUP4 PUSH1 0x40 MLOAD PUSH2 0x17FB SWAP3 SWAP2 SWAP1 PUSH2 0x1C7C JUMP JUMPDEST PUSH1 0x40 MLOAD SWAP1 DUP2 SWAP1 SUB DUP2 KECCAK256 SWAP1 PUSH32 0x90E4275B4012FEDFA9B631D72BFF03048DF6AFF9864BC8CDEE29AA02360D7FD SWAP1 PUSH1 0x0 SWAP1 LOG3 POP POP POP JUMP JUMPDEST PUSH2 0x183A DUP3 DUP3 PUSH2 0xDED JUMP JUMPDEST PUSH2 0x76F JUMPI PUSH1 0x0 DUP3 DUP2 MSTORE PUSH1 0x20 DUP2 DUP2 MSTORE PUSH1 0x40 DUP1 DUP4 KECCAK256 PUSH1 0x1 PUSH1 0x1 PUSH1 0xA0 SHL SUB DUP6 AND DUP5 MSTORE SWAP1 SWAP2 MSTORE SWAP1 KECCAK256 DUP1 SLOAD PUSH1 0xFF NOT AND PUSH1 0x1 OR SWAP1 SSTORE PUSH2 0x1870 CALLER SWAP1 JUMP JUMPDEST PUSH1 0x1 PUSH1 0x1 PUSH1 0xA0 SHL SUB AND DUP2 PUSH1 0x1 PUSH1 0x1 PUSH1 0xA0 SHL SUB AND DUP4 PUSH32 0x2F8788117E7EFF1D82E926EC794901D17C78024A50270940304540A733656F0D PUSH1 0x40 MLOAD PUSH1 0x40 MLOAD DUP1 SWAP2 SUB SWAP1 LOG4 POP POP JUMP JUMPDEST PUSH2 0x18BE DUP3 DUP3 PUSH2 0xDED JUMP JUMPDEST ISZERO PUSH2 0x76F JUMPI PUSH1 0x0 DUP3 DUP2 MSTORE PUSH1 0x20 DUP2 DUP2 MSTORE PUSH1 0x40 DUP1 DUP4 KECCAK256 PUSH1 0x1 PUSH1 0x1 PUSH1 0xA0 SHL SUB DUP6 AND DUP1 DUP6 MSTORE SWAP3 MSTORE DUP1 DUP4 KECCAK256 DUP1 SLOAD PUSH1 0xFF NOT AND SWAP1 SSTORE MLOAD CALLER SWAP3 DUP6 SWAP2 PUSH32 0xF6391F5C32D9C69D2A47EA670B442974B53935D1EDC7FD64EB21E047A839171B SWAP2 SWAP1 LOG4 POP POP JUMP JUMPDEST DUP3 DUP1 SLOAD PUSH2 0x1925 SWAP1 PUSH2 0x1DBD JUMP JUMPDEST SWAP1 PUSH1 0x0 MSTORE PUSH1 0x20 PUSH1 0x0 KECCAK256 SWAP1 PUSH1 0x1F ADD PUSH1 0x20 SWAP1 DIV DUP2 ADD SWAP3 DUP3 PUSH2 0x1947 JUMPI PUSH1 0x0 DUP6 SSTORE PUSH2 0x198D JUMP JUMPDEST DUP3 PUSH1 0x1F LT PUSH2 0x1960 JUMPI DUP3 DUP1 ADD PUSH1 0xFF NOT DUP3 CALLDATALOAD AND OR DUP6 SSTORE PUSH2 0x198D JUMP JUMPDEST DUP3 DUP1 ADD PUSH1 0x1 ADD DUP6 SSTORE DUP3 ISZERO PUSH2 0x198D JUMPI SWAP2 DUP3 ADD JUMPDEST DUP3 DUP2 GT ISZERO PUSH2 0x198D JUMPI DUP3 CALLDATALOAD DUP3 SSTORE SWAP2 PUSH1 0x20 ADD SWAP2 SWAP1 PUSH1 0x1 ADD SWAP1 PUSH2 0x1972 JUMP JUMPDEST POP PUSH2 0x1999 SWAP3 SWAP2 POP PUSH2 0x199D JUMP JUMPDEST POP SWAP1 JUMP JUMPDEST JUMPDEST DUP1 DUP3 GT ISZERO PUSH2 0x1999 JUMPI PUSH1 0x0 DUP2 SSTORE PUSH1 0x1 ADD PUSH2 0x199E JUMP JUMPDEST DUP1 CALLDATALOAD PUSH1 0x1 PUSH1 0x1 PUSH1 0xA0 SHL SUB DUP2 AND DUP2 EQ PUSH2 0x19C9 JUMPI PUSH1 0x0 DUP1 REVERT JUMPDEST SWAP2 SWAP1 POP JUMP JUMPDEST PUSH1 0x0 DUP1 DUP4 PUSH1 0x1F DUP5 ADD SLT PUSH2 0x19DF JUMPI DUP2 DUP3 REVERT JUMPDEST POP DUP2 CALLDATALOAD PUSH8 0xFFFFFFFFFFFFFFFF DUP2 GT ISZERO PUSH2 0x19F6 JUMPI DUP2 DUP3 REVERT JUMPDEST PUSH1 0x20 DUP4 ADD SWAP2 POP DUP4 PUSH1 0x20 DUP3 PUSH1 0x5 SHL DUP6 ADD ADD GT ISZERO PUSH2 0x1A11 JUMPI PUSH1 0x0 DUP1 REVERT JUMPDEST SWAP3 POP SWAP3 SWAP1 POP JUMP JUMPDEST PUSH1 0x0 DUP1 DUP4 PUSH1 0x1F DUP5 ADD SLT PUSH2 0x1A29 JUMPI DUP2 DUP3 REVERT JUMPDEST POP DUP2 CALLDATALOAD PUSH8 0xFFFFFFFFFFFFFFFF DUP2 GT ISZERO PUSH2 0x1A40 JUMPI DUP2 DUP3 REVERT JUMPDEST PUSH1 0x20 DUP4 ADD SWAP2 POP DUP4 PUSH1 0x20 DUP3 DUP6 ADD ADD GT ISZERO PUSH2 0x1A11 JUMPI PUSH1 0x0 DUP1 REVERT JUMPDEST PUSH1 0x0 PUSH1 0x20 DUP3 DUP5 SUB SLT ISZERO PUSH2 0x1A69 JUMPI DUP1 DUP2 REVERT JUMPDEST PUSH2 0x1A72 DUP3 PUSH2 0x19B2 JUMP JUMPDEST SWAP4 SWAP3 POP POP POP JUMP JUMPDEST PUSH1 0x0 DUP1 PUSH1 0x0 DUP1 PUSH1 0x40 DUP6 DUP8 SUB SLT ISZERO PUSH2 0x1A8E JUMPI DUP3 DUP4 REVERT JUMPDEST DUP5 CALLDATALOAD PUSH8 0xFFFFFFFFFFFFFFFF DUP1 DUP3 GT ISZERO PUSH2 0x1AA5 JUMPI DUP5 DUP6 REVERT JUMPDEST PUSH2 0x1AB1 DUP9 DUP4 DUP10 ADD PUSH2 0x19CE JUMP JUMPDEST SWAP1 SWAP7 POP SWAP5 POP PUSH1 0x20 DUP8 ADD CALLDATALOAD SWAP2 POP DUP1 DUP3 GT ISZERO PUSH2 0x1AC9 JUMPI DUP4 DUP5 REVERT JUMPDEST POP PUSH2 0x1AD6 DUP8 DUP3 DUP9 ADD PUSH2 0x19CE JUMP JUMPDEST SWAP6 SWAP9 SWAP5 SWAP8 POP SWAP6 POP POP POP POP JUMP JUMPDEST PUSH1 0x0 PUSH1 0x20 DUP3 DUP5 SUB SLT ISZERO PUSH2 0x1AF3 JUMPI DUP1 DUP2 REVERT JUMPDEST POP CALLDATALOAD SWAP2 SWAP1 POP JUMP JUMPDEST PUSH1 0x0 DUP1 PUSH1 0x40 DUP4 DUP6 SUB SLT ISZERO PUSH2 0x1B0C JUMPI DUP2 DUP3 REVERT JUMPDEST DUP3 CALLDATALOAD SWAP2 POP PUSH2 0x1B1C PUSH1 0x20 DUP5 ADD PUSH2 0x19B2 JUMP JUMPDEST SWAP1 POP SWAP3 POP SWAP3 SWAP1 POP JUMP JUMPDEST PUSH1 0x0 PUSH1 0x20 DUP3 DUP5 SUB SLT ISZERO PUSH2 0x1B36 JUMPI DUP1 DUP2 REVERT JUMPDEST DUP2 CALLDATALOAD PUSH1 0x1 PUSH1 0x1 PUSH1 0xE0 SHL SUB NOT DUP2 AND DUP2 EQ PUSH2 0x1A72 JUMPI DUP2 DUP3 REVERT JUMPDEST PUSH1 0x0 DUP1 PUSH1 0x20 DUP4 DUP6 SUB SLT ISZERO PUSH2 0x1B5F JUMPI DUP2 DUP3 REVERT JUMPDEST DUP3 CALLDATALOAD PUSH8 0xFFFFFFFFFFFFFFFF DUP2 GT ISZERO PUSH2 0x1B75 JUMPI DUP3 DUP4 REVERT JUMPDEST PUSH2 0x1B81 DUP6 DUP3 DUP7 ADD PUSH2 0x1A18 JUMP JUMPDEST SWAP1 SWAP7 SWAP1 SWAP6 POP SWAP4 POP POP POP POP JUMP JUMPDEST PUSH1 0x0 DUP1 PUSH1 0x0 DUP1 PUSH1 0x60 DUP6 DUP8 SUB SLT ISZERO PUSH2 0x1BA2 JUMPI DUP4 DUP5 REVERT JUMPDEST DUP5 CALLDATALOAD PUSH8 0xFFFFFFFFFFFFFFFF DUP2 GT ISZERO PUSH2 0x1BB8 JUMPI DUP5 DUP6 REVERT JUMPDEST PUSH2 0x1BC4 DUP8 DUP3 DUP9 ADD PUSH2 0x1A18 JUMP JUMPDEST SWAP1 SWAP6 POP SWAP4 POP PUSH2 0x1BD7 SWAP1 POP PUSH1 0x20 DUP7 ADD PUSH2 0x19B2 JUMP JUMPDEST SWAP4 SWAP7 SWAP3 SWAP6 POP SWAP3 SWAP4 PUSH1 0x40 ADD CALLDATALOAD SWAP3 POP POP JUMP JUMPDEST PUSH1 0x0 DUP1 PUSH1 0x0 PUSH1 0x40 DUP5 DUP7 SUB SLT ISZERO PUSH2 0x1BFB JUMPI DUP3 DUP4 REVERT JUMPDEST DUP4 CALLDATALOAD PUSH8 0xFFFFFFFFFFFFFFFF DUP2 GT ISZERO PUSH2 0x1C11 JUMPI DUP4 DUP5 REVERT JUMPDEST PUSH2 0x1C1D DUP7 DUP3 DUP8 ADD PUSH2 0x1A18 JUMP JUMPDEST SWAP1 SWAP8 SWAP1 SWAP7 POP PUSH1 0x20 SWAP6 SWAP1 SWAP6 ADD CALLDATALOAD SWAP5 SWAP4 POP POP POP POP JUMP JUMPDEST PUSH1 0x0 DUP2 MLOAD DUP1 DUP5 MSTORE DUP2 JUMPDEST DUP2 DUP2 LT ISZERO PUSH2 0x1C56 JUMPI PUSH1 0x20 DUP2 DUP6 ADD DUP2 ADD MLOAD DUP7 DUP4 ADD DUP3 ADD MSTORE ADD PUSH2 0x1C3A JUMP JUMPDEST DUP2 DUP2 GT ISZERO PUSH2 0x1C67 JUMPI DUP3 PUSH1 0x20 DUP4 DUP8 ADD ADD MSTORE JUMPDEST POP PUSH1 0x1F ADD PUSH1 0x1F NOT AND SWAP3 SWAP1 SWAP3 ADD PUSH1 0x20 ADD SWAP3 SWAP2 POP POP JUMP JUMPDEST DUP2 DUP4 DUP3 CALLDATACOPY PUSH1 0x0 SWAP2 ADD SWAP1 DUP2 MSTORE SWAP2 SWAP1 POP JUMP JUMPDEST PUSH1 0x0 PUSH1 0x20 DUP1 DUP4 ADD DUP2 DUP5 MSTORE DUP1 DUP6 MLOAD DUP1 DUP4 MSTORE PUSH1 0x40 DUP7 ADD SWAP2 POP PUSH1 0x40 DUP2 PUSH1 0x5 SHL DUP8 ADD ADD SWAP3 POP DUP4 DUP8 ADD DUP6 JUMPDEST DUP3 DUP2 LT ISZERO PUSH2 0x1CE0 JUMPI PUSH1 0x3F NOT DUP9 DUP7 SUB ADD DUP5 MSTORE PUSH2 0x1CCE DUP6 DUP4 MLOAD PUSH2 0x1C31 JUMP JUMPDEST SWAP5 POP SWAP3 DUP6 ADD SWAP3 SWAP1 DUP6 ADD SWAP1 PUSH1 0x1 ADD PUSH2 0x1CB2 JUMP JUMPDEST POP SWAP3 SWAP8 SWAP7 POP POP POP POP POP POP POP JUMP JUMPDEST PUSH1 0x0 PUSH1 0x20 DUP1 DUP4 ADD DUP2 DUP5 MSTORE DUP1 DUP6 MLOAD DUP1 DUP4 MSTORE PUSH1 0x40 DUP7 ADD SWAP2 POP PUSH1 0x40 DUP2 PUSH1 0x5 SHL DUP8 ADD ADD SWAP3 POP DUP4 DUP8 ADD DUP6 JUMPDEST DUP3 DUP2 LT ISZERO PUSH2 0x1CE0 JUMPI PUSH1 0x3F NOT DUP9 DUP7 SUB ADD DUP5 MSTORE PUSH2 0x1D2F DUP6 DUP4 MLOAD PUSH2 0x1C31 JUMP JUMPDEST SWAP5 POP SWAP3 DUP6 ADD SWAP3 SWAP1 DUP6 ADD SWAP1 PUSH1 0x1 ADD PUSH2 0x1D13 JUMP JUMPDEST PUSH1 0x20 DUP1 DUP3 MSTORE PUSH1 0x17 SWAP1 DUP3 ADD MSTORE PUSH32 0x43616C6C657220697320756E617574686F72697A65642E000000000000000000 PUSH1 0x40 DUP3 ADD MSTORE PUSH1 0x60 ADD SWAP1 JUMP JUMPDEST PUSH1 0x0 DUP1 DUP4 CALLDATALOAD PUSH1 0x1E NOT DUP5 CALLDATASIZE SUB ADD DUP2 SLT PUSH2 0x1D8E JUMPI DUP3 DUP4 REVERT JUMPDEST DUP4 ADD DUP1 CALLDATALOAD SWAP2 POP PUSH8 0xFFFFFFFFFFFFFFFF DUP3 GT ISZERO PUSH2 0x1DA8 JUMPI DUP3 DUP4 REVERT JUMPDEST PUSH1 0x20 ADD SWAP2 POP CALLDATASIZE DUP2 SWAP1 SUB DUP3 SGT ISZERO PUSH2 0x1A11 JUMPI PUSH1 0x0 DUP1 REVERT JUMPDEST PUSH1 0x1 DUP2 DUP2 SHR SWAP1 DUP3 AND DUP1 PUSH2 0x1DD1 JUMPI PUSH1 0x7F DUP3 AND SWAP2 POP JUMPDEST PUSH1 0x20 DUP3 LT DUP2 EQ ISZERO PUSH2 0x1DF2 JUMPI PUSH4 0x4E487B71 PUSH1 0xE0 SHL PUSH1 0x0 MSTORE PUSH1 0x22 PUSH1 0x4 MSTORE PUSH1 0x24 PUSH1 0x0 REVERT JUMPDEST POP SWAP2 SWAP1 POP JUMP JUMPDEST PUSH1 0x0 PUSH1 0x0 NOT DUP3 EQ ISZERO PUSH2 0x1E18 JUMPI PUSH4 0x4E487B71 PUSH1 0xE0 SHL DUP2 MSTORE PUSH1 0x11 PUSH1 0x4 MSTORE PUSH1 0x24 DUP2 REVERT JUMPDEST POP PUSH1 0x1 ADD SWAP1 JUMP INVALID 0xA7 0xC3 PUSH27 0x885C101433A066F48B62753BEB2A7567FE326B80D58772C6EF61E2 DUP3 0xE7 LOG2 PUSH5 0x6970667358 0x22 SLT KECCAK256 DUP11 PUSH12 0x1F3E66BE749FEF757D64D7F5 SWAP12 0xE4 0x4E 0xEF 0xD4 SELFBALANCE SSTORE PUSH4 0x6E205756 LT SWAP16 SWAP6 SLT SMOD CODECOPY PUSH5 0x736F6C6343 STOP ADDMOD DIV STOP CALLER ",
  "sha1": "d3d00423dcb0711343fc9685f7686672d44fb00c",
  "source": "pragma solidity 0.8.4;\n\n// SPDX-License-Identifier: MIT\n\nimport './AccessControlRci.sol';\nimport './../interfaces/IRegistry.sol';\n\n\ncontract Registry is AccessControlRci, IRegistry{\n    struct Comp{\n        bool active;\n        address competitionAddress;\n        bytes32 rulesLocation;\n    }\n\n    struct Ext{\n        bool active;\n        address extensionAddress;\n        bytes32 informationLocation;\n    }\n    address private _token;\n    mapping(string => Comp) private _competition;\n    mapping(string => Ext) private _extension;\n    string[] private _competitionNames;\n    string[] private _extensionNames;\n\n\n    constructor()\n    {\n        _initializeRciAdmin();\n    }\n\n    function registerNewCompetition(string calldata competitionName, address competitionAddress, bytes32 rulesLocation)\n    external override onlyAdmin\n    {\n        require(competitionAddress != address(0), \"Registry - registerNewCompetition: Cannot register 0 address.\");\n        require(rulesLocation != bytes32(0), \"Registry - rulesLocation: Cannot set rules location to 0.\");\n        require(_competition[competitionName].competitionAddress == address(0), \"Registry - registerNewCompetition: Competition already exists.\");\n        _competition[competitionName] = Comp({active:true, competitionAddress:competitionAddress, rulesLocation:rulesLocation});\n        _competitionNames.push(competitionName);\n\n        emit NewCompetitionRegistered(competitionName, competitionAddress, rulesLocation);\n    }\n\n    function toggleCompetitionActive(string calldata competitionName)\n    external override onlyAdmin\n    {\n        require(_competition[competitionName].competitionAddress != address(0), \"Registry - toggleCompetitionActive: Competition does not exist. Use function 'registerNewCompetition' instead.\");\n        _competition[competitionName].active = !_competition[competitionName].active;\n\n        emit CompetitionActiveToggled(competitionName);\n    }\n\n    function changeCompetitionRulesLocation(string calldata competitionName, bytes32 newLocation)\n    external override onlyAdmin\n    {\n        require(_competition[competitionName].competitionAddress != address(0), \"Registry - changeCompetitionRulesLocation: Competition does not exist. Use function 'registerNewCompetition' instead.\");\n        require(newLocation != bytes32(0), \"Registry - changeCompetitionRulesLocation: Cannot set to 0 address.\");\n        _competition[competitionName].rulesLocation = newLocation;\n\n        emit CompetitionRulesLocationChanged(competitionName, newLocation);\n    }\n\n    function changeTokenAddress(address newAddress)\n    external override onlyAdmin\n    {\n        require(newAddress != address(0), \"Registry - changeTokenAddress: Cannot set to 0 address.\");\n        _token = newAddress;\n\n        emit TokenAddressChanged(newAddress);\n    }\n\n    function registerNewExtension(string calldata extensionName,address extensionAddress, bytes32 informationLocation)\n    external override onlyAdmin\n    {\n        require(extensionAddress != address(0), \"Registry - registerNewExtension: Cannot register 0 address.\");\n        require(informationLocation != bytes32(0), \"Registry - registerNewExtension: Cannot set information location to 0.\");\n        require(_extension[extensionName].extensionAddress == address(0), \"Registry - registerNewExtension: Extension already exists.\");\n        _extension[extensionName] = Ext({active:true, extensionAddress:extensionAddress, informationLocation:informationLocation});\n        _extensionNames.push(extensionName);\n\n        emit NewExtensionRegistered(extensionName, extensionAddress, informationLocation);\n    }\n    \n    function toggleExtensionActive(string calldata extensionName)\n    external override onlyAdmin\n    {\n        require(_extension[extensionName].extensionAddress != address(0), \"Registry - toggleExtensionActive: Extension does not exist. Use function 'registerNewExtension' instead.\");\n        _extension[extensionName].active = !_extension[extensionName].active;\n\n        emit ExtensionActiveToggled(extensionName);\n    }\n    \n    function changeExtensionInfoLocation(string calldata extensionName, bytes32 newLocation)\n    external override onlyAdmin\n    {\n        require(_extension[extensionName].extensionAddress != address(0), \"Registry - changeExtensionInfoLocation: Competition does not exist. Use function 'registerNewCompetition' instead.\");\n        require(newLocation != bytes32(0), \"Registry - changeExtensionInfoLocation: Cannot set to 0 address.\");\n        _extension[extensionName].informationLocation = newLocation;\n\n        emit ExtensionInfoLocationChanged(extensionName, newLocation);\n    }\n\n    // convenience function for DAPP.\n    function batchCall(address[] calldata addresses, bytes[] calldata data)\n    external view\n    returns (bytes[] memory)\n    {\n        bytes[] memory returnDataList = new bytes[](data.length);\n        for (uint i = 0; i < data.length; i++){\n            (bool success, bytes memory returnedData) = addresses[i].staticcall(data[i]);\n            returnDataList[i] = returnedData;\n        }\n        return returnDataList;\n    }\n\n    /* READ METHODS */\n\n    function getCompetitionList()\n    view external override\n    returns (string[] memory competitionNames)\n    {\n        competitionNames = _competitionNames;\n    }\n\n    function getExtensionList()\n    view external override\n    returns (string[] memory extensionNames)\n    {\n        extensionNames = _extensionNames;\n    }\n\n    function getCompetitionActive(string calldata competitionName)\n    view external override\n    returns (bool active)\n    {\n        active = _competition[competitionName].active;\n    }\n\n    function getCompetitionAddress(string calldata competitionName)\n    view external override\n    returns (address competitionAddress)\n    {\n        competitionAddress = _competition[competitionName].competitionAddress;\n    }\n\n    function getCompetitionRulesLocation(string calldata competitionName)\n    view external override\n    returns (bytes32 rulesLocation)\n    {\n        rulesLocation = _competition[competitionName].rulesLocation;\n    }\n\n    function getTokenAddress()\n    view external override\n    returns (address token)\n    {\n        token = _token;\n    }\n\n    function getExtensionAddress(string calldata extensionName)\n    view external override\n    returns (address extensionAddress)\n    {\n        extensionAddress = _extension[extensionName].extensionAddress;\n    }\n\n    function getExtensionActive(string calldata extensionName)\n    view external override\n    returns (bool active)\n    {\n        active = _extension[extensionName].active;\n    }\n\n    function getExtensionInfoLocation(string calldata extensionName)\n    view external override\n    returns (bytes32 informationLocation)\n    {\n        informationLocation = _extension[extensionName].informationLocation;\n    }\n}\n\n\n\n\n\n",
  "sourcePath": "contracts/Registry.sol",
  "type": "contract"
}